:100000000C944D0E0C947A0E0C947A0E0C947A0E7D
:100010000C947A0E0C947A0E0C947A0E0C947A0E40
:100020000C947A0E0C947A0E0C947A0E0C947A0E30
:100030000C947A0E0C94F0D10C947A0E0C947A0EE7
:100040000C947A0E0C9435760C947A0E0C947A0EED
:100050000C947A0E0C947A0E0C9405800C943BCE82
:100060000C947A0E0C94BF260C947A0E0C947A0E93
:100070000C947A0E0C947A0E0C947A0E0C947A0EE0
:100080000C947A0E0C947A0E0C947A0E0C947A0ED0
:100090000C947A0E0C947A0E0C947A0E0C94D5CAA9
:1000A0000C947A0E0C947A0E0C947A0E0C947A0EB0
:1000B0000C947A0E0C947A0E0C947A0E0C947A0EA0
:1000C0000C947A0E0C947A0E0C947A0E0C947A0E90
:1000D0000C947A0E0C947A0E0C947A0E0C947A0E80
:1000E0000C947A0E084AD73B3BCE016E84BCBFFD10
:1000F000C12F3D6C74319ABD56833DDA3D00C77FF8
:1001000011BED9E4BB4C3E916BAAAABE0000008090
:100110003F05A84CCDB2D44EB93836A9020C50B91F
:10012000918688083CA6AAAA2ABE000000803F4DFE
:10013000383420582059205A20450043616E6E6F94
:100140007420656E746572207375626469723A20FA
:10015000004D3234004D3233202573006175746FC9
:1001600025692E67006572726F72207772697469F3
:100170006E6720746F2066696C65004E6F74205343
:1001800044207072696E74696E67002F00534420BA
:100190007072696E74696E67206279746520002ED2
:1001A0000044656C6574696F6E206661696C656496
:1001B0002C2046696C653A200046696C65206465B0
:1001C0006C657465643A002E006F70656E20666120
:1001D000696C65642C2046696C653A200057726929
:1001E00074696E6720746F2066696C653A20002E12
:1001F000006F70656E206661696C65642C204669CD
:100200006C653A20002E006F70656E206661696C27
:1002100065642C2046696C653A200046696C65204F
:1002200073656C6563746564002053697A653A2070
:100230000046696C65206F70656E65643A20002E1B
:10024000006F70656E206661696C65642C2046697C
:100250006C653A20004E6F77206672657368206681
:10026000696C653A20004E6F7720646F696E672075
:1002700066696C653A20002220706F73002220703E
:100280006172656E743A2200535542524F5554497B
:100290004E452043414C4C207461726765743A228C
:1002A00000747279696E6720746F2063616C6C20D2
:1002B0007375622D67636F64652066696C65732072
:1002C0007769746820746F6F206D616E79206C653A
:1002D00076656C732E204D4158206C6576656C20D8
:1002E00069733A0053442063617264206F6B006F3E
:1002F00070656E526F6F74206661696C656400761C
:100300006F6C756D652E696E6974206661696C65C8
:100310006400534420696E6974206661696C00480A
:10032000617264636F6465642044656661756C74B2
:100330002053657474696E6773204C6F61646564E3
:10034000002044002049002020204D33303120502F
:10035000005049442073657474696E67733A0020D5
:100360005A0020590020204D323036205800486F66
:100370006D65206F666673657420286D6D293A007F
:10038000204500205A002058002042002054002020
:10039000204D323035205300416476616E636564D0
:1003A000207661726961626C65733A20533D4D69D4
:1003B0006E20666565647261746520286D6D2F73AB
:1003C000292C20543D4D696E2074726176656C2035
:1003D000666565647261746520286D6D2F73292CC4
:1003E00020423D6D696E696D756D207365676D6541
:1003F0006E742074696D6520286D73292C20583D1A
:100400006D6178696D756D205859206A65726B2031
:10041000286D6D2F73292C20205A3D6D6178696DF0
:10042000756D205A206A65726B20286D6D2F7329B7
:100430002C2020453D6D6178696D756D2045206AE1
:1004400065726B20286D6D2F7329002054002020C9
:100450004D323034205300416363656C65726174C2
:10046000696F6E3A20533D616363656C65726174B8
:10047000696F6E2C20543D726574726163742061E3
:100480006363656C65726174696F6E00204500205E
:100490005A0020590020204D3230312058004D6143
:1004A00078696D756D20416363656C65726174690F
:1004B0006F6E20286D6D2F7332293A002045002081
:1004C0005A0020590020204D3230332058004D6111
:1004D00078696D756D2066656564726174657320F9
:1004E000286D6D2F73293A00204500205A002059AD
:1004F0000020204D393220580053746570732070ED
:10050000657220756E69743A004572726F723A00B6
:100510006563686F3A0053544F505045442E200095
:100520005072696E7465722073746F7070656420A8
:1005300064756520746F206572726F72732E204629
:10054000697820746865206572726F7220616E64CC
:1005500020757365204D39393920746F20726573A9
:10056000746172742E202854656D706572617475A3
:1005700072652069732072657365742E20536574EB
:10058000206974206166746572207265737461728B
:1005900074696E6729004B494C4C45442E2000502D
:1005A00072696E7465722068616C7465642E206B6C
:1005B000696C6C28292063616C6C656421006F6B29
:1005C00000526573656E643A20002200556E6B6EB2
:1005D0006F776E20636F6D6D616E643A2022005AF2
:1005E000204F6666736574203A20007A5F6D6178EB
:1005F0003A20007A5F6D696E3A20005A204F666695
:10060000736574005A204F6666736574206F6B00C3
:10061000486F74656E64206F6666736574733A0024
:100620007A5F6D61783A20007A5F6D696E3A2000DA
:10063000795F6D61783A2000795F6D696E3A2000CC
:10064000785F6D61783A2000785F6D696E3A2000BE
:10065000205A3A0020593A0020436F756E74205892
:100660003A200020453A00205A3A0020593A0058D2
:100670003A004649524D574152455F4E414D453A29
:100680004D61726C696E2056313B20537072696EF9
:100690007465722F6772626C206D6173687570206B
:1006A000666F722067656E36204649524D5741523B
:1006B000455F55524C3A68747470733A2F2F6769CE
:1006C000746875622E636F6D2F4572696B5A616C29
:1006D0006D2F4D61726C696E2F2050524F544F43F5
:1006E0004F4C5F56455253494F4E3A312E30204DB4
:1006F000414348494E455F545950453A5072696EDE
:100700007465722045585452554445525F434F55C5
:100710004E543A3320555549443A30303030303019
:1007200030302D303030302D303030302D303030D2
:10073000302D3030303030303030303030300A0012
:100740005072696E746572204F66662E0050726931
:100750006E7465722072656164792E004265642052
:10076000646F6E652E0020423A0020453A00543AEC
:10077000004265642048656174696E672E004865B3
:100780006174696E6720646F6E652E0020573A00B1
:1007900020453A00543A0048656174696E672E2E10
:1007A0002E002042403A0020403A00202F003A001C
:1007B000205400202F0020423A00202F006F6B2091
:1007C000543A002569206D696E2C202569207365D7
:1007D0006300456E642066696C65206C6973740003
:1007E000426567696E2066696C65206C6973740088
:1007F0004E6F206D6F76652E005072696E74657253
:100800002072656164792E00526573756D696E673B
:10081000207072696E74005761697420666F72206F
:10082000757365722E2E2E00536C6565702E2E2EFC
:1008300000FFFFFF0000574300004D430000484306
:100840000000A0400000A0400000004000000000A8
:100850000000000000000000000000000000000098
:10086000000000000000574300004D4300004843D3
:10087000256920686F757273202569206D696E7512
:1008800074657300446F6E65207072696E74696E72
:10089000672066696C650053544F505045442E20C4
:1008A000005072696E7465722073746F7070656445
:1008B0002064756520746F206572726F72732E20CC
:1008C00046697820746865206572726F7220616E67
:1008D0006420757365204D39393920746F20726535
:1008E00073746172742E202854656D706572617422
:1008F0007572652069732072657365742E20536567
:100900007420697420616674657220726573746105
:100910007274696E6729004E6F204C696E65204EB7
:10092000756D626572207769746820636865636BB2
:1009300073756D2C204C617374204C696E653A2080
:10094000004E6F20436865636B73756D2077697423
:1009500068206C696E65206E756D6265722C204C26
:10096000617374204C696E653A2000636865636B3F
:1009700073756D206D69736D617463682C204C61B3
:100980007374204C696E653A20004C696E65204E88
:10099000756D626572206973206E6F74204C61738F
:1009A00074204C696E65204E756D6265722B312C1A
:1009B000204C617374204C696E653A20004D3131D2
:1009C0003000446F6E6520736176696E67206669DA
:1009D0006C652E006F6B004D3239002020506C6129
:1009E0006E6E657242756666657242797465733AB9
:1009F00020002046726565204D656D6F72793A2042
:100A0000004F6374202031203230313500436F6D48
:100A100070696C65643A20006D6140726570726146
:100A2000702E6D6500207C20417574686F723A20CD
:100A3000004F637420203120323031352031353A77
:100A400034353A353600204C61737420557064613A
:100A50007465643A2000312E302E30004D61726C86
:100A6000696E0020536F66747761726520526573FA
:100A7000657400205761746368646F672052657302
:100A80006574002042726F776E206F757420526516
:100A9000736574002045787465726E616C205265D0
:100AA00073657400506F776572557000737461726E
:100AB00074002200656E717565696E6720220022E0
:100AC00000656E717565696E6720220020746F6F16
:100AD000206C6F6E6720657874727573696F6E2015
:100AE00070726576656E7465640020636F6C642057
:100AF000657874727573696F6E2070726576656E55
:100B0000746564007C3C3E5E2B3D3F2F5B5D3B2C5F
:100B10002A225C0045303A20005A3A2000593A20F7
:100B200000583A20004D53312C4D53322050696EFD
:100B3000730A0024F404D9201BC40C5C0E9804C46E
:100B4000095F0265077101F405F900FB04B3004871
:100B5000048700C10369005803550003034500BE24
:100B6000023A008402310053022A002902250004BF
:100B7000022000E4011C00C8011900AF0117009811
:100B80000114008401130071011000610110005173
:100B9000010E0043010D0036010B002B010B00205C
:100BA000010B00150109000C01090003010800FBFD
:100BB000000800F3000800EB000700E4000600DE78
:100BC000000600D8000600D2000600CC000500C7D1
:100BD000000500C2000500BD000400B9000400B516
:100BE000000400B1000400AD000400A9000400A549
:100BF000000300A20003009F0004009B0003009874
:100C00000003009500020093000300900003008D94
:100C10000002008B000300880002008600020084AE
:100C2000000300810002007F0002007D0002007BC3
:100C300000020079000200770001007600020074D3
:100C400000020072000100710002006F0002006DDE
:100C50000001006C0002006A0001006900020067E8
:100C600000010066000100650001006400020062EE
:100C700000010061000100600001005F0002005DF2
:100C80000001005C0001005B0001005A00010059F6
:100C900000010058000100570001005600010055F6
:100CA00000010054000100530000005300010052F5
:100CB00000010051000100500001004F0001004EF2
:100CC0000000004E0001004D0001004C0001004BEF
:100CD0000000004B0001004A0001004900010048EB
:100CE00000000048000100470001004600000046E7
:100CF00000010045000000450001004400010043E0
:100D000000000043000100420000004200010041D9
:100D100000000041000100400001003F0000003FD2
:100D20000001003E0000003E0001003D0000003DCB
:100D30000001003C0000003C0000003C0001003BC2
:100D40000000003B0001003A0000003A00010039B9
:100D500000000039000100380000003800000038B1
:100D600000010037000000370001003600000036A7
:100D7000000000360001003500000035000000359D
:100D80000001003400000034000000340001003392
:100D90000000003300000033000100320000003288
:100DA000000000320001003100000031000000317D
:100DB0000001003000000030000000300001002F72
:100DC0000000002F0000002F0000002F0001002E67
:100DD0000000002E0000002E0001002D0000002D5C
:100DE0000000002D0000002D0001002C0000002C50
:100DF0000000002C0000002C0001002B0000002B44
:100E00000000002B0000002B0001002A0000002A37
:100E10000000002A0000002A00010029000000292B
:100E2000000000290000002900000029000100281E
:100E30000000002800000028000000280000002812
:100E40000001002700000027000000270000002705
:100E500000000027000100260000002600000026F8
:100E600000000026000000260001002500000025EB
:100E700000000025000000250000002500000025DE
:100E800000010024000000240000002400000024D1
:100E900000000024000100230000002300000023C4
:100EA00000000023000000230000002300000023B6
:100EB00000010022000000220000002200000022A9
:100EC000000000220000002200010021000000219B
:100ED000000000210000002100000021000000218E
:100EE0000000002100010020000000200000002080
:100EF0000000002000000020000000200000002072
:100F0000000000200001001F0000001F0000001F63
:100F10000000001F0000001F0000001F0000001F55
:100F20000001001E0000001E0000001E0000001E48
:100F300000000024F4D43050C38E20C2A240178297
:100F40008B7011127A910D816CD90AA861E108C7E2
:100F5000586607615143061E4B5D05C145A7041A3B
:100F6000411104093D9803713931034036DB0265B4
:100F7000339102D4305402802E1D02632CEE017591
:100F80002AC501B028A001102781018F2564012BFB
:100F9000244B01E0223401AC211F018D200D018082
:100FA0001FFC00841EED00971DDF00B81CD200E678
:100FB0001BC600201BBC00641AB200B219A8000AAC
:100FC00019A0006A189900D117910040178B00B53D
:100FD00016840031167E00B31579003A157300C7E8
:100FE000146F0058146A00EE13660088136300251E
:100FF000135E00C7125B006C12570015125400C13B
:1010000011510070114F0021114B00D61049008D75
:101010001047004610440002104200C00F400080FC
:101020000F3E00420F3C00060F3B00CB0E380093F2
:101030000E37005C0E3500270E3400F30D3200C170
:101040000D3100900D3000600D2E00320D2D000589
:101050000D2C00D90C2B00AE0C2900850C29005C4E
:101060000C2700350C27000E0C2600E80B2400C4CA
:101070000B2400A00B23007D0B23005A0B21003909
:101080000B2100180B2000F80A1F00D90A1E00BB14
:101090000A1E009D0A1D00800A1D00630A1C0047ED
:1010A0000A1B002C0A1B00110A1A00F7091A00DD9E
:1010B000091900C4091900AB091900920917007B2E
:1010C000091800630917004C09160036091600209C
:1010D0000916000A091500F5081500E0081400CCEF
:1010E000081400B8081400A4081400900813007D28
:1010F0000812006B0813005808120046081200344A
:10110000081100230811001208110001081100F055
:10111000071000E0071000D0071000C0071000B053
:10112000070F00A107100091070E0083070F00743E
:10113000070F0065070E0057070E0049070E003B1A
:10114000070D002E070E0020070D0013070D0006E7
:10115000070D00F9060C00ED060D00E0060C00D4AA
:10116000060C00C8060C00BC060C00B0060C00A45F
:10117000060B0099060C008D060B0082060B00770B
:10118000060B006C060B0061060A0057060B004CAC
:10119000060A0042060A0038060A002E060A002443
:1011A000060A001A060A001006090007060A00FDD2
:1011B000050900F4050900EB050900E2050900D95D
:1011C000050900D0050900C7050900BE050900B5DD
:1011D000050800AD050800A50509009C0508009458
:1011E0000508008C050800840508007C05080074CB
:1011F0000508006C050700650508005D0507005639
:101200000508004E0507004705070040050800389F
:10121000050700310507002A050700230507001C04
:10122000050600160507000F050700080506000261
:10123000050700FB040600F5040700EE040600E8BD
:10124000040600E2040700DB040600D5040600CF14
:10125000040600C9040600C3040600BD040600B766
:10126000040600B1040500AC040600A6040600A0B4
:101270000405009B04060095040500900406008AFE
:1012800004050085040500800406007A0405007545
:10129000040500700405006B040500660405006188
:1012A0000405005C04050057040500520405004DC8
:1012B00004050048040500430405003E0404003A08
:1012C00004050035040500300404002C0405002743
:1012D000040400230405001E0404001A040400167C
:1012E000040500110404000D0404000904050004B1
:1012F00004040000040400FC030400F8030400F4E8
:10130000030400F0030400EC030400E8030400E419
:10131000030400E0030400DC030400D8030400D449
:10132000030400D0030400CC030400C8030300C579
:10133000030300656E6473746F7073206869743A98
:10134000205A00205A3A00656E6473746F707320DF
:101350006869743A20590020593A00656E647374C4
:101360006F7073206869743A20580020583A0065FD
:101370006E6473746F7073206869743A20004572EC
:10138000723A204D415854454D5020424544005436
:10139000656D7065726174757265206865617465EC
:1013A0006420626564207377697463686564206F84
:1013B00066662E204D415854454D50207472696721
:1013C0006765726564202121004572723A204D499B
:1013D0004E54454D50003A204578747275646572DC
:1013E000207377697463686564206F66662E204D8C
:1013F000494E54454D502074726967676572656443
:101400002021004572723A204D415854454D5000FC
:101410003A204578747275646572207377697463D5
:10142000686564206F66662E204D415854454D50C6
:1014300020747269676765726564202100202D2021
:10144000496E76616C696420657874727564657242
:10145000206E756D62657220210070012C01900173
:101460002701B0012201C0011D01F0011801100285
:10147000130130020E016002090190020401C00252
:10148000FF000003FA004003F5008003F000D003E2
:10149000EB002004E6007004E100E004DC004005FD
:1014A000D700C005D2004006CD00D006C800800796
:1014B000C3003008BE00F008B900C009B400B00A8B
:1014C000AF00B00BAA00D00CA500000EA000500F7A
:1014D0009B00C01096005012910000148C00C015A3
:1014E0008700B0178200B0197D00D01B7800001E65
:1014F000730040206E0090226900F02464004027B1
:101500005F0090295A00E02B5500102E500020302B
:101510004B0010324600E033410090353C0010375C
:10152000370070383200A0392D00B03A2800A03BB7
:101530002300603C1E00103D1900903D1400103E39
:101540000F00703E0A00C03E0500003F00005049F9
:1015500044204175746F74756E652066696E697399
:10156000686564212050757420746865206C61730F
:1015700074204B702C204B6920616E64204B6420DA
:10158000636F6E7374616E74732066726F6D206129
:10159000626F766520696E746F20436F6E6669674F
:1015A00075726174696F6E2E6800504944204175F0
:1015B000746F74756E65206661696C656421207452
:1015C000696D656F75740020403A006F6B20543A66
:1015D000006F6B20423A00504944204175746F748B
:1015E000756E65206661696C6564212054656D7057
:1015F0006572617475726520746F6F2068696768C1
:1016000000204B643A2000204B693A2000204B70A8
:101610003A200020436C6173736963205049442071
:10162000002054753A2000204B753A2000206D614F
:10163000783A2000206D696E3A200020643A20003C
:1016400020626961733A20002D2D3A2D2D002D2D39
:101650002D005344002059000120000120004E6F4E
:101660002053442063617264005072696E74206676
:10167000726F6D2053440053746F70207072696EE6
:101680007400526573756D65207072696E740050D8
:1016900061757365207072696E7400436F6E747249
:1016A0006F6C00507265706172650054756E6500F4
:1016B000496E666F2073637265656E00052E2E009D
:1016C0004D61696E004D3234004D32332025730078
:1016D0004D383420582059205A20450052657374E3
:1016E0006F7265206661696C73616665004D6F7429
:1016F000696F6E0054656D70657261747572650016
:101700004D61696E004573746570732F6D6D004592
:1017100073746570732F6D6D005A73746570732FD9
:101720006D6D005A73746570732F6D6D005973740D
:101730006570732F6D6D005973746570732F6D6DC7
:10174000005873746570732F6D6D005873746570F5
:10175000732F6D6D00412D72657472616374004169
:101760002D7265747261637400416D61782065004B
:10177000416D6178206500416D6178207A00416D8E
:101780006178207A00416D6178207900416D61783F
:10179000207900416D6178207800416D6178207872
:1017A000005654726176206D696E005654726176EF
:1017B000206D696E00566D696E00566D696E00563B
:1017C0006D6178206500566D6178206500566D6109
:1017D00078207A00566D6178207A00566D61782005
:1017E0007900566D6178207900566D617820780017
:1017F000566D617820780056652D6A65726B0056CB
:10180000652D6A65726B00567A2D6A65726B00569B
:101810007A2D6A65726B005678792D6A65726B0055
:101820005678792D6A65726B00416363656C00417F
:101830006363656C00436F6E74726F6C0050726509
:10184000686561742041425320636F6E6600507278
:10185000656865617420504C4120636F6E6600506E
:1018600049442D43005049442D43005049442D44E0
:10187000005049442D44005049442D4900504944EA
:101880002D49005049442D50005049442D5000200E
:1018900002204661637400200220466163740020C8
:1018A00002204D6178002002204D61780020022046
:1018B0004D696E002002204D696E004F6666004F34
:1018C0006E20004F6666004F6E20004175746F7485
:1018D000656D700046616E207370656564004661D9
:1018E0006E20737065656400426564004265640043
:1018F0004E6F7A7A6C65004E6F7A7A6C6500436F32
:101900006E74726F6C0042656400426564004E6FD5
:101910007A7A6C65004E6F7A7A6C650046616E204B
:1019200073706565640046616E2073706565640060
:1019300054656D706572617475726500426564000E
:10194000426564004E6F7A7A6C65004E6F7A7A6CED
:10195000650046616E2073706565640046616E20A7
:1019600073706565640054656D706572617475723D
:1019700065004D6F76652061786973004D383000E1
:1019800053776974636820706F776572206F6E009B
:101990004D38310053776974636820706F776572D2
:1019A000206F666600436F6F6C646F776E005072D5
:1019B00065686561742041425300507265686561D5
:1019C0007420504C410053657420686F6D65206F22
:1019D00066667365747300473238004175746F2012
:1019E000686F6D65004D38340044697361626C65E1
:1019F000207374657070657273004D61696E004D7F
:101A00006F766520302E316D6D004D6F766520311B
:101A10006D6D004D6F76652031306D6D00507265D3
:101A200070617265004578747275646572004D6FFF
:101A30007665205A004D6F76652059004D6F7665AA
:101A40002058004D6F766520617869730045787481
:101A50007275646572005A005900580050726568CA
:101A6000656174204142532042656400507265688C
:101A7000656174204142532031005072657061727B
:101A800065005072656865617420504C4120426564
:101A900064005072656865617420504C41203100CB
:101AA0005072657061726500466C6F772030004639
:101AB0006C6F77203000466C6F7700466C6F770054
:101AC00046616E2073706565640046616E207370B8
:101AD0006565640042656400426564004E6F7A7A11
:101AE0006C65004E6F7A7A6C6500537065656400B2
:101AF0005370656564004D61696E004361726420D6
:101B000072656D6F766564004361726420696E73FF
:101B10006572746564004D33303020533639382097
:101B200050323030004D333030205336353920506C
:101B30003230300000002100240027002A002D0050
:101B40003000330001010000040107010A01000018
:101B50002200250028002B002E0031003400020155
:101B60000000050108010B010000200023002600F1
:101B700029002C002F0032000001000003010601A3
:101B80000901050505050705080808080202020203
:101B90000A0A080804040404010101010101010109
:101BA0000303030303030303040707070C0C0C0CD4
:101BB0000C0C0C0C020202020606060606060606BD
:101BC0000B0B0B0B0B0B0B0B01021020200808104A
:101BD000204010204080020102010804020101029D
:101BE0000408102040808040201008040201800476
:101BF00002018040201008040201080402010102D1
:101C000004081020408001020408102040800000D9
:101C1000090A02080B0C0D0706030401000000006E
:101C200000000000000000000000000000000000B4
:101C30000000000000000000000011100F00000074
:101C40000000000000000000000000000000000094
:101C50000000000002494E46494E4954594E414E3B
:101C6000CDCCCC3D0AD7233C17B7D13877CC2B321B
:101C70009595E6241FB14F0A000020410000C8429C
:101C800000401C4620BCBE4CCA1B0E5AAEC59D74FB
:101C90005327082A13BF44CA032A11241FBECFEFBB
:101CA000D1E2DEBFCDBF00E00CBF14E0A0E0B2E0A7
:101CB000E0E5F5EB01E00BBF02C007900D92AE3EF0
:101CC000B107D9F71BBE13E1AEEEB4E001C01D921F
:101CD000A93EB107E1F71CE1C8E9DCE104C02297A5
:101CE000FE010E944EDAC039D107C9F70E9449D1DE
:101CF0000C949CDA0C940000A0E0B0E0E2E8FEE076
:101D00000C946BDAEC015B016115710519F0FB01B4
:101D100091838083F9908F2D90E00E9452DA892B75
:101D2000C9F7FDE2FF1621F4F990EE24E39405C013
:101D30002BE2F21609F4F990EE248E0101501040C6
:101D4000C80165E57CE143E050E072D2892BF9F4EB
:101D50008E010E5F1F4FC80168E57CE145E050E051
:101D600067D2892B19F48E01095F1F4FA114B104AA
:101D700019F0F50111830083E0FC04C070E090E0ED
:101D800080E813C070E090E080E86FEF07C1C80101
:101D90006DE57CE143E050E04BD2892B69F4A1145E
:101DA000B10429F470E090E080EC6FE7F7C0229670
:101DB000F501D183C083F6CF8824992440E050E018
:101DC00060E070E0EF2DE053EA30A0F5F2E0EF2A9A
:101DD0008E2D90E09C0128703070E2FE06C0232B0F
:101DE00079F50894811C911C2BC0232B19F00894C1
:101DF00081089108DB01CA0112E0880F991FAA1F10
:101E0000BB1F1A95D1F7480F591F6A1F7B1F440F3C
:101E1000551F661F771F4E0F511D611D711D4839DB
:101E200029E9520729E9620729E1720748F084E0AD
:101E3000E82A06C0EE3F31F4E3FC39C098E0E92A15
:101E4000F990C0CFE53311F0E53189F529912D32B4
:101E500019F4E0E1EE2A05C02B3219F081E090E0A0
:101E600003C0299182E090E0E22FE053EA3018F0BD
:101E7000C81BD90B1CC020E030E0FCE020383F0735
:101E80005CF4C901880F991F880F991F280F391F0B
:101E9000220F331F2E0F311DE991E053EA3068F312
:101EA000E4FE03C0309521953F4F820E931ECE2C49
:101EB000DD24E1FE07C0A114B10421F02197F50152
:101EC000D183C083CB01BA010E94B7D67B018C01BC
:101ED000F3E0CF22DD2423E0C216D10421F417FB66
:101EE000109517F9109557016801C801B70120E056
:101EF00030E040E050E00E9417D6882309F44AC041
:101F000097FE0DC024E7E22E2CE1F22E90948194EE
:101F100091089394C0E2D0E000E010E012C09CE889
:101F2000E92E9CE1F92EF6CFF701259135914591E7
:101F30005491C601B5010E94F7D85B016C018C1A5F
:101F40009D0A8C169D0684F7D595C7950F5F1F4F88
:101F50000630110529F08CEF9FEFE80EF91EF1CF46
:101F6000C501D6017C018D018C2D880F8D2D881F18
:101F70008F3F51F0C601B50120E030E040E050E075
:101F80000E9417D6882331F482E290E09093E81300
:101F90008093E7137E2D9F2D802F612F272F392FC0
:101FA000482F562FB901CA01CDB7DEB7ECE00C942B
:101FB00087DA2F923F925F926F927F928F929F92D9
:101FC000AF92BF92CF92DF92EF92FF920F931F9347
:101FD000CF93DF938C011B01EA016115710519F0A4
:101FE000FB0191838083209749F0CE01029783976C
:101FF00028F020E030E040E050E0F6C0F801A19089
:102000008F018A2D90E00E9452DA892BB9F7FDE208
:10201000AF1631F4F801A1908F015524539407C0F5
:10202000FBE2AF1619F4F801A1908F015524209717
:1020300019F0C031D105C1F4F0E3AF1679F4F8011D
:102040008081883711F0883549F4F801A1800E5F4E
:102050001F4FF2E05F2AC0E1D0E006C0209721F4D4
:1020600080E3A816E9F427C0C830D10531F1C930A2
:10207000D10524F4C230D10531F50CC0CA30D105E8
:1020800089F0C031D105F9F4C12CD12CE12CB8E094
:10209000FB2E28C0C12CD12CE12CA0E4FA2E22C0AA
:1020A000CAE0D0E0FCECCF2EFCECDF2EFCECEF2EF7
:1020B000FCE0FF2E17C0C8E0D0E0C12CD12CE12CF1
:1020C000E0E1FE2E0FC09E01442737FD4095542FBE
:1020D00060E070E080E090E80E940FDAC901DA0168
:1020E0006C017D0120E030E040E050E060E03E0126
:1020F000882477FC8094982C70EDB72EBA0CE9E018
:10210000EB1570F48A2D81548A3118F499ECB92EAC
:1021100006C08A2D81568A3150F589EAB82EBA0C4C
:102120008B2D90E08C179D0714F56F3FE1F0C216E0
:10213000D306E406F506B0F0CA01B901A401930183
:102140000E94C9D99B01AC012B0D311D411D511DB0
:102150002130F0E03F07F0E04F07F0E85F0710F4B0
:1021600061E001C06FEFF801A1908F01C5CF21148C
:10217000310481F0662331F001501040F1011183E8
:10218000008308C051FE1AC002501040F1011183B3
:10219000008314C067FF12C050FC05C02FEF3FEF53
:1021A0004FEF5FE704C020E030E040E050E882E21B
:1021B00090E09093E8138093E71316C050FE08C098
:1021C00050954095309521953F4F4F4F5F4F0CC034
:1021D00057FF0AC082E290E09093E8138093E713E0
:1021E0002FEF3FEF4FEF5FE7B901CA01DF91CF91CA
:1021F0001F910F91FF90EF90DF90CF90BF90AF9025
:102200009F908F907F906F905F903F902F90089558
:10221000FB01DC0105900D920020E1F70895FC011F
:1022200005900020E9F7809590958E0F9F1F0895E7
:10223000FB01DC014150504088F08D9181341CF04D
:102240008B350CF4805E659161341CF06B350CF4B9
:10225000605E861B611171F3990B0895881BFCCF9A
:10226000FB01DC014150504048F005900D920020E8
:10227000C9F701C01D9241505040E0F70895FB019D
:1022800055915523A9F0BF01DC014D91451741112E
:10229000E1F759F4CD010590002049F04D9140152A
:1022A0004111C9F3FB014111EFCF81E090E00197AB
:1022B0000895FB01DC0104C08D910190801921F487
:1022C00041505040C8F7881B990B0895FB01DC0171
:1022D00002C001900D9241505040D8F70895FB0183
:1022E000DC018D9181341CF08B350CF4805E6191A2
:1022F00061341CF06B350CF4605E861B611189F350
:10230000990B0895FB01DC010D900020E9F711976E
:1023100001900D920020E1F70895FC01819186174C
:1023200021F08823D9F7992708953197CF0108958F
:10233000FB01DC018D91019080190110D9F3990BFB
:102340000895FB01DC0101900D920020E1F7089552
:10235000FB01DC014150504030F08D91019080191B
:1023600019F40020B9F7881B990B0895FB01DC01D3
:102370004150504048F001900D920020C9F701C033
:102380001D9241505040E0F70895AEE0B0E0EBEC14
:10239000F1E10C9473DA0E891F898EE08C831A8325
:1023A00009838FEF9FE79E838D839E01265E3F4FBB
:1023B000CE010196688D798DA9010AD02F813885CB
:1023C000020F131FF80110822E96E4E00C948FDAAE
:1023D000ABE0B0E0EEEEF1E10C9465DA3C012B01EC
:1023E0005A01FC0117821682838181FD03C06FEFC1
:1023F0007FEFB9C19AE0892E1E010894211C311C7F
:10240000F3012381F20123FD859123FF81912F01A7
:10241000882309F4A5C1853239F423FD859123FF72
:1024200081912F01853221F490E0B301B7D1E8CF3B
:10243000982FFF24EE249924FFE1FF15D0F09B3262
:1024400069F09C3228F4903259F0933291F40EC026
:102450009D3249F0903369F441E024C052E0F52AFE
:1024600084E0F82A28C098E0F92A25C0E0E1FE2A95
:1024700022C0F7FC29C0892F80538A3070F4F6FE01
:1024800005C0989C902C1124980E15C0E89CE02C57
:102490001124E80EF0E2FF2A0EC09E3229F4F6FC69
:1024A0005FC140E4F42A07C09C3619F450E8F52ACD
:1024B00002C0983649F4F20123FD959123FF9191D2
:1024C0002F01992309F0B8CF892F8554833018F054
:1024D0008052833038F444E050E0A40EB51E5FE330
:1024E00059830FC0933631F0933779F0933509F063
:1024F00052C01FC0F5018081898342E050E0A40EE4
:10250000B51E610101E010E011C0F501C080D1806D
:10251000F6FC03C06FEF7FEF02C0692D70E042E070
:1025200050E0A40EB51EC6012ED18C015FE7F52246
:1025300013C0F501C080D180F6FC03C06FEF7FEFC0
:1025400002C0692D70E042E050E0A40EB51EC60145
:102550000FD18C0150E8F52AF3FE06C018C080E2C6
:1025600090E0B3011BD1EA948E2D90E00817190773
:10257000B0F30DC0F601F7FC8591F7FE81916F0174
:1025800090E0B3010BD1E110EA9401501040011525
:10259000110581F7E2C0943611F0993661F5F7FE26
:1025A00008C0F501208131814281538184E090E0AF
:1025B0000AC0F501808191819C01442737FD409537
:1025C000542F82E090E0A80EB91E9FE6F92257FF33
:1025D00009C050954095309521953F4F4F4F5F4F23
:1025E000E0E8FE2ACA01B901A1012AE030E002D1E7
:1025F000D82ED2183FC0953729F41F2D1F7E2AE010
:1026000030E01DC01F2D197F9F3661F0903720F4F8
:10261000983509F0A5C00FC0903739F0983709F008
:102620009FC004C028E030E00AC0106114FD1460AF
:1026300020E130E004C014FD166020E132E017FF15
:1026400008C0F501608171818281938144E050E08E
:1026500008C0F50180819181BC0180E090E042E0FA
:1026600050E0A40EB51EA101C5D0D82ED2188FE718
:10267000F82EF122F6FE0BC05EEFF522D91438F4E5
:10268000F4FE07C0F2FC05C08FEEF82202C01D2D3B
:1026900001C0192DF4FE0DC0FE01ED0DF11D80816C
:1026A000803319F499EEF92208C01F5FF2FE05C0CD
:1026B00003C08F2D867809F01F5F0F2DF3FC13C028
:1026C000F0FE0EC01E1510F09D2C0AC09D2C9E0C15
:1026D000911A1E2D05C080E290E0B3015FD01F5F0C
:1026E0001E15C8F304C01E1510F4E11A01C0EE2433
:1026F00004FF0EC080E390E0B30150D002FF1BC086
:1027000001FD03C088E790E00EC088E590E00BC0B3
:10271000802F867881F001FF02C08BE201C080E249
:10272000F7FC8DE290E0B30139D005C080E390E082
:10273000B30134D09A94D914C8F3DA94F101ED0DB1
:10274000F11D808190E0B30129D0DD20B1F705C0F3
:1027500080E290E0B30122D0EA94EE20C9F750CE97
:10276000F30166817781CB012B96E2E10C9481DA4B
:10277000FC010590615070400110D8F7809590954C
:102780008E0F9F1F0895FC01615070400190011051
:10279000D8F7809590958E0F9F1F08950F931F93E4
:1027A000CF93DF938C01EB018B8181FF1BC082FFF4
:1027B0000DC02E813F818C819D812817390764F4DB
:1027C000E881F9810193F983E88306C0E885F985FA
:1027D000802F1995892B31F48E819F8101969F83DB
:1027E0008E8302C00FEF1FEFC801DF91CF911F91C1
:1027F0000F910895FA01AA27283051F1203181F173
:10280000E8946F936E7F6E5F7F4F8F4F9F4FAF4FF8
:10281000B1E03ED0B4E03CD0670F781F891F9A1F0B
:10282000A11D680F791F8A1F911DA11D6A0F711DBF
:10283000811D911DA11D20D009F468943F912AE0CB
:10284000269F11243019305D3193DEF6CF010895B3
:10285000462F4770405D4193B3E00FD0C9F7F6CFE4
:10286000462F4F70405D4A3318F0495D31FD4052AC
:10287000419302D0A9F7EACFB4E0A6959795879542
:1028800077956795BA95C9F7009761057105089521
:102890009B01AC010A2E06945795479537952795CD
:1028A000BA95C9F7620F731F841F951FA01D089565
:1028B000FC01128213820895FC018381882311F0A8
:1028C00081E082830895FC01828181111282089542
:1028D000CF93DF93DC01FC01EB55FE4F80819181AA
:1028E0000097C9F1019791838083ED01CC5ADF4FA6
:1028F000FD01ED58FF4F8BE1019009928150E1F706
:10290000FD01EE5AFF4FAF58BF4F8D919C9111972B
:10291000A157B04091838083FD01ED58FF4F20E027
:1029200030E0AD014B555E4F10C02F5F3F4FEF01C0
:10293000DF015F968BE10D9009928150E1F7858D63
:10294000968D329791838083B196DA018D919C9117
:102950002817390750F3DF91CF910895FC0188E7DC
:1029600094E0918380838781882321F0CF010496AE
:102970000C9403680895CF92DF92EF92FF920F9329
:102980001F93DF93CF93CDB7DEB76F970FB6F89451
:10299000DEBF0FBECDBF8C016B01095A1F4FD8019E
:1029A0008C9107551040882321F42FE2E22EF12C60
:1029B00003C090E5E92EF12CE00EF11E88E794E0CB
:1029C0009A8389831C821B8218861D82B7016C5FE3
:1029D0007F4FCE010596A60121E00E94EF6E88236D
:1029E00091F5E0E1F5E0949108C08091C00085FF89
:1029F000FCCF9093C600319694919923B1F7EBE305
:102A0000F1E0949108C08091C00085FFFCCF9093C5
:102A1000C600319694919923B1F709C08091C00006
:102A200085FFFCCF0894C11CD11C9093C600F60111
:102A30009081992399F78091C00085FFFCCF8AE0AF
:102A40008093C6005AC0F801EB55FE4F20813181BA
:102A50002A30310508F040C02F5F3F4F318320837B
:102A600021503040F90185E0EE0FFF1F8A95E1F714
:102A7000E21BF30BED58FF4FE00FF11F13C0AF0146
:102A8000415E5F4FBF018BE1DB010D90BD01DA01BB
:102A90000D92AD018150C1F7929182913296968F3D
:102AA000858F7F9721503040BFEF2E3F3B0739F78E
:102AB000D801AD58BF4FF70134968BE101900D92CC
:102AC0008150E1F70F581F4FF70182819381D801A0
:102AD0008D939C9301571040D801AC5ABF4FFE0113
:102AE00035968BE101900D928150E1F70E5A1F4F00
:102AF0008B819C81F80191838083CE0101962EDF2A
:102B00006F960FB6F894DEBF0FBECDBFCF91DF91A9
:102B10001F910F91FF90EF90DF90CF900895EF926B
:102B2000FF920F931F938C013EECE32E31E0F32EC6
:102B3000E80EF91EC7010E94B667C7010E9403682C
:102B4000F801108211821F910F91FF90EF9008956C
:102B5000CF92DF92EF92FF920F931F93CF93DF9369
:102B60007C016B01DB010D900020E9F78D01015024
:102B70001040061B170BEEECF1E0EE0EFF1ED70126
:102B80001C92E2E3FEEFEE0EFF1ECB016EE470E05E
:102B9000C4DBEC01009731F4F8013197EC0DFD1D19
:102BA00086010CC060E270E0B8DB8C010F5F1F4F44
:102BB000CE016AE270E0B1DBFC0131978DE08183E8
:102BC0008AE082831382C70186539E4FB8010E9418
:102BD00000708EEC91E0E80EF91ED7018C918823ED
:102BE00019F1E9E0F5E0949108C08091C00085FFFB
:102BF000FCCF9093C600319694919923B1F7E5E606
:102C0000F1E0949108C08091C00085FFFCCF9093C3
:102C1000C600319694919923B1F78091C00085FF49
:102C2000FCCF8AE08093C600DF91CF911F910F9176
:102C3000FF90EF90DF90CF900895CF93DF93EC015A
:102C40008B81882309F43BC0EDE8F1E0949108C042
:102C50008091C00085FFFCCF9093C600319694917F
:102C60009923B1F7CD57DD4F488159816A817B8126
:102C7000C358D24082E795E02AE030E00E94EC277A
:102C8000EBE8F1E0949108C08091C00085FFFCCF93
:102C90009093C600319694919923B1F7C558DD4FB2
:102CA000488159816A817B8182E795E02AE030E0A2
:102CB0000E94EC278091C00085FFFCCF12C0EBE79B
:102CC000F1E0949108C08091C00085FFFCCF909303
:102CD000C600319694919923B1F78091C00085FF89
:102CE000FCCF8AE08093C600DF91CF9108952F92A8
:102CF0003F924F925F926F927F928F929F92AF928C
:102D0000BF92CF92DF92EF92FF920F931F93DF93C8
:102D1000CF93CDB7DEB7AC970FB6F894DEBF0FBE3A
:102D2000CDBF5C014B01FC018381882309F43BC1C9
:102D3000C50182539E4F0E940368F50112821A8AD0
:102D40001D8A198A188A88E794E09F878E875EE437
:102D5000C52ED12CCA0CDB1C2FE230E0A20EB31E14
:102D6000F601B182A08221ED3FEFA20EB31EF40165
:102D700080818F3209F08DC0C4016FE270E0CDDA3E
:102D80007C010894E11CF11C3E010894611C711C3B
:102D9000260142E1242E312C2C0E3D1E75C0C701A8
:102DA0006FE270E0BADA6C01009709F480C0E816AF
:102DB000F90608F07CC08C010E191F09C301B70188
:102DC000A801D4DA060D171DF8011082F30107C01F
:102DD0008091C00085FFFCCF31969093C600908112
:102DE0009923B1F78091C00085FFFCCFFAE0F09302
:102DF000C600F201608171816115710519F460E00E
:102E000070E002C06C5F7F4FC101A30121E00E940E
:102E1000EF6E882371F5E9ECF1E0949108C08091A0
:102E2000C00085FFFCCF9093C60031969491992302
:102E3000B1F7FE01319607C08091C00085FFFCCF3D
:102E400031969093C60090819923B1F7E7ECF1E0B9
:102E5000949108C08091C00085FFFCCF9093C6007C
:102E6000319694919923B1F78091C00085FFFCCFF2
:102E700094C02EE030E02C0F3D1FF20131832083FF
:102E800076010894E11CF11CE114F10409F087CFEC
:102E90000BC080E590E0A80EB91EF601B182A082B9
:102EA00020EB3FEFA20EB31ED82C092D02C0DE2C62
:102EB0000F2D8EE490E0A80EB91EF501808191815E
:102EC00022EB3FEFA20EB31E009719F480E090E0D2
:102ED00001C004966D2D702F0E94BB6F882371F185
:102EE000E9EBF1E0949108C08091C00085FFFCCF30
:102EF0009093C600319694919923B1F78D2D902F20
:102F00009C01F90107C08091C00085FFFCCF31967C
:102F10009093C60090819923B1F78091C00085FFFE
:102F2000FCCF8AE08093C60083E892E0A80EB91E29
:102F3000F501108211821282138232C0E1EAF1E0BF
:102F4000949108C08091C00085FFFCCF9093C6008B
:102F5000319694919923B1F78D2D902F9C01F90111
:102F600007C08091C00085FFFCCF31969093C600CA
:102F700090819923B1F7EFE9F1E0949108C0809135
:102F8000C00085FFFCCF9093C600319694919923A1
:102F9000B1F78091C00085FFFCCF8AE08093C60026
:102FA000CE010E96DBDCAC960FB6F894DEBF0FBEFA
:102FB000CDBFCF91DF911F910F91FF90EF90DF90E8
:102FC000CF90BF90AF909F908F907F906F905F90C9
:102FD0004F903F902F900895BF92CF92DF92EF9243
:102FE000FF920F931F93CF93DF938C01EB018FE23E
:102FF0008993EE24E394FF2475EAC72E71E0D72E5F
:10300000C00ED11E6FE1B62E14C0FB9CC00111246E
:103010008D589F4F800F911FBE010E94136802C000
:103020002196E3948881882319F08CE88E15C0F7E7
:10303000F3942F2D30E0F601808191812817390714
:1030400020F3E7FC07C0C80182539E4FBE010E94D7
:10305000136801C01882DF91CF911F910F91FF90EB
:10306000EF90DF90CF90BF900895EF92FF920F9373
:103070001F93CF93DF938C01FC01138286A98823D1
:1030800021F0C801C3960E940368E7EAEE2EE1E052
:10309000FE2EE00EF11EC70160E045E30E94B2651E
:1030A000882309F5E0E1F5E0949108C08091C00023
:1030B00085FFFCCF9093C600319694919923B1F788
:1030C000E2E1F3E0949108C08091C00085FFFCCF5D
:1030D0009093C600319694919923B1F78091C000E6
:1030E00085FFFCCF7DC0E801C455DE4FCE01B7019E
:1030F00041E00E949170882341F5CE01B70140E084
:103100000E949170882309F5E9E0F5E0949108C0E8
:103110008091C00085FFFCCF9093C60031969491BA
:103120009923B1F7EFEFF2E0949108C08091C000CD
:1031300085FFFCCF9093C600319694919923B1F707
:103140008091C00085FFFCCF4BC0C801C396BE0173
:103150000E94F56A882309F5E9E0F5E0949108C03A
:103160008091C00085FFFCCF9093C600319694916A
:103170009923B1F7EFEEF2E0949108C08091C0007E
:1031800085FFFCCF9093C600319694919923B1F7B7
:103190008091C00085FFFCCF23C081E0F8018383CC
:1031A000E0E1F5E0949108C08091C00085FFFCCF7C
:1031B0009093C600319694919923B1F7E4EEF2E032
:1031C000949108C08091C00085FFFCCF9093C60009
:1031D000319694919923B1F78091C00085FFFCCF7F
:1031E0008AE08093C600D801AC5ABF4FF801F3962D
:1031F0008BE101900D928150E1F7F80181A992A92C
:103200000E5A1F4FF8019183808302551040C80168
:103210008F96025B1F4FF80191838083DF91CF91DE
:103220001F910F91FF90EF9008952F923F924F9230
:103230005F926F927F929F92AF92BF92CF92DF92F6
:10324000EF92FF920F931F93DF93CF93CDB7DEB72B
:10325000CC55D0400FB6F894DEBF0FBECDBF6C0189
:10326000662311F527E832E0C20ED31ED6018C91F9
:10327000E9E7FDEFCE0EDF1E882309F4E2C02FE759
:1032800032E0C20ED31ED601ED90FD900D911C913F
:10329000E1E8FDEFCE0EDF1E0E9483CEE616F706B4
:1032A0000807190708F4CDC027E832E0C20ED31E84
:1032B000D6011C92E9E7FDEFCE0EDF1ED601139674
:1032C0008C91882339F4C601D0DEF60183818823EE
:1032D00009F4B7C000D000D0EDB7FEB731967E013B
:1032E0000894E11CF11CADB7BEB71296FC92EE92A9
:1032F00011978CE591E093838283D6019D968D9101
:103300009C919E979583848340D88701EDB7FEB743
:1033100036960FB6F894FEBF0FBEEDBF57010AC038
:10332000D8018C91992787FD90950E945ADAF8016F
:1033300081938F01F50101900020E9F73197EA1997
:10334000FB09802F8E198E175CF313E3A12EB12C8D
:10335000AC0CBD1CC50140E050E060E070E00E9494
:10336000EC669924BDE3EB2EF12CEC0EFD1E2E0134
:103370000894411C511CAFE16A2E712C6C0E7D1E0D
:10338000F5E52F2EF1E03F2E42C0D8018C9190E060
:103390000E945ADAF80181938F01D7010D90002025
:1033A000E9F71197AE19BF09802F8E198A176CF3B0
:1033B00027968FAD27978E3751F1C701B20145E0AF
:1033C00050E00E94A811009711F500D000D0EDB791
:1033D000FEB73196ADB7BEB712967C926E9211973A
:1033E00033822282558244820E94C511EDB7FEB716
:1033F00036960FB6F894FEBF0FBEEDBFC3010E9414
:103400006E4B81E591E00E94F54A99249394C501A1
:10341000B70140E050E00E94146A181614F48701C6
:10342000BCCF992041F48FEF9FEFD6019E969C93DD
:103430008E939D9706C0F60185A596A5019696A741
:1034400085A7C45ADF4F0FB6F894DEBF0FBECDBFBD
:10345000CF91DF911F910F91FF90EF90DF90CF9070
:10346000BF90AF909F907F906F905F904F903F90F4
:103470002F9008952F923F924F925F926F927F927A
:103480008F929F92AF92BF92CF92DF92EF92FF9274
:103490000F931F93DF93CF93CDB7DEB7CF58D040B4
:1034A0000FB6F894DEBF0FBECDBF8C012B016A01B1
:1034B000C757DF4F39832883C958D04084E090E054
:1034C000C80ED91EF8017196C957DF4FF983E883FA
:1034D000C758D04044E0642E712C600E711ECA574C
:1034E000DF4F1882C658D04036E6E32EF12CEC0EA2
:1034F000FD1EC7010B96C557DF4F99838883CB58B4
:10350000D04028E8822E22E0922E800E911E9AE86A
:10351000A92E92E0B92EA00EB11E87E4282E312CE0
:103520002C0E3D1EF1013496C357DF4FF983E8831B
:10353000CD58D040E0E1F5E08491C157DF4F88835A
:10354000CF58D04053C1F7018385482F50E0BA01CE
:10355000687170706031710509F056C1F401208105
:1035600031812130310509F44FC12230310509F490
:103570004BC1F701DE0111969081903239F08E2F08
:103580008E19883011F48EE28D939D933196C55734
:10359000DF4F88819981CB58D040E817F90761F750
:1035A0001C921E86F2018081882331F4CE010E9692
:1035B00060E072E00E948211CE010E96B2010E947C
:1035C0008211CE010E96BE016F5F7F4F0E94821165
:1035D000CE010E9660E072E00E9482111CA61FA62A
:1035E0001BA61AA688E794E099A788A7CE018C9617
:1035F000B601AE014F5F5F4F21E00E94EF6E88235E
:1036000009F03FC0F40180819181892BD1F5C15728
:10361000DF4F9881CF58D040E0E1F5E008C08091BD
:10362000C00085FFFCCF9093C600319694919923FA
:10363000B1F7E2E0F2E007C08091C00085FFFCCF67
:1036400031969093C60090819923B1F78091C00084
:1036500085FFFCCFFAE0F093C600FE01319607C06B
:103660008091C00085FFFCCF31969093C600908179
:103670009923B1F78091C00085FFFCCF8AE0809349
:10368000C600C357DF4FA881B981CD58D040FE0195
:10369000BC968BE101900D928150E1F78AA59BA524
:1036A000F1019383828388E794E091838083C8014A
:1036B000BE01625F7F4FA10120E030E0DBDEC1018F
:1036C0004DD9CE0188964AD991C09E3209F48EC058
:1036D0009F3509F48BC0F80191899E3209F486C0A8
:1036E0009F3509F483C043FD81C080E060317105DE
:1036F00009F481E0F80184A7882349F4F701808563
:10370000873409F073C081858E3709F46FC0D30107
:10371000F7018081803241F08E2F8E19883011F4AC
:103720008EE28D9380818D933196C557DF4F8881CE
:103730009981CB58D040E817F90759F71C92F4014A
:1037400080819181009701F5F20107C08091C0004E
:1037500085FFFCCF31969093C60090819923B1F7F5
:10376000F30107C08091C00085FFFCCF3196909394
:10377000C60090819923B1F78091C00085FFFCCFEE
:10378000FAE0F093C60032C08130910539F4F501BA
:103790008081918101969183808328C0029731F5C1
:1037A000C757DF4F88819981C958D040009731F0C1
:1037B000B3010E946F11892B71F42BC0CA57DF4FE0
:1037C0009881C658D040292F30E0F5018081918141
:1037D00028173907F1F0CA57DF4FF881C658D04093
:1037E000FF5FCA57DF4FF883C658D040C601B70104
:1037F000C957DF4F48815981C758D0400E94146A89
:1038000018160CF4A0CE05C0F7019081992309F099
:103810005CCFC157DF4F0FB6F894DEBF0FBECDBFF0
:10382000CF91DF911F910F91FF90EF90DF90CF909C
:10383000BF90AF909F908F907F906F905F904F90D0
:103840003F902F900895EF92FF920F931F93DF9375
:10385000CF93CDB7DEB76F970FB6F894DEBF0FBE2C
:10386000CDBF7C018C01025B1F4F805B9F4FF80135
:103870009183808328E832E0E20EF31E21E030E0FD
:10388000F701219331937F011182108226E73DEFEA
:10389000E20EF31E049640E050E060E070E00E940B
:1038A000EC66F80120813181DE011596F90134962C
:1038B0008BE101900D928150E1F7F90182819381B2
:1038C0009C838B8388E794E09A838983C70165E1B1
:1038D00072E08E010F5F1F4FA80120E030E0CADDCB
:1038E000C8013CD8F701E657FD4F808191816F9662
:1038F0000FB6F894DEBF0FBECDBFCF91DF911F9101
:103900000F91FF90EF900895CF92DF92EF92FF9288
:103910000F931F93DF93CF93CDB7DEB76F970FB69B
:10392000F894DEBF0FBECDBF7C016A018C01025B43
:103930001F4F805B9F4FF8019183808328E832E01E
:10394000E20EF31E22E030E0F701219331937F0174
:103950007183608326E73DEFE20EF31E049640E09C
:1039600050E060E070E00E94EC66F8012081318157
:10397000DE011596F90134968BE101900D9281508C
:10398000E1F7F901828193819C838B8388E794E03E
:103990009A838983C70165E172E08E010F5F1F4F33
:1039A000A801960167DDC8010E94AE146F960FB69C
:1039B000F894DEBF0FBECDBFCF91DF911F910F9165
:1039C000FF90EF90DF90CF9008952F923F924F920B
:1039D0005F926F927F928F929F92AF92BF92CF929F
:1039E000DF92EF92FF920F931F93DF93CF93CDB7A8
:1039F000DEB7AD970FB6F894DEBF0FBECDBF7C012A
:103A00003B014DA7DC0113968C91882309F450C328
:103A1000E1EDF1E0EE0EFF1ED7018C91EFE2FEEF3B
:103A2000EE0EFF1E882309F418C1222309F0E0C01E
:103A300029EE31E0E20EF31ED7018C91E7E1FEEFB3
:103A4000EE0EFF1E882371F1E9E0F5E0949108C0C5
:103A50008091C00085FFFCCF9093C6003196949171
:103A60009923B1F7E1EAF2E0949108C08091C00097
:103A700085FFFCCF9093C600319694919923B1F7BE
:103A800082E795E061E070E04AE050E00E943B2868
:103A90008091C00085FFFCCF8AE08093C6000E9421
:103AA0004F2A06C3E0E1F5E0949108C08091C00080
:103AB00085FFFCCF9093C600319694919923B1F77E
:103AC000E8E8F2E0949108C08091C00085FFFCCF47
:103AD0009093C600319694919923B1F7F30107C0F2
:103AE0008091C00085FFFCCF31969093C6009081F5
:103AF0009923B1F7EDE7F2E0949108C08091C000FE
:103B000085FFFCCF9093C600319694919923B1F72D
:103B1000C7012EEE31E0E20EF31EB7015DDA4BEF86
:103B20005FEFE40EF51ED7019C91E7E1FEEFEE0E8C
:103B3000FF1E8DE8989FF0011124E251FE4FEE0D1B
:103B4000FF1D07C08091C00085FFFCCF3196909388
:103B5000C60090819923B1F7E7E7F2E0949108C09D
:103B60008091C00085FFFCCF9093C6003196949160
:103B70009923B1F723E832E0E20EF31ED7014D910D
:103B80005D916D917C91EDE7FDEFEE0EFF1E82E7FA
:103B900095E02AE030E00E94EC278091C00085FF8C
:103BA000FCCF8AE08093C600A70147515E4FDA013F
:103BB0002C91E22FF0E0EE0FFF1FEE0FFF1FEE0D36
:103BC000FF1DE651FE4F83E892E0E80EF91ED70193
:103BD000AD90BD90CD90DC908DE79DEFE80EF91E85
:103BE000A082B182C282D3822F5FDA012C932FC0D0
:103BF000E0E1F5E0949108C08091C00085FFFCCF22
:103C00009093C600319694919923B1F7E6E6F2E0DD
:103C1000949108C08091C00085FFFCCF9093C600AE
:103C2000319694919923B1F7F30107C08091C000B8
:103C300085FFFCCF31969093C60090819923B1F710
:103C40008091C00085FFFCCF8AE08093C600C70149
:103C500082539E4F0E94036839C0E9EEF1E0EE0EF8
:103C6000FF1ED7011C92E7E1FEEFEE0EFF1EE0E122
:103C7000F5E0949108C08091C00085FFFCCF90933F
:103C8000C600319694919923B1F7E5E5F2E094915D
:103C900008C08091C00085FFFCCF9093C60031968C
:103CA00094919923B1F7F30107C08091C00085FF7B
:103CB000FCCF31969093C60090819923B1F7809103
:103CC000C00085FFFCCF8AE08093C600D701129622
:103CD0001C921A8A1D8A198A188A88E794E09F879D
:103CE0008E876EE4A62EB12CAE0CBF1CEFE2F0E086
:103CF000EE0EFF1ED501ED92FC92E1EDFFEFEE0E10
:103D0000FF1ED3018C918F3209F090C0C3016FE286
:103D100070E00E948D116C010894C11CD11C4E01F1
:103D20000894811C911C250152E1252E312C2C0E6A
:103D30003D1E77C0C6016FE270E00E948D115C01EC
:103D4000009709F480C0C816D90608F07CC08C0121
:103D50000C191D09C401B601A8010E94B611080D75
:103D6000191DF8011082F40107C08091C00085FF81
:103D7000FCCF31969093C60090819923B1F7809142
:103D8000C00085FFFCCFFAE0F093C600D2016D9130
:103D90007C916115710519F460E070E002C06C5F00
:103DA0007F4FC101A40121E00E94EF6E882371F5CD
:103DB000E1E4F2E0949108C08091C00085FFFCCF5F
:103DC0009093C600319694919923B1F7FE013196F4
:103DD00007C08091C00085FFFCCF31969093C6004C
:103DE00090819923B1F7EFE3F2E0949108C08091BC
:103DF000C00085FFFCCF9093C60031969491992323
:103E0000B1F78091C00085FFFCCF23C12EE030E0E8
:103E10002C0F3D1FF2013183208365010894C11CE2
:103E2000D11CC114D10409F085CF0BC040E550E08E
:103E3000E40EF51ED501ED92FC92E0EBFFEFEE0EE5
:103E4000FF1E830101C08601F701E25BFF4F2DA534
:103E5000222309F4BFC0608171816115710519F4D5
:103E600060E070E002C06C5F7F4FC70182539E4FDD
:103E7000A80121E00E94EF6E882309F47EC04FED77
:103E800051E0E40EF51ED7014D915D916D917C914D
:103E9000ECE9F0E0EE0EFF1ED7014D935D936D93BC
:103EA0007C931397E5E8FDEFEE0EFF1EE1E3F2E0F1
:103EB000949108C08091C00085FFFCCF9093C6000C
:103EC000319694919923B1F7F80107C08091C00011
:103ED00085FFFCCF31969093C60090819923B1F76E
:103EE000E9E2F2E0949108C08091C00085FFFCCF28
:103EF0009093C600319694919923B1F782E795E0AB
:103F00002AE030E00E94EC278091C00085FFFCCFC2
:103F10008AE08093C60023E832E0E20EF31ED70168
:103F20001D921D921D921C921397EDE7FDEFEE0E70
:103F3000FF1EEBE1F2E0949108C08091C00085FF84
:103F4000FCCF9093C600319694919923B1F780915C
:103F5000C00085FFFCCF8AE08093C600C70160E007
:103F600070E0A801D1DCD70151968C91882309F427
:103F700098C087010F5E1F4F94C0E7E0F2E0949174
:103F800008C08091C00085FFFCCF9093C600319699
:103F900094919923B1F7F80107C08091C00085FF83
:103FA000FCCF31969093C60090819923B1F7E5E05C
:103FB000F2E0949108C08091C00085FFFCCF9093FF
:103FC000C600319694919923B1F78091C00085FF86
:103FD000FCCF3FC0608171816115710519F460E00B
:103FE00070E002C06C5F7F4FC70182539E4FA801F3
:103FF00026E50E94EF6E882381F5E1EFF1E09491D0
:1040000008C08091C00085FFFCCF9093C600319618
:1040100094919923B1F7F80107C08091C00085FF02
:10402000FCCF31969093C60090819923B1F7EFEEC3
:10403000F1E0949108C08091C00085FFFCCF90937F
:10404000C600319694919923B1F78091C00085FF05
:10405000FCCF8AE08093C60027C081E0F70180830F
:10406000EDEDF1E0949108C08091C00085FFFCCF98
:104070009093C600319694919923B1F7F30107C04C
:104080008091C00085FFFCCF31969093C60090814F
:104090009923B1F78091C00085FFFCCF8AE080931F
:1040A000C600C8010E9462BFCE010E960E94AE14E7
:1040B000AD960FB6F894DEBF0FBECDBFCF91DF91A6
:1040C0001F910F91FF90EF90DF90CF90BF90AF9036
:1040D0009F908F907F906F905F904F903F902F9028
:1040E0000895EF92FF920F931F93CF93DF93EC010C
:1040F0000E940A768E0107511E4FD8018C91BEECAA
:10410000EB2EB1E0FB2EEC0EFD1E882399F1C701CA
:104110000E940368F8016081615060838DE8689FA8
:10412000B001112462517E4F6C0F7D1FCE0141E022
:1041300021E04BDCD801EC91F0E0EE0FFF1FEE0F19
:10414000FF1FEC0FFD1FE651FE4F40815181628140
:104150007381CD57DD4F488359836A837B83C3586E
:10416000D240C7010E94EC668B81882389F181E0EF
:104170008A832EC00E94E875C7010E9403681A82D4
:104180008FE291E00E94F54A8091990A882301F11B
:104190001092990A80914E08C82FD0E0CC0FDD1FF5
:1041A000C152DE4E68817981882777FD8095982FEE
:1041B0000E94B9D62091B0033091B1034091B2036F
:1041C0005091B3030E9425D8181614F4198218824E
:1041D000DF91CF911F910F91FF90EF900895FC0117
:1041E00081E08183CF0140E021E0EFCBEF92FF92AD
:1041F0000F931F93DF93CF93CDB7DEB76F970FB6B3
:10420000F894DEBF0FBECDBF7C0188E892E0E80ED7
:10421000F91EF7011182108288E79DEFE80EF91E62
:1042200087010D5C1F4FC80140E050E060E070E086
:104230000E94EC66DE011596F8018BE101900D926B
:104240008150E1F7F70181A992A99C838B8388E7CC
:1042500094E09A838983C70165E172E08E010F5F64
:104260001F4FA80120E030E005D9C8010E94AE141C
:104270006F960FB6F894DEBF0FBECDBFCF91DF9122
:104280001F910F91FF90EF9008950F931F93CF937D
:10429000DF93DC01D3961C92D397D6961C92D697C7
:1042A000D2961C921E92D19788E794E0D0969C9368
:1042B0008E939F97AC5ABF4F1C9213961C92A75592
:1042C000B040FD01E05BFF4FAE5ABF4F11961C920C
:1042D0001E92A255B04091838083ED01C159DF4FFA
:1042E000FE0120E030E0482F1482178213821282F0
:1042F00040839183215E3F4F7F9681E026333807CC
:1043000099F7A855BE4F89E18C9313961C92589645
:104310001C921B961C9213961C92A15DB140FD014C
:10432000E653FE4FA453BE4F11961C921E9240833B
:104330009183A155BF4F1D921D921D921C92139700
:1043400018961D921D921D921C921397A358B2406D
:1043500012961C92129713961C9213971C92119608
:104360001C9211978D0101581D4FF8011082118286
:1043700012821382AB55BE4F11961C921E92AC5BFB
:10438000BF4F1C92FE01C90111920197E9F7A25695
:10439000BF4F81E08C93A758B2409E961C921E920C
:1043A0009D970E9483CE68577C4E8F4F9F4FF80198
:1043B0006083718382839383DF91CF911F910F91EB
:1043C0000895DF93CF93CDB7DEB7E0970FB6F8949B
:1043D000DEBF0FBECDBFDE011196E8E1F4E080E163
:1043E00001900D928150E1F7DE015196E8E0F4E092
:1043F00080E101900D928150E1F7DE019196E8EFA6
:10440000F3E080E101900D928150E1F789819A817A
:10441000AB81BC8180933D0A90933E0AA0933F0AF2
:10442000B093400A89899A89AB89BC8980932D0A07
:1044300090932E0AA0932F0AB093300A89A19AA1D3
:10444000ABA1BCA180934D0A90934E0AA0934F0A52
:10445000B093500A8D819E81AF81B8858093410AC7
:104460009093420AA093430AB093440A8D899E898F
:10447000AF89B88D8093310A9093320AA093330AA2
:10448000B093340A8DA19EA1AFA1B8A58093510A23
:104490009093520AA093530AB093540A89859A853F
:1044A000AB85BC858093450A9093460AA093470A42
:1044B000B093480A898D9A8DAB8DBC8D8093350A57
:1044C0009093360AA093370AB093380A89A59AA523
:1044D000ABA5BCA58093550A9093560AA093570AA2
:1044E000B093580A8D859E85AF85B8898093490A17
:1044F00090934A0AA0934B0AB0934C0A8D8D9E8DDF
:10450000AF8DB8A18093390A90933A0AA0933B0AE1
:10451000B0933C0A8DA59EA5AFA5B8A98093590A72
:1045200090935A0AA0935B0AB0935C0A0E948E5241
:1045300080E090E8ABE3B5E48093610A9093620A6F
:10454000A093630AB093640A8093650A9093660A05
:10455000A093670AB093680A20E030E040E050E0A2
:1045600020935D0A30935E0A40935F0A5093600A7D
:1045700080E29EE4A0E0B0E08093290A90932A0AAA
:10458000A0932B0AB0932C0A2093750A3093760AD5
:104590004093770A5093780A80E090E0A0EAB1E473
:1045A0008093690A90936A0AA0936B0AB0936C0A8D
:1045B0008DEC9CECACECBEE380936D0A90936E0A9C
:1045C000A0936F0AB093700A80E090E0A0EAB0E494
:1045D0008093710A9093720AA093730AB093740A3D
:1045E00020931F08309320084093210850932208FD
:1045F00020931B0830931C0840931D0850931E08FD
:1046000020931708309318084093190850931A08FC
:1046100088EC90E09093901280938F128CE390E05E
:1046200090939212809391122FEF30E03093941276
:104630002093931280EF90E09093961280939512BE
:104640008EE690E0909398128093971230939A128E
:10465000209399128AE999E9A1EBB1E48093C1030F
:104660009093C203A093C303B093C40361E77DE3B7
:104670008AE89FE30E94347F6093C5037093C6036A
:104680008093C7039093C80360E070E084EE92E4E7
:104690000E94407F6093C9037093CA038093CB0349
:1046A0009093CC030E94297E80E090E0A0E8BFE3D5
:1046B0008093CD039093CE03A093CF03B093D00308
:1046C000E0E1F5E0949108C08091C00085FFFCCF47
:1046D0009093C600319694919923B1F7EFE1F3E0FE
:1046E000949108C08091C00085FFFCCF9093C600D4
:1046F000319694919923B1F78091C00085FFFCCF4A
:104700008AE08093C600E0960FB6F894DEBF0FBE35
:10471000CDBFCF91DF910895CF93DF93C0E1D5E076
:10472000FE01949108C08091C00085FFFCCF90935A
:10473000C600319694919923B1F7E9EFF4E0949192
:1047400008C08091C00085FFFCCF9093C6003196D1
:1047500094919923B1F78091C00085FFFCCF8AE046
:104760008093C600FE019491E0E1F5E008C08091DD
:10477000C00085FFFCCF9093C60031969491992399
:10478000B1F740913D0A50913E0A60913F0A709105
:10479000400A81EF94E00E94382E4091410A5091E6
:1047A000420A6091430A7091440A8EEE94E00E949E
:1047B000382E4091450A5091460A6091470A7091FF
:1047C000480A8BEE94E00E94382E4091490A50919D
:1047D0004A0A60914B0A70914C0A88EE94E00E945C
:1047E000382EE6E1F2E007C08091C00085FFFCCFE3
:1047F00031969093C60090819923B1F78091C000C3
:1048000085FFFCCF8AE08093C600FE019491E0E131
:10481000F5E008C08091C00085FFFCCF9093C600F2
:10482000319694919923B1F7EEECF4E0949108C09D
:104830008091C00085FFFCCF9093C6003196949183
:104840009923B1F78091C00085FFFCCF8AE0809367
:10485000C600FE019491E0E1F5E008C08091C0003F
:1048600085FFFCCF9093C600319694919923B1F7C0
:1048700040912D0A50912E0A60912F0A7091300AB2
:1048800085EC94E00E94382E4091310A5091320A12
:104890006091330A7091340A82EC94E00E94382EC1
:1048A0004091350A5091360A6091370A7091380A62
:1048B0008FEB94E00E94382E4091390A50913A0AC9
:1048C00060913B0A70913C0A8CEB94E00E94382E78
:1048D000E6E1F2E007C08091C00085FFFCCF319691
:1048E0009093C60090819923B1F78091C00085FF15
:1048F000FCCF8AE08093C600FE019491E0E1F5E0F0
:1049000008C08091C00085FFFCCF9093C60031960F
:1049100094919923B1F7EEE9F4E0949108C0809165
:10492000C00085FFFCCF9093C600319694919923E7
:10493000B1F78091C00085FFFCCF8AE08093C6006C
:10494000FE019491E0E1F5E008C08091C00085FF90
:10495000FCCF9093C600319694919923B1F7409182
:104960004D0A50914E0A60914F0A7091500A85E9A4
:1049700094E00E944A2E4091510A5091520A60914F
:10498000530A7091540A82E994E00E944A2E4091A1
:10499000550A5091560A6091570A7091580A8FE84B
:1049A00094E00E944A2E4091590A50915A0A60910F
:1049B0005B0A70915C0A8CE894E00E944A2EE6E162
:1049C000F2E007C08091C00085FFFCCF3196909344
:1049D000C60090819923B1F78091C00085FFFCCF7C
:1049E0008AE08093C600FE019491E0E1F5E008C002
:1049F0008091C00085FFFCCF9093C60031969491C2
:104A00009923B1F7E7E5F4E0949108C08091C000E4
:104A100085FFFCCF9093C600319694919923B1F70E
:104A20008091C00085FFFCCF8AE08093C600FE0124
:104A30009491E0E1F5E008C08091C00085FFFCCFD3
:104A40009093C600319694919923B1F74091610AF1
:104A50005091620A6091630A7091640A8EE494E056
:104A60000E94382E4091650A5091660A6091670A4B
:104A70007091680A8BE494E00E94382EE6E1F2E03F
:104A800007C08091C00085FFFCCF31969093C6008F
:104A900090819923B1F78091C00085FFFCCF8AE017
:104AA0008093C600FE019491E0E1F5E008C080919A
:104AB000C00085FFFCCF9093C60031969491992356
:104AC000B1F7E8E9F3E0949108C08091C00085FF58
:104AD000FCCF9093C600319694919923B1F78091C1
:104AE000C00085FFFCCF8AE08093C600FE01949150
:104AF000E0E1F5E008C08091C00085FFFCCF909315
:104B0000C600319694919923B1F740915D0A509176
:104B10005E0A60915F0A7091600A8FE893E00E94DC
:104B2000382E4091750A5091760A6091770A7091FB
:104B3000780A8CE893E00E94382E4091290A50911F
:104B40002A0A60912B0A70912C0A89E893E00E944E
:104B50004A2E4091690A50916A0A60916B0A7091DD
:104B60006C0A86E893E00E94382E40916D0A5091BD
:104B70006E0A60916F0A7091700A83E893E00E9458
:104B8000382E4091710A5091720A6091730A7091A7
:104B9000740A80E893E00E94382EE6E1F2E007C054
:104BA0008091C00085FFFCCF31969093C600908124
:104BB0009923B1F78091C00085FFFCCF8AE08093F4
:104BC000C600FE019491E0E1F5E008C08091C000CC
:104BD00085FFFCCF9093C600319694919923B1F74D
:104BE000EEE6F3E0949108C08091C00085FFFCCF11
:104BF0009093C600319694919923B1F78091C000AB
:104C000085FFFCCF8AE08093C600FE019491E0E12D
:104C1000F5E008C08091C00085FFFCCF9093C600EE
:104C2000319694919923B1F7409117085091180843
:104C30006091190870911A0885E693E00E94382E59
:104C400040911B0850911C0860911D0870911E082E
:104C500082E693E00E94382E40911F085091200870
:104C600060912108709122088FE593E00E94382E10
:104C7000E6E1F2E007C08091C00085FFFCCF3196ED
:104C80009093C60090819923B1F78091C00085FF71
:104C9000FCCF8AE08093C600FE019491E0E1F5E04C
:104CA00008C08091C00085FFFCCF9093C60031966C
:104CB00094919923B1F7E1E5F3E0949108C08091D4
:104CC000C00085FFFCCF9093C60031969491992344
:104CD000B1F78091C00085FFFCCF8AE08093C600C9
:104CE000FE019491E0E1F5E008C08091C00085FFED
:104CF000FCCF9093C600319694919923B1F74091DF
:104D0000C1035091C2036091C3037091C40387E44F
:104D100093E0AED76091C5037091C6038091C7033D
:104D20009091C8030E943A7FAB01BC0184E493E0F8
:104D30009FD76091C9037091CA038091CB03909172
:104D4000CC030E94467FAB01BC0181E493E090D785
:104D5000E6E1F2E007C08091C00085FFFCCF31960C
:104D60009093C60090819923B1F78091C00085FF90
:104D7000FCCF8AE08093C600DF91CF9108951F9207
:104D80000F920FB60F920BB60F9211242F933F93F1
:104D90004F938F939F93EF93FF934091C600E091C1
:104DA0006E05F0916F0531969F012F773070319726
:104DB00080917005909171052817390739F0E251FB
:104DC000FB4F408330936F0520936E05FF91EF9169
:104DD0009F918F914F913F912F910F900BBE0F900C
:104DE0000FBE0F901F9018959A01AB01203081EEF5
:104DF000380780E0480780E0580749F182E0809357
:104E0000C00060E079E08DE390E00E9431DA21504B
:104E1000304040405040CA01B90122E030E040E05B
:104E200050E00E9431DA3093C5002093C400809195
:104E3000C10080618093C1008091C100886080932F
:104E4000C1008091C10080688093C10008951092D4
:104E5000C00020E130E0E7CF20917005309171056E
:104E600080916E0590916F058217930719F42FEFCB
:104E70003FEF0EC0F901E251FB4F80812F5F3F4FA2
:104E80002F7730703093710520937005282F30E014
:104E9000C9010895809170059091710590936F05F7
:104EA00080936E05089508952F923F924F925F92DE
:104EB0006F927F928F929F92AF92BF92CF92DF922A
:104EC000EF92FF920F931F93DF93CF93CDB7DEB78F
:104ED000A0970FB6F894DEBF0FBECDBF1C016A01CC
:104EE0007B01411551056105710541F440E350E036
:104EF00060E070E020E030E08BD055C08824992439
:104F00005401422E55246624772401E010E00C0F52
:104F10001D1F080D191DC701B601A30192010E94B2
:104F20000FDAF80160830894811C911CA11CB11C4C
:104F3000C701B601A30192010E940FDAC901DA018B
:104F40006C017D01C114D104E104F104F1F681E0AA
:104F5000E82EF12CEC0EFD1EE80CF91C3E01089425
:104F6000611C711CD501C4010197A109B1096C0133
:104F7000C818D90815C0F601EE0DFF1D40814A3052
:104F800010F4405D01C0495C552747FD5095652FE1
:104F9000752FC10120E030E03BD00894E108F10812
:104FA0006E147F0441F7A0960FB6F894DEBF0FBED3
:104FB000CDBFCF91DF911F910F91FF90EF90DF90C8
:104FC000CF90BF90AF909F908F907F906F905F90A9
:104FD0004F903F902F9008952115310539F480911D
:104FE000C00085FFFCCF4093C60008955DCFEF92CF
:104FF000FF920F931F939A01E62EFF2400E010E02A
:10500000B801A701E9DF1F910F91FF90EF9008957C
:10501000EF92FF920F931F93CF93DF93EC017A01EE
:105020008B012115310539F48091C00085FFFCCF3B
:10503000E092C60019C02A303105A9F477FF0FC0ED
:105040004DE250E060E070E020E030E0E1DF1095FC
:105050000095F094E094E11CF11C011D111DCE019E
:10506000B801A7012AE020DFDF91CF911F910F91B6
:10507000FF90EF900895EF92FF920F931F937B01A3
:105080009A010027F7FC0095102FB801A701C0DF97
:105090001F910F91FF90EF9008950F931F938C0134
:1050A0004DE050E060E070E020E030E0B1DFC801AA
:1050B0004AE050E060E070E020E030E0A9DF1F91BE
:1050C0000F910895CF92DF92EF92FF920F931F936B
:1050D0008C019A016B01EE24FF24B701A6017CDF4D
:1050E000C801DBDF1F910F91FF90EF90DF90CF9011
:1050F00008959F92AF92BF92CF92DF92EF92FF926C
:105100000F931F93CF93DF93EC017A018B01922EC3
:10511000CB01BA0120E030E040E050E00E9417D619
:10512000882364F4CE014DE250E060E070E020E0BE
:1051300030E06EDF17FB109517F9109520E030E096
:1051400040E05FE3AA240BC0CA01B90120E030E0CF
:1051500040E251E40E941ED69B01AC01A394A91425
:1051600098F3C801B7010E943ED57B018C010E94D3
:105170008BD65B016C010E94B7D69B01AC01C801C4
:10518000B7010E943DD57B018C01CE01B601A5017E
:105190002AE030E021DF992099F1E7E1F2E007C051
:1051A0008091C00085FFFCCF31969093C60090811E
:1051B0009923B1F725C0C801B70120E030E040E2F3
:1051C00051E40E94F7D87B018C010E9486D65B01D6
:1051D0006C01CC24B7FCC094DC2CCE01B601A50137
:1051E0002AE030E015DFC601B5010E94B9D69B0167
:1051F000AC01C801B7010E943DD57B018C019A9496
:105200009920C9F6DF91CF911F910F91FF90EF90F8
:10521000DF90CF90BF90AF909F9008956ACF089590
:10522000EF92FF920F931F93CF93DF93EC01E090E7
:105230002308F09024080091250810912608688121
:1052400079818A819B81A80197010E9417D68823C2
:1052500024F4E882F9820A831B83E0902708F09007
:1052600028080091290810912A086C817D818E817F
:105270009F81A80197010E9417D6882324F4EC820D
:10528000FD820E831F8360912B0870912C08809102
:105290002D0890912E0820E030E040E050E00E9480
:1052A0003ED57B018C01688579858A859B85A8011F
:1052B00097010E9417D6882324F4E886F9860A8786
:1052C0001B87E0909503F09096030091970310914F
:1052D0009803688179818A819B81A80197010E9446
:1052E00025D8181624F4E882F9820A831B83E090FB
:1052F0009903F0909A0300919B0310919C036C8199
:105300007D818E819F81A80197010E9425D8181662
:1053100024F4EC82FD820E831F83E0909D03F090C5
:105320009E0300919F031091A003688579858A856B
:105330009B85A80197010E9425D8181624F4E886B9
:10534000F9860A871B87DF91CF911F910F91FF90FC
:10535000EF90089580915A0808950F931F93CF936B
:10536000DF938130910549F46F5F7F4F09F046C0AC
:1053700083E795E00E94452141C0892B09F03EC09A
:105380006F5F7F4FD9F588E794E090933E07809355
:105390003D0780914407882321F081E497E00E9433
:1053A0000368C9EFD6E008E714E005C06F9785E011
:1053B000C33CD80751F0198308838F818823B1F348
:1053C000CE0104960E940368F1CF88E794E09983A8
:1053D00088838F81882321F0CE0104960E94036880
:1053E00088E794E09093A3058093A2058091A90596
:1053F000882321F086EA95E00E940368DF91CF912F
:105400001F910F91089580E090E06FEF7FEFA5CF9F
:1054100081E090E06FEF7FEFA0CF0E94107F80913E
:105420005A08882309F03AC081E080935A08809195
:105430005D0890915E08A0915F08B091600880932C
:10544000610890936208A0936308B0936408E9E050
:10545000F5E0949108C08091C00085FFFCCF909347
:10546000C600319694919923B1F7E0E2F5E094916A
:1054700008C08091C00085FFFCCF9093C600319694
:1054800094919923B1F78091C00085FFFCCF8AE009
:105490008093C60086E195E00C944EBF0895CF93AB
:1054A000DF93F8940E94107F5F9A10922F088A9AD7
:1054B000109230089FB7F894809108018160809322
:1054C00008019FBF10923108129A479A9FB7F8942B
:1054D00080910B01806280930B019FBF8CE060E0A4
:1054E0000E9434D0E9E0F5E0949108C08091C000BA
:1054F00085FFFCCF9093C600319694919923B1F724
:10550000EFE9F5E0949108C08091C00085FFFCCFE1
:105510009093C600319694919923B1F78091C00081
:1055200085FFFCCF8AE08093C60086E995E00E9463
:105530005CBF7894C5E0D0E008C068EC70E080E023
:1055400090E00E9491CE0E948AC221978FEFCF3FB8
:10555000D80799F7F894FFCF0E9483CE609367082D
:10556000709368088093690890936A08E0919208A4
:10557000F0919308EC56F74F80818823A9F4EEEB65
:10558000F5E0949108C08091C00085FFFCCF909316
:10559000C600319694919923B1F78091C00085FFA0
:1055A000FCCF8AE08093C60008950E9483CE60936A
:1055B0006708709368088093690890936A08089553
:1055C0006F927F928F929F92AF92BF92CF92DF9213
:1055D000EF92FF920F931F93F82E609171087091D4
:1055E0007208809173089091740820917508309129
:1055F000760840917708509178080E9432D83B0194
:105600004C0100D000D00DB71EB70F5F1F4F609147
:105610007F0370918003882777FD8095982F0E94E3
:10562000B9D62091A7033091A8034091A9035091C6
:10563000AA030E94F7D820E030E040E752E40E943D
:105640001ED620E030E048EC52E40E941ED65B01FA
:105650006C01F8016082718282829382F48280916F
:105660004E08858387E098E06DE778E041E758E0F1
:1056700020E001E032E0E32E0E94814D80917D0820
:1056800090917E08A0917F08B091800880930708D0
:1056900090930808A0930908B0930A0880918108A4
:1056A00090918208A0918308B091840880930B08A0
:1056B00090930C08A0930D08B0930E088091850874
:1056C00090918608A0918708B091880880930F0870
:1056D00090931008A0931108B09312088091890844
:1056E00090918A08A0918B08B0918C088093130840
:1056F00090931408A0931508B09316088DB79EB721
:1057000006960FB6F8949EBF0FBE8DBF0E9483CE43
:1057100060936708709368088093690890936A089B
:105720001F910F91FF90EF90DF90CF90BF90AF90BF
:105730009F908F907F906F900895CF92DF92EF921D
:10574000FF920F931F938DE798E06ADD0E9483CE4E
:1057500060936708709368088093690890936A085B
:1057600060910708709108088091090890910A08D3
:1057700020917D0830917E0840917F0850918008EB
:105780000E9417D6882309F07AC060910B087091A7
:105790000C0880910D0890910E082091810830919D
:1057A000820840918308509184080E9417D688236C
:1057B00009F065C06091A7037091A8038091A903C7
:1057C0009091AA0320E030E040E752E40E941ED608
:1057D0007B018C018DE798E061E878E045E858E0CE
:1057E00029E838E0EEE4CE2EE8E0DE2E0E94DC5719
:1057F00080917D0890917E08A0917F08B0918008EB
:105800008093070890930808A0930908B0930A08AA
:105810008091810890918208A0918308B0918408BA
:1058200080930B0890930C08A0930D08B0930E087A
:105830008091850890918608A0918708B09188088A
:1058400080930F0890931008A0931108B09312084A
:105850008091890890918A08A0918B08B0918C085A
:105860008093130890931408A0931508B09316081A
:105870001F910F91FF90EF90DF90CF90089560916E
:105880007F0370918003882777FD8095982F0E9471
:10589000B9D62091A7033091A8034091A903509154
:1058A000AA030E94F7D820E030E040E752E40E94CB
:1058B0001ED620E030E048EC52E488CF82E795E045
:1058C000E9DAE1ECF5E0949108C08091C00085FF31
:1058D000FCCF9093C600319694919923B1F74091F3
:1058E0005D0850915E0860915F08709160084F5F9D
:1058F0005F4F6F4F7F4F82E795E02AE030E088DB13
:105900008091C00085FFFCCF8AE08093C60024CE42
:105910002F923F924F925F926F927F928F929F92BF
:10592000AF92BF92CF92DF92EF92FF920F931F93AD
:10593000DF93CF93CDB7DEB728970FB6F894DEBFCD
:105940000FBECDBF98878F838330910508F056C175
:10595000FC01EF5CF74FD4903C01660C771C660CA1
:10596000771C9301295F374F3A83298380E090E0C9
:10597000A0E0B0E0F90180839183A283B38387E044
:1059800098E06BE078E04FE058E023E138E00E94D7
:10599000D652F301EC5CF74FE590F5900591149128
:1059A0006D2D772767FD7095882777FD8095982F57
:1059B0000E94B9D61B012C0193012358374F3C8319
:1059C0002B83C801B70120E030E040EC5FE30E9488
:1059D000F7D8A20191010E94F7D8AB81BC816D93E9
:1059E0007D938D939C931397F301E159FC4FFE83B4
:1059F000ED8360817181828193816093A7037093AD
:105A0000A8038093A9039093AA0320E030E040E725
:105A100052E40E941ED67B018C018DE798E061E87C
:105A200078E045E858E029E838E0AEE4CA2EA8E07E
:105A3000DA2E0E94DC570E940A7680E090E0A0E017
:105A4000B0E0E981FA8180839183A283B38387E008
:105A500098E06BE078E04FE058E023E138E00E9406
:105A6000D652F301E05CF74F85909590A590B490E5
:105A7000C501B4019058A20191010E94F7D8AB81F1
:105A8000BC816D937D938D939C9313976091A70335
:105A90007091A8038091A9039091AA0320E030E0BF
:105AA00040E752E40E941ED67B018C018DE798E00E
:105AB00061E878E045E858E029E838E00E94DC57E2
:105AC0000E940A76C501B401A50194010E943ED549
:105AD000A20191010E94F7D8EB81FC816083718360
