:100000000C94460E0C94730E0C94730E0C94730E99
:100010000C94730E0C94730E0C94730E0C94730E5C
:100020000C94730E0C94730E0C94730E0C94730E4C
:100030000C94730E0C94730E0C94730E0C94730E3C
:100040000C94730E0C946D760C94730E0C94730ECA
:100050000C94730E0C94730E0C9442800C9455CC3B
:100060000C94730E0C94B8260C94730E0C94730EAF
:100070000C94730E0C94730E0C94730E0C94730EFC
:100080000C94730E0C94730E0C94730E0C94730EEC
:100090000C94730E0C94730E0C94730E0C94730EDC
:1000A0000C94730E0C94730E0C94730E0C94730ECC
:1000B0000C94730E0C94730E0C94730E0C94730EBC
:1000C0000C94730E0C94730E0C94730E0C94730EAC
:1000D0000C94730E0C94730E0C94730E0C94730E9C
:1000E0000C94730E084AD73B3BCE016E84BCBFFD17
:1000F000C12F3D6C74319ABD56833DDA3D00C77FF8
:1001000011BED9E4BB4C3E916BAAAABE0000008090
:100110003F05A84CCDB2D44EB93836A9020C50B91F
:10012000918688083CA6AAAA2ABE000000803F4DFE
:10013000383420582059205A20450043616E6E6F94
:100140007420656E746572207375626469723A20FA
:10015000004D3234004D3233202573006175746FC9
:1001600025692E67006572726F72207772697469F3
:100170006E6720746F2066696C65004E6F74205343
:1001800044207072696E74696E67002F00534420BA
:100190007072696E74696E67206279746520002ED2
:1001A0000044656C6574696F6E206661696C656496
:1001B0002C2046696C653A200046696C65206465B0
:1001C0006C657465643A002E006F70656E20666120
:1001D000696C65642C2046696C653A200057726929
:1001E00074696E6720746F2066696C653A20002E12
:1001F000006F70656E206661696C65642C204669CD
:100200006C653A20002E006F70656E206661696C27
:1002100065642C2046696C653A200046696C65204F
:1002200073656C6563746564002053697A653A2070
:100230000046696C65206F70656E65643A20002E1B
:10024000006F70656E206661696C65642C2046697C
:100250006C653A20004E6F77206672657368206681
:10026000696C653A20004E6F7720646F696E672075
:1002700066696C653A20002220706F73002220703E
:100280006172656E743A2200535542524F5554497B
:100290004E452043414C4C207461726765743A228C
:1002A00000747279696E6720746F2063616C6C20D2
:1002B0007375622D67636F64652066696C65732072
:1002C0007769746820746F6F206D616E79206C653A
:1002D00076656C732E204D4158206C6576656C20D8
:1002E00069733A0053442063617264206F6B006F3E
:1002F00070656E526F6F74206661696C656400761C
:100300006F6C756D652E696E6974206661696C65C8
:100310006400534420696E6974206661696C00480A
:10032000617264636F6465642044656661756C74B2
:100330002053657474696E6773204C6F61646564E3
:10034000002044002049002020204D33303120502F
:10035000005049442073657474696E67733A0020D5
:100360005A0020590020204D323036205800486F66
:100370006D65206F666673657420286D6D293A007F
:10038000204500205A002058002042002054002020
:10039000204D323035205300416476616E636564D0
:1003A000207661726961626C65733A20533D4D69D4
:1003B0006E20666565647261746520286D6D2F73AB
:1003C000292C20543D4D696E2074726176656C2035
:1003D000666565647261746520286D6D2F73292CC4
:1003E00020423D6D696E696D756D207365676D6541
:1003F0006E742074696D6520286D73292C20583D1A
:100400006D6178696D756D205859206A65726B2031
:10041000286D6D2F73292C20205A3D6D6178696DF0
:10042000756D205A206A65726B20286D6D2F7329B7
:100430002C2020453D6D6178696D756D2045206AE1
:1004400065726B20286D6D2F7329002054002020C9
:100450004D323034205300416363656C65726174C2
:10046000696F6E3A20533D616363656C65726174B8
:10047000696F6E2C20543D726574726163742061E3
:100480006363656C65726174696F6E00204500205E
:100490005A0020590020204D3230312058004D6143
:1004A00078696D756D20416363656C65726174690F
:1004B0006F6E20286D6D2F7332293A002045002081
:1004C0005A0020590020204D3230332058004D6111
:1004D00078696D756D2066656564726174657320F9
:1004E000286D6D2F73293A00204500205A002059AD
:1004F0000020204D393220580053746570732070ED
:10050000657220756E69743A004572726F723A00B6
:100510006563686F3A0053544F505045442E200095
:100520005072696E7465722073746F7070656420A8
:1005300064756520746F206572726F72732E204629
:10054000697820746865206572726F7220616E64CC
:1005500020757365204D39393920746F20726573A9
:10056000746172742E202854656D706572617475A3
:1005700072652069732072657365742E20536574EB
:10058000206974206166746572207265737461728B
:1005900074696E6729004B494C4C45442E2000502D
:1005A00072696E7465722068616C7465642E206B6C
:1005B000696C6C28292063616C6C656421006F6B29
:1005C00000526573656E643A20002200556E6B6EB2
:1005D0006F776E20636F6D6D616E643A2022005AF2
:1005E000204F6666736574203A20007A5F6D6178EB
:1005F0003A20007A5F6D696E3A20005A204F666695
:10060000736574005A204F6666736574206F6B00C3
:10061000486F74656E64206F6666736574733A0024
:100620007A5F6D61783A20007A5F6D696E3A2000DA
:10063000795F6D61783A2000795F6D696E3A2000CC
:10064000785F6D61783A2000785F6D696E3A2000BE
:10065000205A3A0020593A0020436F756E74205892
:100660003A200020453A00205A3A0020593A0058D2
:100670003A004649524D574152455F4E414D453A29
:100680004D61726C696E2056313B20537072696EF9
:100690007465722F6772626C206D6173687570206B
:1006A000666F722067656E36204649524D5741523B
:1006B000455F55524C3A68747470733A2F2F6769CE
:1006C000746875622E636F6D2F4572696B5A616C29
:1006D0006D2F4D61726C696E2F2050524F544F43F5
:1006E0004F4C5F56455253494F4E3A312E30204DB4
:1006F000414348494E455F545950453A52756D62E1
:10070000612045585452554445525F434F554E540D
:100710003A3320555549443A30303030303030305B
:100720002D303030302D303030302D303030302DD5
:100730003030303030303030303030300A005275A8
:100740006D6261204F66662E0052756D6261207287
:10075000656164792E0042656420646F6E652E00C9
:1007600020423A0020453A00543A0042656420484D
:10077000656174696E672E0048656174696E6720F3
:10078000646F6E652E0020573A0020453A00543AB7
:100790000048656174696E672E2E2E002042403A33
:1007A0000020403A00202F003A00205400202F0063
:1007B00020423A00202F006F6B20543A0025692018
:1007C0006D696E2C2025692073656300456E642079
:1007D00066696C65206C69737400426567696E2098
:1007E00066696C65206C697374004E6F206D6F765E
:1007F000652E0052756D62612072656164792E000C
:10080000526573756D696E67207072696E740057FA
:1008100061697420666F7220757365722E2E2E00CA
:10082000536C6565702E2E2E00FFFFFF00005743AE
:1008300000004D43000048430000A0400000A040DD
:100840000000004000000000000000000000000068
:1008500000000000000000000000000000005743FE
:1008600000004D4300004843256920686F7572738E
:10087000202569206D696E7574657300446F6E651F
:10088000207072696E74696E672066696C650053CA
:10089000544F505045442E20005072696E7465725A
:1008A0002073746F707065642064756520746F20A8
:1008B0006572726F72732E204669782074686520A5
:1008C0006572726F7220616E6420757365204D3998
:1008D000393920746F20726573746172742E202808
:1008E00054656D70657261747572652069732072EC
:1008F000657365742E205365742069742061667475
:1009000065722072657374617274696E6729004E36
:100910006F204C696E65204E756D62657220776937
:10092000746820636865636B73756D2C204C61730C
:1009300074204C696E653A20004E6F2043686563F1
:100940006B73756D2077697468206C696E65206EB5
:10095000756D6265722C204C617374204C696E65F4
:100960003A2000636865636B73756D206D69736D04
:10097000617463682C204C617374204C696E653A15
:1009800020004C696E65204E756D6265722069733A
:10099000206E6F74204C617374204C696E65204E1C
:1009A000756D6265722B312C204C617374204C691B
:1009B0006E653A20004D31313000446F6E65207312
:1009C0006176696E672066696C652E006F6B004DFD
:1009D0003239002020506C616E6E65724275666619
:1009E000657242797465733A20002046726565200D
:1009F0004D656D6F72793A20004E6F76203132204E
:100A00003230313500436F6D70696C65643A200097
:100A10005265705261702E6D6500207C20417574A6
:100A2000686F723A20004E6F7620313220323031BA
:100A3000352031353A32383A313600204C61737402
:100A400020557064617465643A2000312E302E3078
:100A5000004D61726C696E0020536F66747761722D
:100A60006520526573657400205761746368646F14
:100A700067205265736574002042726F776E206F35
:100A80007574205265736574002045787465726EC4
:100A9000616C20526573657400506F776572557094
:100AA000007374617274002200656E717565696E01
:100AB000672022002200656E717565696E672022CD
:100AC0000020746F6F206C6F6E672065787472758C
:100AD00073696F6E2070726576656E746564002050
:100AE000636F6C6420657874727573696F6E2070C3
:100AF000726576656E746564007C3C3E5E2B3D3F9E
:100B00002F5B5D3B2C2A225C0045303A20005A3A8C
:100B10002000593A2000583A20004D53312C4D53B3
:100B2000322050696E730A0024F404D9201BC40CCF
:100B30005C0E9804C4095F0265077101F405F900B1
:100B4000FB04B30048048700C10369005803550043
:100B500003034500BE023A008402310053022A001A
:100B60002902250004022000E4011C00C80119002C
:100B7000AF011700980114008401130071011000E7
:100B80006101100051010E0043010D0036010B0000
:100B90002B010B0020010B00150109000C010900BD
:100BA00003010800FB000800F3000800EB00070049
:100BB000E4000600DE000600D8000600D2000600B1
:100BC000CC000500C7000500C2000500BD00040000
:100BD000B9000400B5000400B1000400AD00040039
:100BE000A9000400A5000300A20003009F00040068
:100BF0009B0003009800030095000200930003008F
:100C0000900003008D0002008B00030088000200AA
:100C10008600020084000300810002007F000200C1
:100C20007D0002007B0002007900020077000100D5
:100C300076000200740002007200010071000200E0
:100C40006F0002006D0001006C0002006A000100EC
:100C500069000200670001006600010065000100F4
:100C600064000200620001006100010060000100F8
:100C70005F0002005D0001005C0001005B000100FC
:100C80005A000100590001005800010057000100FE
:100C900056000100550001005400010053000000FF
:100CA00053000100520001005100010050000100FA
:100CB0004F0001004E0000004E0001004D000100F9
:100CC0004C0001004B0000004B0001004A000100F5
:100CD00049000100480000004800010047000100F1
:100CE00046000000460001004500000045000100EC
:100CF00044000100430000004300010042000000E6
:100D000042000100410000004100010040000100DC
:100D10003F0000003F0001003E0000003E000100D7
:100D20003D0000003D0001003C0000003C000000D0
:100D30003C0001003B0000003B0001003A000000C5
:100D40003A000100390000003900010038000000BD
:100D500038000000380001003700000037000100B3
:100D600036000000360000003600010035000000AB
:100D700035000000350001003400000034000000A0
:100D80003400010033000000330000003300010094
:100D9000320000003200000032000100310000008B
:100DA0003100000031000100300000003000000080
:100DB000300001002F0000002F0000002F00000075
:100DC0002F0001002E0000002E0000002E00010068
:100DD0002D0000002D0000002D0000002D0001005E
:100DE0002C0000002C0000002C0000002C00010052
:100DF0002B0000002B0000002B0000002B00010046
:100E00002A0000002A0000002A0000002A00010039
:100E1000290000002900000029000000290000002E
:100E20002900010028000000280000002800000020
:100E30002800000028000100270000002700000013
:100E40002700000027000000270001002600000006
:100E500026000000260000002600000026000100F9
:100E600025000000250000002500000025000000EE
:100E700025000000250001002400000024000000DF
:100E800024000000240000002400010023000000D2
:100E900023000000230000002300000023000000C6
:100EA00023000000230001002200000022000000B7
:100EB00022000000220000002200000022000100A9
:100EC000210000002100000021000000210000009E
:100ED000210000002100000021000100200000008E
:100EE0002000000020000000200000002000000082
:100EF0002000000020000000200001001F00000072
:100F00001F0000001F0000001F0000001F00000065
:100F10001F0000001F0001001E0000001E00000056
:100F20001E0000001E00000024F4D43050C38E20A8
:100F3000C2A24017828B7011127A910D816CD90A6E
:100F4000A861E108C7586607615143061E4B5D055D
:100F5000C145A7041A411104093D980371393103B1
:100F60004036DB0265339102D4305402802E1D02DC
:100F7000632CEE01752AC501B028A001102781015C
:100F80008F2564012B244B01E0223401AC211F0189
:100F90008D200D01801FFC00841EED00971DDF00D9
:100FA000B81CD200E61BC600201BBC00641AB200AD
:100FB000B219A8000A19A0006A189900D117910067
:100FC00040178B00B516840031167E00B3157900EA
:100FD0003A157300C7146F0058146A00EE136600C8
:100FE0008813630025135E00C7125B006C12570064
:100FF00015125400C111510070114F0021114B0006
:10100000D61049008D1047004610440002104200DF
:10101000C00F4000800F3E00420F3C00060F3B0017
:10102000CB0E3800930E37005C0E3500270E3400CF
:10103000F30D3200C10D3100900D3000600D2E0017
:10104000320D2D00050D2C00D90C2B00AE0C290003
:10105000850C29005C0C2700350C27000E0C26009F
:10106000E80B2400C40B2400A00B23007D0B2300FD
:101070005A0B2100390B2100180B2000F80A1F0021
:10108000D90A1E00BB0A1E009D0A1D00800A1D0011
:10109000630A1C00470A1B002C0A1B00110A1A00D5
:1010A000F7091A00DD091900C4091900AB09190074
:1010B000920917007B091800630917004C091600F4
:1010C00036091600200916000A091500F508150052
:1010D000E0081400CC081400B8081400A408140098
:1010E000900813007D0812006B08130058081200C6
:1010F00046081200340811002308110012081100DC
:1011000001081100F0071000E0071000D0071000E0
:10111000C0071000B0070F00A107100091070E00D4
:1011200083070F0074070F0065070E0057070E00B6
:1011300049070E003B070D002E070E0020070D008B
:1011400013070D0006070D00F9060C00ED060D0053
:10115000E0060C00D4060C00C8060C00BC060C000F
:10116000B0060C00A4060B0099060C008D060B00BF
:1011700082060B0077060B006C060B0061060A0066
:1011800057060B004C060A0042060A0038060A0001
:101190002E060A0024060A001A060A001006090094
:1011A00007060A00FD050900F4050900EB05090022
:1011B000E2050900D9050900D0050900C7050900A5
:1011C000BE050900B5050800AD050800A505090024
:1011D0009C050800940508008C050800840508009B
:1011E0007C050800740508006C050700650508000B
:1011F0005D050700560508004E0507004705070076
:101200004005080038050700310507002A050700DA
:10121000230507001C050600160507000F0507003B
:101220000805060002050700FB040600F504070098
:10123000EE040600E8040600E2040700DB040600F2
:10124000D5040600CF040600C9040600C304060046
:10125000BD040600B7040600B1040500AC04060096
:10126000A6040600A00405009B04060095040500E2
:10127000900406008A040500850405008004060029
:101280007A04050075040500700405006B04050070
:1012900066040500610405005C04050057040500B0
:1012A000520405004D0405004804050043040500F0
:1012B0003E0404003A04050035040500300404002F
:1012C0002C04050027040400230405001E04040068
:1012D0001A04040016040500110404000D0404009F
:1012E000090405000404040000040400FC030400D5
:1012F000F8030400F4030400F0030400EC0304000A
:10130000E8030400E4030400E0030400DC03040039
:10131000D8030400D4030400D0030400CC03040069
:10132000C8030300C5030300656E6473746F7073B4
:10133000206869743A205A00205A3A00656E647336
:10134000746F7073206869743A20590020593A000C
:10135000656E6473746F7073206869743A20580006
:1013600020583A00656E6473746F707320686974F6
:101370003A20004572723A204D415854454D502054
:101380004245440054656D706572617475726520E4
:10139000686561746564206265642073776974634D
:1013A000686564206F66662E204D415854454D5047
:1013B0002074726967676572656420212100457237
:1013C000723A204D494E54454D50003A20457874AC
:1013D0007275646572207377697463686564206FE1
:1013E00066662E204D494E54454D502074726967F3
:1013F00067657265642021004572723A204D41583C
:1014000054454D50003A20457874727564657220D9
:101410007377697463686564206F66662E204D413A
:101420005854454D50207472696767657265642031
:101430002100202D20496E76616C696420657874E6
:101440007275646572206E756D6265722021007020
:10145000012C0190012701B0012201C0011D01F002
:101460000118011002130130020E016002090190FF
:10147000020401C002FF000003FA004003F50080EF
:1014800003F000D003EB002004E6007004E100E06C
:1014900004DC004005D700C005D2004006CD00D0D6
:1014A00006C8008007C3003008BE00F008B900C0BD
:1014B00009B400B00AAF00B00BAA00D00CA5000020
:1014C0000EA000500F9B00C010960050129100001B
:1014D000148C00C0158700B0178200B0197D00D0B1
:1014E0001B7800001E730040206E0090226900F0FF
:1014F00024640040275F0090295A00E02B5500101B
:101500002E500020304B0010324600E03341009056
:10151000353C001037370070383200A0392D00B04C
:101520003A2800A03B2300603C1E00103D190090AB
:101530003D1400103E0F00703E0A00C03E05000042
:101540003F0000504944204175746F74756E6520EA
:1015500066696E69736865642120507574207468CB
:1015600065206C617374204B702C204B6920616E78
:1015700064204B6420636F6E7374616E74732066B5
:10158000726F6D2061626F766520696E746F2043A3
:101590006F6E66696775726174696F6E2E68005050
:1015A0004944204175746F74756E65206661696C7D
:1015B0006564212074696D656F75740020403A0080
:1015C0006F6B20543A006F6B20423A005049442020
:1015D0004175746F74756E65206661696C65642110
:1015E0002054656D706572617475726520746F6FDB
:1015F000206869676800204B643A2000204B693AF4
:101600002000204B703A200020436C6173736963A3
:101610002050494420002054753A2000204B753A50
:101620002000206D61783A2000206D696E3A20001C
:1016300020643A200020626961733A20002D2D3A1F
:101640002D2D002D2D2D0053440020590001200088
:101650000120004E6F205344206361726400507279
:10166000696E742066726F6D2053440053746F70FE
:10167000207072696E7400526573756D65207072AA
:10168000696E74005061757365207072696E7400C4
:10169000436F6E74726F6C0050726570617265009A
:1016A00054756E6500496E666F2073637265656E72
:1016B00000052E2E004D61696E004D3234004D3212
:1016C00033202573004D383420582059205A2045A6
:1016D00000526573746F7265206661696C73616630
:1016E00065004D6F74696F6E0054656D7065726151
:1016F00074757265004D61696E0045737465707331
:101700002F6D6D004573746570732F6D6D005A7386
:10171000746570732F6D6D005A73746570732F6DDF
:101720006D005973746570732F6D6D005973746516
:1017300070732F6D6D005873746570732F6D6D002D
:101740005873746570732F6D6D00412D72657472DE
:1017500061637400412D7265747261637400416D40
:101760006178206500416D6178206500416D617888
:10177000207A00416D6178207A00416D617820798E
:1017800000416D6178207900416D617820780041D9
:101790006D61782078005654726176206D696E0014
:1017A0005654726176206D696E00566D696E0056F2
:1017B0006D696E00566D6178206500566D61782008
:1017C0006500566D6178207A00566D6178207A0048
:1017D000566D6178207900566D6178207900566DDC
:1017E0006178207800566D617820780056652D6A02
:1017F00065726B0056652D6A65726B00567A2D6AAC
:1018000065726B00567A2D6A65726B005678792D79
:101810006A65726B005678792D6A65726B00416358
:1018200063656C00416363656C00436F6E74726F37
:101830006C00507265686561742041425320636F8B
:101840006E66005072656865617420504C4120637B
:101850006F6E66005049442D43005049442D4300AB
:101860005049442D44005049442D44005049442DD2
:1018700049005049442D49005049442D50005049D9
:10188000442D50002002204661637400200220464F
:10189000616374002002204D6178002002204D61B8
:1018A00078002002204D696E002002204D696E00F4
:1018B0004F6666004F6E20004F6666004F6E200038
:1018C0004175746F74656D700046616E207370654C
:1018D00065640046616E20737065656400426564EE
:1018E00000426564004E6F7A7A6C65004E6F7A7ABA
:1018F0006C6500436F6E74726F6C004265640042E9
:101900006564004E6F7A7A6C65004E6F7A7A6C650A
:101910000046616E2073706565640046616E2073D9
:10192000706565640054656D70657261747572658B
:101930000042656400426564004E6F7A7A6C65000F
:101940004E6F7A7A6C650046616E207370656564CF
:101950000046616E2073706565640054656D706546
:10196000726174757265004D6F7665206178697378
:10197000004D38300053776974636820706F776565
:1019800072206F6E004D38310053776974636820A0
:10199000706F776572206F666600436F6F6C646F5F
:1019A000776E005072656865617420414253005043
:1019B00072656865617420504C41005365742068FD
:1019C0006F6D65206F66667365747300473238000B
:1019D0004175746F20686F6D65004D38340044693F
:1019E0007361626C65207374657070657273004D0D
:1019F00061696E004D6F766520302E316D6D004D42
:101A00006F766520316D6D004D6F76652031306DDC
:101A10006D0050726570617265004578747275640E
:101A20006572004D6F7665205A004D6F76652059BE
:101A3000004D6F76652058004D6F7665206178699E
:101A400073004578747275646572005A00590058C5
:101A5000005072656865617420414253204265649C
:101A60000050726568656174204142532031005016
:101A700072657061726500507265686561742050AE
:101A80004C41204265640050726568656174205065
:101A90004C412031005072657061726500466C6F78
:101AA00077203000466C6F77203000466C6F7700EF
:101AB000466C6F770046616E207370656564004602
:101AC000616E207370656564004265640042656400
:101AD000004E6F7A7A6C65004E6F7A7A6C650053AF
:101AE00070656564005370656564004D61696E00E2
:101AF000436172642072656D6F7665640043617244
:101B00006420696E736572746564004D33303020F3
:101B1000533639382050323030004D333030205376
:101B200036353920503230300000002100240027A3
:101B3000002A002D003000330001010000040107DD
:101B4000010A0100002200250028002B002E003190
:101B500000340002010000050108010B0100002013
:101B6000002300260029002C002F00320000010075
:101B70000003010601090105050505070508080818
:101B800008020202020A0A0808040404040101010E
:101B90000101010101030303030303030304070716
:101BA000070C0C0C0C0C0C0C0C02020202060606B4
:101BB00006060606060B0B0B0B0B0B0B0B0102109C
:101BC0002020080810204010204080020102010857
:101BD0000402010102040810204080804020100807
:101BE0000402018004020180402010080402010860
:101BF00004020101020408102040800102040810C0
:101C00002040800000090A02080B0C0D070603049F
:101C100001000000000000000000000000000000C3
:101C200000000000000000000000000000000011A3
:101C3000100F000000000000000000000000000085
:101C4000000000000000000000494E46494E495483
:101C5000594E414ECDCCCC3D0AD7233C17B7D13895
:101C600077CC2B329595E6241FB14F0A0000204116
:101C70000000C84200401C4620BCBE4CCA1B0E5A85
:101C8000AEC59D744C27012A79BFFC2911241FBEC3
:101C9000CFEFD1E2DEBFCDBF00E00CBF14E0A0E08B
:101CA000B2E0EAE5FAEA01E00BBF02C007900D924C
:101CB000AC3DB107D9F71BBE12E1ACEDB4E001C0F9
:101CC0001D92AB3EB107E1F71CE1CAE8DCE104C0BC
:101CD0002297FE010E94D3D4C438D107C9F70E94CD
:101CE00063CF0C9421D50C940000A0E0B0E0EBE7AA
:101CF000FEE00C94F0D4EC015B016115710519F064
:101D0000FB0191838083F9908F2D90E00E94D7D4BE
:101D1000892BC9F7FDE2FF1621F4F990EE24E39434
:101D200005C02BE2F21609F4F990EE248E01015061
:101D30001040C80169E47CE143E050E072D2892B95
:101D4000F9F48E010E5F1F4FC8016CE47CE145E0A1
:101D500050E067D2892B19F48E01095F1F4FA1143F
:101D6000B10419F0F50111830083E0FC04C070E0B8
:101D700090E080E813C070E090E080E86FEF07C16A
:101D8000C80161E57CE143E050E04BD2892B69F466
:101D9000A114B10429F470E090E080EC6FE7F7C083
:101DA0002296F501D183C083F6CF8824992440E0A0
:101DB00050E060E070E0EF2DE053EA30A0F5F2E093
:101DC000EF2A8E2D90E09C0128703070E2FE06C054
:101DD000232B79F50894811C911C2BC0232B19F01F
:101DE000089481089108DB01CA0112E0880F991F4D
:101DF000AA1FBB1F1A95D1F7480F591F6A1F7B1FD7
:101E0000440F551F661F771F4E0F511D611D711D19
:101E1000483929E9520729E9620729E1720748F0A0
:101E200084E0E82A06C0EE3F31F4E3FC39C098E0D4
:101E3000E92AF990C0CFE53311F0E53189F5299110
:101E40002D3219F4E0E1EE2A05C02B3219F081E0C1
:101E500090E003C0299182E090E0E22FE053EA3065
:101E600018F0C81BD90B1CC020E030E0FCE0203883
:101E70003F075CF4C901880F991F880F991F280F2D
:101E8000391F220F331F2E0F311DE991E053EA3025
:101E900068F3E4FE03C0309521953F4F820E931EF8
:101EA000CE2CDD24E1FE07C0A114B10421F021975E
:101EB000F501D183C083CB01BA010E943CD17B01E3
:101EC0008C01F3E0CF22DD2423E0C216D10421F4FB
:101ED00017FB109517F9109557016801C801B70154
:101EE00020E030E040E050E00E949CD0882309F4DC
:101EF0004AC097FE0DC028E6E22E2CE1F22E909407
:101F0000819491089394C0E2D0E000E010E012C008
:101F100090E8E92E9CE1F92EF6CFF7012591359155
:101F200045915491C601B5010E947CD35B016C01BF
:101F30008C1A9D0A8C169D0684F7D595C7950F5F60
:101F40001F4F0630110529F08CEF9FEFE80EF91EA8
:101F5000F1CFC501D6017C018D018C2D880F8D2D0F
:101F6000881F8F3F51F0C601B50120E030E040E00E
:101F700050E00E949CD0882331F482E290E090935C
:101F8000EA128093E9127E2D9F2D802F612F272F3B
:101F9000392F482F562FB901CA01CDB7DEB7ECE073
:101FA0000C940CD52F923F925F926F927F928F92FA
:101FB0009F92AF92BF92CF92DF92EF92FF920F93D8
:101FC0001F93CF93DF938C011B01EA01611571050B
:101FD00019F0FB0191838083209749F0CE0102978D
:101FE000839728F020E030E040E050E0F6C0F801B0
:101FF000A1908F018A2D90E00E94D7D4892BB9F748
:10200000FDE2AF1631F4F801A1908F0155245394ED
:1020100007C0FBE2AF1619F4F801A1908F01552417
:10202000209719F0C031D105C1F4F0E3AF1679F46F
:10203000F8018081883711F0883549F4F801A180D2
:102040000E5F1F4FF2E05F2AC0E1D0E006C020978C
:1020500021F480E3A816E9F427C0C830D10531F196
:10206000C930D10524F4C230D10531F50CC0CA30D5
:10207000D10589F0C031D105F9F4C12CD12CE12C66
:10208000B8E0FB2E28C0C12CD12CE12CA0E4FA2E04
:1020900022C0CAE0D0E0FCECCF2EFCECDF2EFCEC42
:1020A000EF2EFCE0FF2E17C0C8E0D0E0C12CD12CF1
:1020B000E12CE0E1FE2E0FC09E01442737FD409544
:1020C000542F60E070E080E090E80E9494D4C90151
:1020D000DA016C017D0120E030E040E050E060E09A
:1020E0003E01882477FC8094982C70EDB72EBA0CB2
:1020F000E9E0EB1570F48A2D81548A3118F499ECDB
:10210000B92E06C08A2D81568A3150F589EAB82E3B
:10211000BA0C8B2D90E08C179D0714F56F3FE1F002
:10212000C216D306E406F506B0F0CA01B901A4014F
:1021300093010E944ED49B01AC012B0D311D411D1A
:10214000511D2130F0E03F07F0E04F07F0E85F0756
:1021500010F461E001C06FEFF801A1908F01C5CFCD
:102160002114310481F0662331F001501040F10157
:102170001183008308C051FE1AC002501040F101C3
:102180001183008314C067FF12C050FC05C02FEFFD
:102190003FEF4FEF5FE704C020E030E040E050E861
:1021A00082E290E09093EA128093E91216C050FE0A
:1021B00008C050954095309521953F4F4F4F5F4F48
:1021C0000CC057FF0AC082E290E09093EA1280931D
:1021D000E9122FEF3FEF4FEF5FE7B901CA01DF913F
:1021E000CF911F910F91FF90EF90DF90CF90BF9014
:1021F000AF909F908F907F906F905F903F902F90C7
:102200000895FB01DC0105900D920020E1F708958F
:10221000FC0105900020E9F7809590958E0F9F1F97
:102220000895FB01DC014150504088F08D918134CC
:102230001CF08B350CF4805E659161341CF06B35BD
:102240000CF4605E861B611171F3990B0895881B75
:10225000FCCFFB01DC014150504048F005900D924D
:102260000020C9F701C01D9241505040E0F7089589
:10227000FB0155915523A9F0BF01DC014D91451794
:102280004111E1F759F4CD010590002049F04D913D
:1022900040154111C9F3FB014111EFCF81E090E0FE
:1022A00001970895FB01DC0104C08D910190801914
:1022B00021F441505040C8F7881B990B0895FB0149
:1022C000DC0102C001900D9241505040D8F70895B2
:1022D000FB01DC018D9181341CF08B350CF4805EA8
:1022E000619161341CF06B350CF4605E861B6111EA
:1022F00089F3990B0895FB01DC010D900020E9F7AB
:10230000119701900D920020E1F70895FC01819151
:10231000861721F08823D9F7992708953197CF019F
:102320000895FB01DC018D91019080190110D9F312
:10233000990B0895FB01DC0101900D920020E1F75B
:102340000895FB01DC014150504030F08D91019027
:10235000801919F40020B9F7881B990B0895FB0127
:10236000DC014150504048F001900D920020C9F727
:1023700001C01D9241505040E0F70895AEE0B0E03A
:10238000E4ECF1E10C94F8D40E891F898EE08C8383
:102390001A8309838FEF9FE79E838D839E01265EBC
:1023A0003F4FCE010196688D798DA9010AD02F810A
:1023B0003885020F131FF80110822E96E4E00C946A
:1023C00014D5ABE0B0E0E7EEF1E10C94EAD43C01C7
:1023D0002B015A01FC0117821682838181FD03C003
:1023E0006FEF7FEFB9C19AE0892E1E010894211C7E
:1023F000311CF3012381F20123FD859123FF81919B
:102400002F01882309F4A5C1853239F423FD859174
:1024100023FF81912F01853221F490E0B301B7D1E0
:10242000E8CF982FFF24EE249924FFE1FF15D0F088
:102430009B3269F09C3228F4903259F0933291F437
:102440000EC09D3249F0903369F441E024C052E05F
:10245000F52A84E0F82A28C098E0F92A25C0E0E1AE
:10246000FE2A22C0F7FC29C0892F80538A3070F4DD
:10247000F6FE05C0989C902C1124980E15C0E89C7F
:10248000E02C1124E80EF0E2FF2A0EC09E3229F45F
:10249000F6FC5FC140E4F42A07C09C3619F450E80A
:1024A000F52A02C0983649F4F20123FD959123FFE5
:1024B00091912F01992309F0B8CF892F855483304A
:1024C00018F08052833038F444E050E0A40EB51E7A
:1024D0005FE359830FC0933631F0933779F093352A
:1024E00009F052C01FC0F5018081898342E050E0AD
:1024F000A40EB51E610101E010E011C0F501C0801D
:10250000D180F6FC03C06FEF7FEF02C0692D70E051
:1025100042E050E0A40EB51EC6012ED18C015FE74B
:10252000F52213C0F501C080D180F6FC03C06FEF27
:102530007FEF02C0692D70E042E050E0A40EB51EAE
:10254000C6010FD18C0150E8F52AF3FE06C018C071
:1025500080E290E0B3011BD1EA948E2D90E0081741
:102560001907B0F30DC0F601F7FC8591F7FE8191D4
:102570006F0190E0B3010BD1E110EA9401501040DB
:102580000115110581F7E2C0943611F0993661F515
:10259000F7FE08C0F501208131814281538184E03A
:1025A00090E00AC0F501808191819C01442737FDAC
:1025B0004095542F82E090E0A80EB91E9FE6F922C4
:1025C00057FF09C050954095309521953F4F4F4F8B
:1025D0005F4FE0E8FE2ACA01B901A1012AE030E01C
:1025E00002D1D82ED2183FC0953729F41F2D1F7E57
:1025F0002AE030E01DC01F2D197F9F3661F0903713
:1026000020F4983509F0A5C00FC0903739F09837FD
:1026100009F09FC004C028E030E00AC0106114FD3A
:10262000146020E130E004C014FD166020E132E0C7
:1026300017FF08C0F501608171818281938144E0B8
:1026400050E008C0F50180819181BC0180E090E0FC
:1026500042E050E0A40EB51EA101C5D0D82ED2187C
:102660008FE7F82EF122F6FE0BC05EEFF522D914AB
:1026700038F4F4FE07C0F2FC05C08FEEF82202C069
:102680001D2D01C0192DF4FE0DC0FE01ED0DF11D33
:102690008081803319F499EEF92208C01F5FF2FEA1
:1026A00005C003C08F2D867809F01F5F0F2DF3FC46
:1026B00013C0F0FE0EC01E1510F09D2C0AC09D2CFC
:1026C0009E0C911A1E2D05C080E290E0B3015FD0F0
:1026D0001F5F1E15C8F304C01E1510F4E11A01C0D7
:1026E000EE2404FF0EC080E390E0B30150D002FF5F
:1026F0001BC001FD03C088E790E00EC088E590E0B4
:102700000BC0802F867881F001FF02C08BE201C0F0
:1027100080E2F7FC8DE290E0B30139D005C080E3A0
:1027200090E0B30134D09A94D914C8F3DA94F1014B
:10273000ED0DF11D808190E0B30129D0DD20B1F7CE
:1027400005C080E290E0B30122D0EA94EE20C9F700
:1027500050CEF30166817781CB012B96E2E10C9498
:1027600006D5FC010590615070400110D8F78095A6
:1027700090958E0F9F1F0895FC016150704001904D
:102780000110D8F7809590958E0F9F1F08950F9395
:102790001F93CF93DF938C01EB018B8181FF1BC0D3
:1027A00082FF0DC02E813F818C819D8128173907C2
:1027B00064F4E881F9810193F983E88306C0E88530
:1027C000F985802F1995892B31F48E819F8101968F
:1027D0009F838E8302C00FEF1FEFC801DF91CF915F
:1027E0001F910F910895FA01AA27283051F1203145
:1027F00081F1E8946F936E7F6E5F7F4F8F4F9F4F95
:10280000AF4FB1E03ED0B4E03CD0670F781F891FD6
:102810009A1FA11D680F791F8A1F911DA11D6A0FA4
:10282000711D811D911DA11D20D009F468943F9157
:102830002AE0269F11243019305D3193DEF6CF0156
:102840000895462F4770405D4193B3E00FD0C9F71C
:10285000F6CF462F4F70405D4A3318F0495D31FD89
:102860004052419302D0A9F7EACFB4E0A6959795DC
:10287000879577956795BA95C9F7009761057105B2
:1028800008959B01AC010A2E0694579547953795FC
:102890002795BA95C9F7620F731F841F951FA01D56
:1028A0000895FC01128213820895FC01838188231C
:1028B00011F081E082830895FC01828181111282EE
:1028C0000895CF93DF93DC01FC01EB55FE4F80812F
:1028D00091810097C9F1019791838083ED01CC5AD2
:1028E000DF4FFD01ED58FF4F8BE1019009928150C0
:1028F000E1F7FD01EE5AFF4FAF58BF4F8D919C910C
:102900001197A157B04091838083FD01ED58FF4F8F
:1029100020E030E0AD014B555E4F10C02F5F3F4FC0
:10292000EF01DF015F968BE10D9009928150E1F795
:10293000858D968D329791838083B196DA018D9142
:102940009C912817390750F3DF91CF910895FC012E
:1029500087E794E0918380838781882321F0CF01EA
:1029600004960C945A680895CF92DF92EF92FF92EA
:102970000F931F93DF93CF93CDB7DEB76F970FB64B
:10298000F894DEBF0FBECDBF8C016B01095A1F4FFB
:10299000D8018C9107551040882321F42FE2E22EB4
:1029A000F12C03C090E5E92EF12CE00EF11E87E733
:1029B00094E09A8389831C821B8218861D82B7014A
:1029C0006C5F7F4FCE010596A60121E00E94466F05
:1029D000882391F5E0E1F5E0949108C08091C00072
:1029E00085FFFCCF9093C600319694919923B1F75F
:1029F000EBE3F1E0949108C08091C00085FFFCCF2B
:102A00009093C600319694919923B1F709C08091B3
:102A1000C00085FFFCCF0894C11CD11C9093C60058
:102A2000F6019081992399F78091C00085FFFCCF32
:102A30008AE08093C6005AC0F801EB55FE4F208112
:102A400031812A30310508F040C02F5F3F4F31837C
:102A5000208321503040F90185E0EE0FFF1F8A9559
:102A6000E1F7E21BF30BED58FF4FE00FF11F13C02E
:102A7000AF01415E5F4FBF018BE1DB010D90BD01F6
:102A8000DA010D92AD018150C1F792918291329697
:102A9000968F858F7F9721503040BFEF2E3F3B07A9
:102AA00039F7D801AD58BF4FF70134968BE101904B
:102AB0000D928150E1F70F581F4FF70182819381EA
:102AC000D8018D939C9301571040D801AC5ABF4F49
:102AD000FE0135968BE101900D928150E1F70E5A7F
:102AE0001F4F8B819C81F80191838083CE010196D9
:102AF0002EDF6F960FB6F894DEBF0FBECDBFCF911D
:102B0000DF911F910F91FF90EF90DF90CF9008958C
:102B1000EF92FF920F931F938C013EECE32E31E076
:102B2000F32EE80EF91EC7010E940D68C7010E942E
:102B30005A68F801108211821F910F91FF90EF9057
:102B40000895CF92DF92EF92FF920F931F93CF934E
:102B5000DF937C016B01DB010D900020E9F78D0113
:102B600001501040061B170BEEECF1E0EE0EFF1EBD
:102B7000D7011C92E2E3FEEFEE0EFF1ECB016EE4E6
:102B800070E0C4DBEC01009731F4F8013197EC0DF3
:102B9000FD1D86010CC060E270E0B8DB8C010F5FA8
:102BA0001F4FCE016AE270E0B1DBFC0131978DE08E
:102BB00081838AE082831382C70186539E4FB801C6
:102BC0000E9457708EEC91E0E80EF91ED7018C91AF
:102BD000882319F1E9E0F5E0949108C08091C000E4
:102BE00085FFFCCF9093C600319694919923B1F75D
:102BF000E5E6F1E0949108C08091C00085FFFCCF2C
:102C00009093C600319694919923B1F78091C000BA
:102C100085FFFCCF8AE08093C600DF91CF911F91A2
:102C20000F91FF90EF90DF90CF900895CF93DF93B7
:102C3000EC018B81882309F43BC0EDE8F1E094912D
:102C400008C08091C00085FFFCCF9093C6003196EC
:102C500094919923B1F7CD57DD4F488159816A810D
:102C60007B81C358D24080E695E02AE030E00E94A4
:102C7000E527EBE8F1E0949108C08091C00085FF62
:102C8000FCCF9093C600319694919923B1F7C55823
:102C9000DD4F488159816A817B8180E695E02AE099
:102CA00030E00E94E5278091C00085FFFCCF12C074
:102CB000EBE7F1E0949108C08091C00085FFFCCF64
:102CC0009093C600319694919923B1F78091C000FA
:102CD00085FFFCCF8AE08093C600DF91CF910895F5
:102CE0002F923F924F925F926F927F928F929F921C
:102CF000AF92BF92CF92DF92EF92FF920F931F930A
:102D0000DF93CF93CDB7DEB7AC970FB6F894DEBFA5
:102D10000FBECDBF5C014B01FC018381882309F408
:102D20003BC1C50182539E4F0E945A68F501128231
:102D30001A8A1D8A198A188A87E794E09F878E87E6
:102D40005EE4C52ED12CCA0CDB1C2FE230E0A20EB3
:102D5000B31EF601B182A08221ED3FEFA20EB31E99
:102D6000F40180818F3209F08DC0C4016FE270E000
:102D7000CDDA7C010894E11CF11C3E010894611C31
:102D8000711C260142E1242E312C2C0E3D1E75C0F3
:102D9000C7016FE270E0BADA6C01009709F480C0F5
:102DA000E816F90608F07CC08C010E191F09C30152
:102DB000B701A801D4DA060D171DF8011082F3013E
:102DC00007C08091C00085FFFCCF31969093C6006C
:102DD00090819923B1F78091C00085FFFCCFFAE084
:102DE000F093C600F201608171816115710519F4DB
:102DF00060E070E002C06C5F7F4FC101A30121E081
:102E00000E94466F882371F5E9ECF1E0949108C0C7
:102E10008091C00085FFFCCF9093C60031969491BD
:102E20009923B1F7FE01319607C08091C00085FF5C
:102E3000FCCF31969093C60090819923B1F7E7ECCF
:102E4000F1E0949108C08091C00085FFFCCF909381
:102E5000C600319694919923B1F78091C00085FF07
:102E6000FCCF94C02EE030E02C0F3D1FF2013183E7
:102E7000208376010894E11CF11CE114F10409F0AF
:102E800087CF0BC080E590E0A80EB91EF601B18295
:102E9000A08220EB3FEFA20EB31ED82C092D02C05A
:102EA000DE2C0F2D8EE490E0A80EB91EF501808176
:102EB000918122EB3FEFA20EB31E009719F480E040
:102EC00090E001C004966D2D702F0E94127088232F
:102ED00071F1E9EBF1E0949108C08091C00085FFA9
:102EE000FCCF9093C600319694919923B1F78D2D24
:102EF000902F9C01F90107C08091C00085FFFCCF95
:102F000031969093C60090819923B1F78091C000CB
:102F100085FFFCCF8AE08093C60083E892E0A80E8C
:102F2000B91EF501108211821282138232C0E1EAC9
:102F3000F1E0949108C08091C00085FFFCCF909390
:102F4000C600319694919923B1F78D2D902F9C0155
:102F5000F90107C08091C00085FFFCCF31969093A6
:102F6000C60090819923B1F7EFE9F1E0949108C090
:102F70008091C00085FFFCCF9093C600319694915C
:102F80009923B1F78091C00085FFFCCF8AE0809340
:102F9000C600CE010E96DBDCAC960FB6F894DEBF11
:102FA0000FBECDBFCF91DF911F910F91FF90EF909A
:102FB000DF90CF90BF90AF909F908F907F906F9059
:102FC0005F904F903F902F900895BF92CF92DF92E5
:102FD000EF92FF920F931F93CF93DF938C01EB013E
:102FE0008FE28993EE24E394FF2475EAC72E71E003
:102FF000D72EC00ED11E6FE1B62E14C0FB9CC001AF
:1030000011248D589F4F800F911FBE010E946A6846
:1030100002C02196E3948881882319F08CE88E15EC
:10302000C0F7F3942F2D30E0F601808191812817AD
:10303000390720F3E7FC07C0C80182539E4FBE0149
:103040000E946A6801C01882DF91CF911F910F9191
:10305000FF90EF90DF90CF90BF900895EF92FF9296
:103060000F931F93CF93DF938C01FC01138286A9EA
:10307000882321F0C801C3960E945A68E7EAEE2E21
:10308000E1E0FE2EE00EF11EC70160E045E30E9484
:103090000966882309F5E0E1F5E0949108C0809184
:1030A000C00085FFFCCF9093C60031969491992380
:1030B000B1F7E2E1F3E0949108C08091C00085FF90
:1030C000FCCF9093C600319694919923B1F78091EB
:1030D000C00085FFFCCF7DC0E801C455DE4FCE01A6
:1030E000B70141E00E94E870882341F5CE01B701A5
:1030F00040E00E94E870882309F5E9E0F5E094914A
:1031000008C08091C00085FFFCCF9093C600319627
:1031100094919923B1F7EFEFF2E0949108C0809178
:10312000C00085FFFCCF9093C600319694919923FF
:10313000B1F78091C00085FFFCCF4BC0C801C3969A
:10314000BE010E944C6B882309F5E9E0F5E09491FB
:1031500008C08091C00085FFFCCF9093C6003196D7
:1031600094919923B1F7EFEEF2E0949108C0809129
:10317000C00085FFFCCF9093C600319694919923AF
:10318000B1F78091C00085FFFCCF23C081E0F8013A
:103190008383E0E1F5E0949108C08091C00085FF51
:1031A000FCCF9093C600319694919923B1F7E4EE49
:1031B000F2E0949108C08091C00085FFFCCF90930D
:1031C000C600319694919923B1F78091C00085FF94
:1031D000FCCF8AE08093C600D801AC5ABF4FF801FB
:1031E000F3968BE101900D928150E1F7F80181A9EE
:1031F00092A90E5A1F4FF801918380830255104007
:10320000C8018F96025B1F4FF80191838083DF9185
:10321000CF911F910F91FF90EF9008952F923F92C1
:103220004F925F926F927F929F92AF92BF92CF9296
:10323000DF92EF92FF920F931F93DF93CF93CDB75F
:10324000DEB7CC55D0400FB6F894DEBF0FBECDBF71
:103250006C01662311F527E832E0C20ED31ED601B9
:103260008C91E9E7FDEFCE0EDF1E882309F4E2C062
:103270002FE732E0C20ED31ED601ED90FD900D91E6
:103280001C91E1E8FDEFCE0EDF1E0E949DCCE616FC
:10329000F7060807190708F4CDC027E832E0C20E88
:1032A000D31ED6011C92E9E7FDEFCE0EDF1ED6013C
:1032B00013968C91882339F4C601D0DEF601838100
:1032C000882309F4B7C000D000D0EDB7FEB731961F
:1032D0007E010894E11CF11CADB7BEB71296FC92BA
:1032E000EE9211978CE591E093838283D6019D96AF
:1032F0008D919C919E979583848340D88701EDB7EB
:10330000FEB736960FB6F894FEBF0FBEEDBF57015D
:103310000AC0D8018C91992787FD90950E94DFD42F
:10332000F80181938F01F50101900020E9F73197B1
:10333000EA19FB09802F8E198E175CF313E3A12E77
:10334000B12CAC0CBD1CC50140E050E060E070E069
:103350000E9443679924BDE3EB2EF12CEC0EFD1E79
:103360002E010894411C511CAFE16A2E712C6C0E89
:103370007D1EF5E52F2EF1E03F2E42C0D8018C9145
:1033800090E00E94DFD4F80181938F01D7010D9066
:103390000020E9F71197AE19BF09802F8E198A17FF
:1033A0006CF327968FAD27978E3751F1C701B20185
:1033B00045E050E00E94A111009711F500D000D027
:1033C000EDB7FEB73196ADB7BEB712967C926E924E
:1033D000119733822282558244820E94BE11EDB73A
:1033E000FEB736960FB6F894FEBF0FBEEDBFC30111
:1033F0000E943D4B81E591E00E94C44A9924939438
:10340000C501B70140E050E00E946B6A181614F441
:103410008701BCCF992041F48FEF9FEFD6019E9694
:103420009C938E939D9706C0F60185A596A501965F
:1034300096A785A7C45ADF4F0FB6F894DEBF0FBE1C
:10344000CDBFCF91DF911F910F91FF90EF90DF9053
:10345000CF90BF90AF909F907F906F905F904F9074
:103460003F902F9008952F923F924F925F926F92CC
:103470007F928F929F92AF92BF92CF92DF92EF9204
:10348000FF920F931F93DF93CF93CDB7DEB7CF5843
:10349000D0400FB6F894DEBF0FBECDBF8C012B011C
:1034A0006A01C757DF4F39832883C958D04084E069
:1034B00090E0C80ED91EF8017196C957DF4FF98305
:1034C000E883C758D04044E0642E712C600E711E12
:1034D000CA57DF4F1882C658D04036E6E32EF12C8B
:1034E000EC0EFD1EC7010B96C557DF4F99838883ED
:1034F000CB58D04028E8822E22E0922E800E911EDA
:103500009AE8A92E92E0B92EA00EB11E87E4282ECB
:10351000312C2C0E3D1EF1013496C357DF4FF98339
:10352000E883CD58D040E0E1F5E08491C157DF4F0A
:103530008883CF58D04053C1F7018385482F50E08E
:10354000BA01687170706031710509F056C1F401FB
:10355000208131812130310509F44FC122303105FC
:1035600009F44BC1F701DE0111969081903239F0D8
:103570008E2F8E19883011F48EE28D939D933196A3
:10358000C557DF4F88819981CB58D040E817F9079C
:1035900061F71C921E86F2018081882331F4CE01EE
:1035A0000E9660E072E00E947B11CE010E96B20191
:1035B0000E947B11CE010E96BE016F5F7F4F0E946D
:1035C0007B11CE010E9660E072E00E947B111CA67A
:1035D0001FA61BA61AA687E794E099A788A7CE0185
:1035E0008C96B601AE014F5F5F4F21E00E94466F9F
:1035F000882309F03FC0F40180819181892BD1F5A6
:10360000C157DF4F9881CF58D040E0E1F5E008C0C6
:103610008091C00085FFFCCF9093C60031969491B5
:103620009923B1F7E2E0F2E007C08091C00085FF86
:10363000FCCF31969093C60090819923B1F7809189
:10364000C00085FFFCCFFAE0F093C600FE01319682
:1036500007C08091C00085FFFCCF31969093C600D3
:1036600090819923B1F78091C00085FFFCCF8AE05B
:103670008093C600C357DF4FA881B981CD58D04091
:10368000FE01BC968BE101900D928150E1F78AA575
:103690009BA5F1019383828387E794E091838083E4
:1036A000C801BE01625F7F4FA10120E030E0DBDE98
:1036B000C1014DD9CE0188964AD991C09E3209F4F4
:1036C0008EC09F3509F48BC0F80191899E3209F4B0
:1036D00086C09F3509F483C043FD81C080E060311E
:1036E000710509F481E0F80184A7882349F4F70102
:1036F0008085873409F073C081858E3709F46FC0E7
:10370000D301F7018081803241F08E2F8E198830ED
:1037100011F48EE28D9380818D933196C557DF4FE2
:1037200088819981CB58D040E817F90759F71C9246
:10373000F40180819181009701F5F20107C0809129
:10374000C00085FFFCCF31969093C60090819923ED
:10375000B1F7F30107C08091C00085FFFCCF31961F
:103760009093C60090819923B1F78091C00085FFA6
:10377000FCCFFAE0F093C60032C08130910539F4F5
:10378000F5018081918101969183808328C0029701
:1037900031F5C757DF4F88819981C958D0400097CC
:1037A00031F0B3010E946811892B71F42BC0CA5704
:1037B000DF4F9881C658D040292F30E0F501808135
:1037C000918128173907F1F0CA57DF4FF881C658A1
:1037D000D040FF5FCA57DF4FF883C658D040C601BC
:1037E000B701C957DF4F48815981C758D0400E945F
:1037F0006B6A18160CF4A0CE05C0F70190819923CE
:1038000009F05CCFC157DF4F0FB6F894DEBF0FBE93
:10381000CDBFCF91DF911F910F91FF90EF90DF907F
:10382000CF90BF90AF909F908F907F906F905F9060
:103830004F903F902F900895EF92FF920F931F9318
:10384000DF93CF93CDB7DEB76F970FB6F894DEBF97
:103850000FBECDBF7C018C01025B1F4F805B9F4F71
:10386000F8019183808328E832E0E20EF31E21E024
:1038700030E0F701219331937F011182108226E716
:103880003DEFE20EF31E049640E050E060E070E091
:103890000E944367F80120813181DE011596F9010C
:1038A00034968BE101900D928150E1F7F90182810C
:1038B00093819C838B8387E794E09A838983C701F4
:1038C00065E172E08E010F5F1F4FA80120E030E03C
:1038D000CADDC8013CD8F701E657FD4F80819181D0
:1038E0006F960FB6F894DEBF0FBECDBFCF91DF91BC
:1038F0001F910F91FF90EF900895CF92DF92EF927A
:10390000FF920F931F93DF93CF93CDB7DEB76F97DF
:103910000FB6F894DEBF0FBECDBF7C016A018C01EB
:10392000025B1F4F805B9F4FF8019183808328E8E3
:1039300032E0E20EF31E22E030E0F70121933193F2
:103940007F017183608326E73DEFE20EF31E04964C
:1039500040E050E060E070E00E944367F8012081A1
:103960003181DE011596F90134968BE101900D92BB
:103970008150E1F7F901828193819C838B8387E7F2
:1039800094E09A838983C70165E172E08E010F5F3D
:103990001F4FA801960167DDC8010E94A7146F960A
:1039A0000FB6F894DEBF0FBECDBFCF91DF911F9150
:1039B0000F91FF90EF90DF90CF9008952F923F925C
:1039C0004F925F926F927F928F929F92AF92BF922F
:1039D000CF92DF92EF92FF920F931F93DF93CF93DB
:1039E000CDB7DEB7AD970FB6F894DEBF0FBECDBF33
:1039F0007C013B014DA7DC0113968C91882309F4CF
:103A000050C3E1EDF1E0EE0EFF1ED7018C91EFE225
:103A1000FEEFEE0EFF1E882309F418C1222309F0E1
:103A2000E0C029EE31E0E20EF31ED7018C91E7E110
:103A3000FEEFEE0EFF1E882371F1E9E0F5E09491B0
:103A400008C08091C00085FFFCCF9093C6003196DE
:103A500094919923B1F7E1EAF2E0949108C0809142
:103A6000C00085FFFCCF9093C600319694919923B6
:103A7000B1F780E695E061E070E04AE050E00E9436
:103A800034288091C00085FFFCCF8AE08093C60077
:103A90000E94482A06C3E0E1F5E0949108C08091B5
:103AA000C00085FFFCCF9093C60031969491992376
:103AB000B1F7E8E8F2E0949108C08091C00085FF7A
:103AC000FCCF9093C600319694919923B1F7F301FE
:103AD00007C08091C00085FFFCCF31969093C6004F
:103AE00090819923B1F7EDE7F2E0949108C08091BD
:103AF000C00085FFFCCF9093C60031969491992326
:103B0000B1F7C7012EEE31E0E20EF31EB7015DDA28
:103B10004BEF5FEFE40EF51ED7019C91E7E1FEEF5E
:103B2000EE0EFF1E8DE8989FF0011124E251FE4F2A
:103B3000EE0DFF1D07C08091C00085FFFCCF3196C0
:103B40009093C60090819923B1F7E7E7F2E0949152
:103B500008C08091C00085FFFCCF9093C6003196CD
:103B600094919923B1F723E832E0E20EF31ED701D6
:103B70004D915D916D917C91EDE7FDEFEE0EFF1E95
:103B800080E695E02AE030E00E94E5278091C000C1
:103B900085FFFCCF8AE08093C600A70147515E4FA6
:103BA000DA012C91E22FF0E0EE0FFF1FEE0FFF1F66
:103BB000EE0DFF1DE651FE4F83E892E0E80EF91E80
:103BC000D701AD90BD90CD90DC908DE79DEFE80ED4
:103BD000F91EA082B182C282D3822F5FDA012C93B8
:103BE0002FC0E0E1F5E0949108C08091C00085FF0E
:103BF000FCCF9093C600319694919923B1F7E6E6F5
:103C0000F2E0949108C08091C00085FFFCCF9093B2
:103C1000C600319694919923B1F7F30107C08091C2
:103C2000C00085FFFCCF31969093C6009081992308
:103C3000B1F78091C00085FFFCCF8AE08093C60079
:103C4000C70182539E4F0E945A6839C0E9EEF1E0E5
:103C5000EE0EFF1ED7011C92E7E1FEEFEE0EFF1EF7
:103C6000E0E1F5E0949108C08091C00085FFFCCFB1
:103C70009093C600319694919923B1F7E5E5F2E06F
:103C8000949108C08091C00085FFFCCF9093C6003E
:103C9000319694919923B1F7F30107C08091C00048
:103CA00085FFFCCF31969093C60090819923B1F7A0
:103CB0008091C00085FFFCCF8AE08093C600D701C9
:103CC00012961C921A8A1D8A198A188A87E794E02C
:103CD0009F878E876EE4A62EB12CAE0CBF1CEFE240
:103CE000F0E0EE0EFF1ED501ED92FC92E1EDFFEF4C
:103CF000EE0EFF1ED3018C918F3209F090C0C301EC
:103D00006FE270E00E9486116C010894C11CD11C06
:103D10004E010894811C911C250152E1252E312C65
:103D20002C0E3D1E77C0C6016FE270E00E94861126
:103D30005C01009709F480C0C816D90608F07CC061
:103D40008C010C191D09C401B601A8010E94AF1114
:103D5000080D191DF8011082F40107C08091C00000
:103D600085FFFCCF31969093C60090819923B1F7DF
:103D70008091C00085FFFCCFFAE0F093C600D2012D
:103D80006D917C916115710519F460E070E002C0DD
:103D90006C5F7F4FC101A40121E00E94466F882320
:103DA00071F5E1E4F2E0949108C08091C00085FFD4
:103DB000FCCF9093C600319694919923B1F7FE0100
:103DC000319607C08091C00085FFFCCF319690935B
:103DD000C60090819923B1F7EFE3F2E0949108C017
:103DE0008091C00085FFFCCF9093C60031969491DE
:103DF0009923B1F78091C00085FFFCCF23C12EE04D
:103E000030E02C0F3D1FF2013183208365010894BF
:103E1000C11CD11CC114D10409F085CF0BC040E5F1
:103E200050E0E40EF51ED501ED92FC92E0EBFFEFC1
:103E3000EE0EFF1E830101C08601F701E25BFF4F1A
:103E40002DA5222309F4BFC0608171816115710520
:103E500019F460E070E002C06C5F7F4FC7018253CD
:103E60009E4FA80121E00E94466F882309F47EC07E
:103E70004FED51E0E40EF51ED7014D915D916D912E
:103E80007C91ECE9F0E0EE0EFF1ED7014D935D93BF
:103E90006D937C931397E5E8FDEFEE0EFF1EE1E3D3
:103EA000F2E0949108C08091C00085FFFCCF909310
:103EB000C600319694919923B1F7F80107C080911B
:103EC000C00085FFFCCF31969093C6009081992366
:103ED000B1F7E9E2F2E0949108C08091C00085FF5B
:103EE000FCCF9093C600319694919923B1F780E668
:103EF00095E02AE030E00E94E5278091C00085FF30
:103F0000FCCF8AE08093C60023E832E0E20EF31E85
:103F1000D7011D921D921D921C921397EDE7FDEFA4
:103F2000EE0EFF1EEBE1F2E0949108C08091C0001C
:103F300085FFFCCF9093C600319694919923B1F7F9
:103F40008091C00085FFFCCF8AE08093C600C70146
:103F500060E070E0A801D1DCD70151968C918823F4
:103F600009F498C087010F5E1F4F94C0E7E0F2E0AC
:103F7000949108C08091C00085FFFCCF9093C6004B
:103F8000319694919923B1F7F80107C08091C00050
:103F900085FFFCCF31969093C60090819923B1F7AD
:103FA000E5E0F2E0949108C08091C00085FFFCCF6D
:103FB0009093C600319694919923B1F78091C000F7
:103FC00085FFFCCF3FC0608171816115710519F4D7
:103FD00060E070E002C06C5F7F4FC70182539E4F6C
:103FE000A80126E50E94466F882381F5E1EFF1E004
:103FF000949108C08091C00085FFFCCF9093C600CB
:10400000319694919923B1F7F80107C08091C000CF
:1040100085FFFCCF31969093C60090819923B1F72C
:10402000EFEEF1E0949108C08091C00085FFFCCFD5
:104030009093C600319694919923B1F78091C00076
:1040400085FFFCCF8AE08093C60027C081E0F7019E
:104050008083EDEDF1E0949108C08091C00085FF70
:10406000FCCF9093C600319694919923B1F7F30158
:1040700007C08091C00085FFFCCF31969093C600A9
:1040800090819923B1F78091C00085FFFCCF8AE031
:104090008093C600C8010E94C8BFCE010E960E9440
:1040A000A714AD960FB6F894DEBF0FBECDBFCF916B
:1040B000DF911F910F91FF90EF90DF90CF90BF9015
:1040C000AF909F908F907F906F905F904F903F90B8
:1040D0002F900895EF92FF920F931F93CF93DF934A
:1040E000EC010E9442768E0107511E4FD8018C913F
:1040F000BEECEB2EB1E0FB2EEC0EFD1E882399F1F9
:10410000C7010E945A68F8016081615060838DE8A0
:10411000689FB001112462517E4F6C0F7D1FCE014C
:1041200041E021E04BDCD801EC91F0E0EE0FFF1F05
:10413000EE0FFF1FEC0FFD1FE651FE4F4081518136
:1041400062817381CD57DD4F488359836A837B83B6
:10415000C358D240C7010E9443678B81882389F1ED
:1041600081E08A832EC00E942076C7010E945A688F
:104170001A828FE291E00E94C44A8091870A8823C4
:1041800001F11092870A80913C08C82FD0E0CC0F33
:10419000DD1FC653DE4E68817981882777FD8095C3
:1041A000982F0E943ED12091B0033091B1034091ED
:1041B000B2035091B3030E94AAD2181614F41982C4
:1041C0001882DF91CF911F910F91FF90EF9008958A
:1041D000FC0181E08183CF0140E021E0EFCBEF9251
:1041E000FF920F931F93DF93CF93CDB7DEB76F97F7
:1041F0000FB6F894DEBF0FBECDBF7C0188E892E019
:10420000E80EF91EF7011182108288E79DEFE80E93
:10421000F91E87010D5C1F4FC80140E050E060E0CF
:1042200070E00E944367DE011596F8018BE1019072
:104230000D928150E1F7F70181A992A99C838B83AC
:1042400087E794E09A838983C70165E172E08E0174
:104250000F5F1F4FA80120E030E005D9C8010E9480
:10426000A7146F960FB6F894DEBF0FBECDBFCF91E7
:10427000DF911F910F91FF90EF9008950F931F937F
:10428000CF93DF93DC01D3961C92D397D6961C92E2
:10429000D697D2961C921E92D19787E794E0D0963B
:1042A0009C938E939F97AC5ABF4F1C9213961C926F
:1042B000A755B040FD01E05BFF4FAE5ABF4F1196CE
:1042C0001C921E92A255B04091838083ED01C1598A
:1042D000DF4FFE0120E030E0482F14821782138266
:1042E000128240839183215E3F4F7F9681E0263387
:1042F000380799F7A855BE4F89E18C9313961C9205
:1043000058961C921B961C9213961C92A15DB1406C
:10431000FD01E653FE4FA453BE4F11961C921E9210
:1043200040839183A155BF4F1D921D921D921C92F7
:10433000139718961D921D921D921C921397A358C5
:10434000B24012961C92129713961C9213971C92CD
:1043500011961C9211978D0101581D4FF801108282
:10436000118212821382AB55BE4F11961C921E927F
:10437000AC5BBF4F1C92FE01C90111920197E9F796
:10438000A256BF4F81E08C93A758B2409E961C92D4
:104390001E929D970E949DCC68577C4E8F4F9F4FD9
:1043A000F8016083718382839383DF91CF911F91A2
:1043B0000F910895DF93CF93CDB7DEB7E0970FB697
:1043C000F894DEBF0FBECDBFDE011196E7E1F4E049
:1043D00080E101900D928150E1F7DE015196E7E016
:1043E000F4E080E101900D928150E1F7DE019196B9
:1043F000E7EFF3E080E101900D928150E1F78981D0
:104400009A81AB81BC8180932B0A90932C0AA09354
:104410002D0AB0932E0A89899A89AB89BC89809329
:104420001B0A90931C0AA0931D0AB0931E0A89A12F
:104430009AA1ABA1BCA180933B0A90933C0AA093A4
:104440003D0AB0933E0A8D819E81AF81B8858093ED
:104450002F0A9093300AA093310AB093320A8D89C3
:104460009E89AF89B88D80931F0A9093200AA093EC
:10447000210AB093220A8DA19EA1AFA1B8A5809375
:104480003F0A9093400AA093410AB093420A89855B
:104490009A85AB85BC858093330A9093340AA093A8
:1044A000350AB093360A898D9A8DAB8DBC8D809379
:1044B000230A9093240AA093250AB093260A89A57B
:1044C0009AA5ABA5BCA58093430A9093440AA093F8
:1044D000450AB093460A8D859E85AF85B88980933D
:1044E000370A9093380AA093390AB0933A0A8D8D0F
:1044F0009E8DAF8DB8A18093270A9093280AA09330
:10450000290AB0932A0A8DA59EA5AFA5B8A98093C4
:10451000470A9093480AA093490AB0934A0A0E9416
:10452000735280E090E8ABE3B5E480934F0A909338
:10453000500AA093510AB093520A8093530A909361
:10454000540AA093550AB093560A20E030E040E0A8
:1045500050E020934B0A30934C0A40934D0A5093FD
:104560004E0A80E29EE4A0E0B0E08093170A9093A8
:10457000180AA093190AB0931A0A2093630A309379
:10458000640A4093650A5093660A80E090E0A0EACE
:10459000B1E48093570A9093580AA093590AB093B4
:1045A0005A0A8DEC9CECACECBEE380935B0A9093D2
:1045B0005C0AA0935D0AB0935E0A80E090E0A0EAF6
:1045C000B0E480935F0A9093600AA093610AB0936D
:1045D000620A20930D0830930E0840930F08509301
:1045E00010082093090830930A0840930B08509351
:1045F0000C08209305083093060840930708509351
:10460000080888EC90E090937B1280937A128CE3F8
:1046100090E090937D1280937C122FEF30E03093E6
:104620007F1220937E1280EF90E09093811280930E
:1046300080128EE690E090938312809382123093E2
:104640008512209384128AE999E9A1EBB1E4809361
:10465000C1039093C203A093C303B093C40361E763
:104660007DE38AE89FE30E94717F6093C5037093A6
:10467000C6038093C7039093C80360E070E084EEA4
:1046800092E40E947D7F6093C9037093CA03809374
:10469000CB039093CC030E945F7E80E090E0A0E883
:1046A000BFE38093CD039093CE03A093CF03B09349
:1046B000D003E0E1F5E0949108C08091C00085FF4F
:1046C000FCCF9093C600319694919923B1F7EFE116
:1046D000F3E0949108C08091C00085FFFCCF9093D7
:1046E000C600319694919923B1F78091C00085FF5F
:1046F000FCCF8AE08093C600E0960FB6F894DEBF48
:104700000FBECDBFCF91DF910895CF93DF93C0E16E
:10471000D5E0FE01949108C08091C00085FFFCCFD8
:104720009093C600319694919923B1F7E9EFF4E0A4
:10473000949108C08091C00085FFFCCF9093C60083
:10474000319694919923B1F78091C00085FFFCCFF9
:104750008AE08093C600FE019491E0E1F5E008C094
:104760008091C00085FFFCCF9093C6003196949154
:104770009923B1F740912B0A50912C0A60912D0A90
:1047800070912E0A81EF94E00E94312E40912F0A01
:104790005091300A6091310A7091320A8EEE94E0A5
:1047A0000E94312E4091330A5091340A6091350AAB
:1047B0007091360A8BEE94E00E94312E4091370AB8
:1047C0005091380A6091390A70913A0A88EE94E063
:1047D0000E94312EE6E1F2E007C08091C00085FF23
:1047E000FCCF31969093C60090819923B1F78091C8
:1047F000C00085FFFCCF8AE08093C600FE01949143
:10480000E0E1F5E008C08091C00085FFFCCF909307
:10481000C600319694919923B1F7EEECF4E09491AF
:1048200008C08091C00085FFFCCF9093C6003196F0
:1048300094919923B1F78091C00085FFFCCF8AE065
:104840008093C600FE019491E0E1F5E008C08091FC
:10485000C00085FFFCCF9093C600319694919923B8
:10486000B1F740911B0A50911C0A60911D0A70918A
:104870001E0A85EC94E00E94312E40911F0A50914F
:10488000200A6091210A7091220A82EC94E00E9431
:10489000312E4091230A5091240A6091250A70918B
:1048A000260A8FEB94E00E94312E4091270A509106
:1048B000280A6091290A70912A0A8CEB94E00E94E0
:1048C000312EE6E1F2E007C08091C00085FFFCCF09
:1048D00031969093C60090819923B1F78091C000E2
:1048E00085FFFCCF8AE08093C600FE019491E0E151
:1048F000F5E008C08091C00085FFFCCF9093C60012
:10490000319694919923B1F7EEE9F4E0949108C0BF
:104910008091C00085FFFCCF9093C60031969491A2
:104920009923B1F78091C00085FFFCCF8AE0809386
:10493000C600FE019491E0E1F5E008C08091C0005E
:1049400085FFFCCF9093C600319694919923B1F7DF
:1049500040913B0A50913C0A60913D0A70913E0A99
:1049600085E994E00E94432E40913F0A5091400A0D
:104970006091410A7091420A82E994E00E94432EBC
:104980004091430A5091440A6091450A7091460A49
:104990008FE894E00E94432E4091470A5091480AC4
:1049A0006091490A70914A0A8CE894E00E94432E73
:1049B000E6E1F2E007C08091C00085FFFCCF3196B0
:1049C0009093C60090819923B1F78091C00085FF34
:1049D000FCCF8AE08093C600FE019491E0E1F5E00F
:1049E00008C08091C00085FFFCCF9093C60031962F
:1049F00094919923B1F7E7E5F4E0949108C0809190
:104A0000C00085FFFCCF9093C60031969491992306
:104A1000B1F78091C00085FFFCCF8AE08093C6008B
:104A2000FE019491E0E1F5E008C08091C00085FFAF
:104A3000FCCF9093C600319694919923B1F74091A1
:104A40004F0A5091500A6091510A7091520A8EE4B7
:104A500094E00E94312E4091530A5091540A609183
:104A6000550A7091560A8BE494E00E94312EE6E1DB
:104A7000F2E007C08091C00085FFFCCF3196909393
:104A8000C60090819923B1F78091C00085FFFCCFCB
:104A90008AE08093C600FE019491E0E1F5E008C051
:104AA0008091C00085FFFCCF9093C6003196949111
:104AB0009923B1F7E8E9F3E0949108C08091C00030
:104AC00085FFFCCF9093C600319694919923B1F75E
:104AD0008091C00085FFFCCF8AE08093C600FE0174
:104AE0009491E0E1F5E008C08091C00085FFFCCF23
:104AF0009093C600319694919923B1F740914B0A57
:104B000050914C0A60914D0A70914E0A8FE893E0E3
:104B10000E94312E4091630A5091640A6091650AA7
:104B20007091660A8CE893E00E94312E4091170A3A
:104B30005091180A6091190A70911A0A89E893E055
:104B40000E94432E4091570A5091580A6091590A89
:104B500070915A0A86E893E00E94312E40915B0AD8
:104B600050915C0A60915D0A70915E0A83E893E05F
:104B70000E94312E40915F0A5091600A6091610A53
:104B80007091620A80E893E00E94312EE6E1F2E043
:104B900007C08091C00085FFFCCF31969093C6007E
:104BA00090819923B1F78091C00085FFFCCF8AE006
:104BB0008093C600FE019491E0E1F5E008C0809189
:104BC000C00085FFFCCF9093C60031969491992345
:104BD000B1F7EEE6F3E0949108C08091C00085FF44
:104BE000FCCF9093C600319694919923B1F78091B0
:104BF000C00085FFFCCF8AE08093C600FE0194913F
:104C0000E0E1F5E008C08091C00085FFFCCF909303
:104C1000C600319694919923B1F7409105085091BF
:104C20000608609107087091080885E693E00E94E5
:104C3000312E4091090850910A0860910B0870913B
:104C40000C0882E693E00E94312E40910D085091AD
:104C50000E0860910F08709110088FE593E00E9494
:104C6000312EE6E1F2E007C08091C00085FFFCCF65
:104C700031969093C60090819923B1F78091C0003E
:104C800085FFFCCF8AE08093C600FE019491E0E1AD
:104C9000F5E008C08091C00085FFFCCF9093C6006E
:104CA000319694919923B1F7E1E5F3E0949108C02E
:104CB0008091C00085FFFCCF9093C60031969491FF
:104CC0009923B1F78091C00085FFFCCF8AE08093E3
:104CD000C600FE019491E0E1F5E008C08091C000BB
:104CE00085FFFCCF9093C600319694919923B1F73C
:104CF0004091C1035091C2036091C3037091C403FA
:104D000087E493E0AED76091C5037091C6038091AC
:104D1000C7039091C8030E94777FAB01BC0184E474
:104D200093E09FD76091C9037091CA038091CB0330
:104D30009091CC030E94837FAB01BC0181E493E09E
:104D400090D7E6E1F2E007C08091C00085FFFCCF7C
:104D500031969093C60090819923B1F78091C0005D
:104D600085FFFCCF8AE08093C600DF91CF91089544
:104D70001F920F920FB60F920BB60F9211242F9322
:104D80003F934F938F939F93EF93FF934091C60070
:104D9000E0915C05F0915D0531969F012F773070B1
:104DA000319780915E0590915F052817390739F09A
:104DB000E452FB4F408330935D0520935C05FF91E7
:104DC000EF919F918F914F913F912F910F900BBE3B
:104DD0000F900FBE0F901F9018959A01AB012030D5
:104DE00081EE380780E0480780E0580749F182E00B
:104DF0008093C00060E079E08DE390E00E94B6D43B
:104E00002150304040405040CA01B90122E030E01A
:104E100040E050E00E94B6D43093C5002093C40017
:104E20008091C10080618093C1008091C100886041
:104E30008093C1008091C10080688093C100089573
:104E40001092C00020E130E0E7CF20915E05309164
:104E50005F0580915C0590915D058217930719F4B9
:104E60002FEF3FEF0EC0F901E452FB4F80812F5F1F
:104E70003F4F2F77307030935F0520935E05282FCA
:104E800030E0C901089580915E0590915F0590938F
:104E90005D0580935C05089508952F923F924F928F
:104EA0005F926F927F928F929F92AF92BF92CF92BA
:104EB000DF92EF92FF920F931F93DF93CF93CDB7C3
:104EC000DEB7A0970FB6F894DEBF0FBECDBF1C01B2
:104ED0006A017B01411551056105710541F440E30B
:104EE00050E060E070E020E030E08BD055C08824D6
:104EF00099245401422E55246624772401E010E0C1
:104F00000C0F1D1F080D191DC701B601A301920149
:104F10000E9494D4F80160830894811C911CA11C08
:104F2000B11CC701B601A30192010E9494D4C9012A
:104F3000DA016C017D01C114D104E104F104F1F640
:104F400081E0E82EF12CEC0EFD1EE80CF91C3E0170
:104F50000894611C711CD501C4010197A109B10914
:104F60006C01C818D90815C0F601EE0DFF1D40816F
:104F70004A3010F4405D01C0495C552747FD50950B
:104F8000652F752FC10120E030E03BD00894E10887
:104F9000F1086E147F0441F7A0960FB6F894DEBFB7
:104FA0000FBECDBFCF91DF911F910F91FF90EF907A
:104FB000DF90CF90BF90AF909F908F907F906F9039
:104FC0005F904F903F902F9008952115310539F44F
:104FD0008091C00085FFFCCF4093C60008955DCF4F
:104FE000EF92FF920F931F939A01E62EFF2400E0A9
:104FF00010E0B801A701E9DF1F910F91FF90EF903A
:105000000895EF92FF920F931F93CF93DF93EC01DC
:105010007A018B012115310539F48091C00085FF9B
:10502000FCCFE092C60019C02A303105A9F477FF01
:105030000FC04DE250E060E070E020E030E0E1DFE2
:1050400010950095F094E094E11CF11C011D111DD8
:10505000CE01B801A7012AE020DFDF91CF911F9197
:105060000F91FF90EF900895EF92FF920F931F938F
:105070007B019A010027F7FC0095102FB801A701CA
:10508000C0DF1F910F91FF90EF9008950F931F9332
:105090008C014DE050E060E070E020E030E0B1DFF6
:1050A000C8014AE050E060E070E020E030E0A9DFB5
:1050B0001F910F910895CF92DF92EF92FF920F937D
:1050C0001F938C019A016B01EE24FF24B701A60106
:1050D0007CDFC801DBDF1F910F91FF90EF90DF9025
:1050E000CF9008959F92AF92BF92CF92DF92EF92AE
:1050F000FF920F931F93CF93DF93EC017A018B0103
:10510000922ECB01BA0120E030E040E050E00E9456
:105110009CD0882364F4CE014DE250E060E070E062
:1051200020E030E06EDF17FB109517F9109520E0B6
:1051300030E040E05FE3AA240BC0CA01B90120E0DF
:1051400030E040E251E40E94A3D09B01AC01A39463
:10515000A91498F3C801B7010E94C3CF7B018C0149
:105160000E9410D15B016C010E943CD19B01AC01FB
:10517000C801B7010E94C2CF7B018C01CE01B601EC
:10518000A5012AE030E021DF992099F1E7E1F2E082
:1051900007C08091C00085FFFCCF31969093C60078
:1051A00090819923B1F725C0C801B70120E030E014
:1051B00040E251E40E947CD37B018C010E940BD120
:1051C0005B016C01CC24B7FCC094DC2CCE01B60191
:1051D000A5012AE030E015DFC601B5010E943ED1ED
:1051E0009B01AC01C801B7010E94C2CF7B018C01B9
:1051F0009A949920C9F6DF91CF911F910F91FF905A
:10520000EF90DF90CF90BF90AF909F9008956ACFBE
:105210000895EF92FF920F931F93CF93DF93EC01CA
:10522000E0901108F09012080091130810911408F2
:10523000688179818A819B81A80197010E949CD015
:10524000882324F4E882F9820A831B83E0901508FE
:10525000F090160800911708109118086C817D8154
:105260008E819F81A80197010E949CD0882324F4FD
:10527000EC82FD820E831F836091190870911A08D9
:1052800080911B0890911C0820E030E040E050E045
:105290000E94C3CF7B018C01688579858A859B85B7
:1052A000A80197010E949CD0882324F4E886F986FF
:1052B0000A871B87E0909503F0909603009197036F
:1052C00010919803688179818A819B81A801970157
:1052D0000E94AAD2181624F4E882F9820A831B835A
:1052E000E0909903F0909A0300919B0310919C0326
:1052F0006C817D818E819F81A80197010E94AAD235
:10530000181624F4EC82FD820E831F83E0909D0327
:10531000F0909E0300919F031091A003688579850A
:105320008A859B85A80197010E94AAD2181624F4A9
:10533000E886F9860A871B87DF91CF911F910F912D
:10534000FF90EF9008958091480808950F931F9360
:10535000CF93DF938130910549F46F5F7F4F09F060
:1053600046C081E695E00E943E2141C0892B09F0AC
:105370003EC06F5F7F4FD9F587E794E090932C078D
:1053800080932B0780913207882321F08FE297E0EA
:105390000E945A68C7EED6E007E714E005C06F9791
:1053A00085E0C13BD80751F0198308838F8188239A
:1053B000B1F3CE0104960E945A68F1CF87E794E0DA
:1053C000998388838F81882321F0CE0104960E94DF
:1053D0005A6887E794E090939105809390058091B7
:1053E0009705882321F084E995E00E945A68DF91AF
:1053F000CF911F910F91089580E090E06FEF7FEFC4
:10540000A5CF81E090E06FEF7FEFA0CF0E94467FB5
:1054100080914808882309F03AC081E080934808C9
:1054200080914B0890914C08A0914D08B0914E0886
:1054300080934F0890935008A0935108B09352085E
:10544000E9E0F5E0949108C08091C00085FFFCCFB1
:105450009093C600319694919923B1F7E0E2F5E07C
:10546000949108C08091C00085FFFCCF9093C60046
:10547000319694919923B1F78091C00085FFFCCFBC
:105480008AE08093C60086E195E00C94B4BF08954D
:10549000CF93DF93F8940E94467F9FB7F894809152
:1054A0000B01826080930B019FBF10921D08899AA7
:1054B00010921E089FB7F894809108018160809334
:1054C00008019FBF10921F08129A159AA29A8DE2A6
:1054D00060E00E944ECEE9E0F5E0949108C0809132
:1054E000C00085FFFCCF9093C6003196949199231C
:1054F000B1F7EFE9F5E0949108C08091C00085FF15
:10550000FCCF9093C600319694919923B1F7809186
:10551000C00085FFFCCF8AE08093C60086E995E055
:105520000E94C2BF7894C5E0D0E008C068EC70E08B
:1055300080E090E00E94ABCC0E94F0C221978FEFF8
:10554000CF3FD80799F7F894FFCF0E949DCC609386
:105550005508709356088093570890935808E09127
:105560008008F0918108EE57F74F80818823A9F4D5
:10557000EEEBF5E0949108C08091C00085FFFCCF70
:105580009093C600319694919923B1F78091C00011
:1055900085FFFCCF8AE08093C60008950E949DCCD1
:1055A0006093550870935608809357089093580855
:1055B00008956F927F928F929F92AF92BF92CF92F7
:1055C000DF92EF92FF920F931F93F82E60915F0886
:1055D0007091600880916108909162082091630841
:1055E0003091640840916508509166080E94B7D2D6
:1055F0003B014C0100D000D00DB71EB70F5F1F4F0D
:1056000060917F0370918003882777FD8095982FA4
:105610000E943ED12091A7033091A8034091A90395
:105620005091AA030E947CD320E030E040E752E48E
:105630000E94A3D020E030E048EC52E40E94A3D0C6
:105640005B016C01F8016082718282829382F48234
:1056500080913C08858385EF97E06BE678E04FE525
:1056600058E020E001E032E0E32E0E94664D809198
:105670006B0890916C08A0916D08B0916E088093B2
:10568000F5079093F607A093F707B093F80780917A
:105690006F0890917008A0917108B0917208809382
:1056A000F9079093FA07A093FB07B093FC0780914A
:1056B000730890917408A0917508B0917608809352
:1056C000FD079093FE07A093FF07B0930008809119
:1056D000770890917808A0917908B0917A08809322
:1056E000010890930208A0930308B09304088DB7B3
:1056F0009EB706960FB6F8949EBF0FBE8DBF0E9450
:105700009DCC6093550870935608809357089093EA
:1057100058081F910F91FF90EF90DF90CF90BF90AE
:10572000AF909F908F907F906F900895CF92DF926F
:10573000EF92FF920F931F938BE698E06ADD0E9431
:105740009DCC6093550870935608809357089093AA
:1057500058086091F5077091F6078091F7079091CE
:10576000F80720916B0830916C0840916D085091BA
:105770006E080E949CD0882309F07AC06091F907D6
:105780007091FA078091FB079091FC0720916F08B8
:105790003091700840917108509172080E949CD01D
:1057A000882309F065C06091A7037091A8038091D8
:1057B000A9039091AA0320E030E040E752E40E9460
:1057C000A3D07B018C018BE698E06FE678E043E79D
:1057D00058E027E738E0ECE3CE2EE8E0DE2E0E942A
:1057E000C15780916B0890916C08A0916D08B091A1
:1057F0006E088093F5079093F607A093F707B09390
:10580000F80780916F0890917008A0917108B0918D
:1058100072088093F9079093FA07A093FB07B0935F
:10582000FC078091730890917408A0917508B0915D
:1058300076088093FD079093FE07A093FF07B0932F
:1058400000088091770890917808A0917908B0912C
:105850007A088093010890930208A0930308B093FC
:1058600004081F910F91FF90EF90DF90CF90089563
:1058700060917F0370918003882777FD8095982F32
:105880000E943ED12091A7033091A8034091A90323
:105890005091AA030E947CD320E030E040E752E41C
:1058A0000E94A3D020E030E048EC52E488CF80E6AC
:1058B00095E0E9DAE1ECF5E0949108C08091C00050
:1058C00085FFFCCF9093C600319694919923B1F750
:1058D00040914B0850914C0860914D0870914E08D2
:1058E0004F5F5F4F6F4F7F4F80E695E02AE030E0DB
:1058F00088DB8091C00085FFFCCF8AE08093C600E2
:1059000024CE2F923F924F925F926F927F928F920E
:105910009F92AF92BF92CF92DF92EF92FF920F933E
:105920001F93DF93CF93CDB7DEB728970FB6F894C8
:10593000DEBF0FBECDBF98878F838330910508F0FF
:1059400056C1FC01E75DF74FD4903C01660C771C13
:10595000660C771C93012B50384F3A83298380E0E3
:1059600090E0A0E0B0E0F90180839183A283B3834B
:1059700085EF97E069EF77E04DEF57E021E038E001
:105980000E94BB52F301E45DF74FE590F59005915D
:1059900014916D2D772767FD7095882777FD809589
:1059A000982F0E943ED11B012C0193012559374F9E
:1059B0003C832B83C801B70120E030E040EC5FE37B
:1059C0000E947CD3A20191010E947CD3AB81BC8157
:1059D0006D937D938D939C931397F301E159FC4F45
:1059E000FE83ED8360817181828193816093A7033F
:1059F0007093A8038093A9039093AA0320E030E05A
:105A000040E752E40E94A3D07B018C018BE698E032
:105A10006FE678E043E758E027E738E0ACE3CA2ECA
:105A2000A8E0DA2E0E94C1570E94427680E090E002
:105A3000A0E0B0E0E981FA8180839183A283B383FF
:105A400085EF97E069EF77E04DEF57E021E038E030
:105A50000E94BB52F301E85CF74F85909590A590AA
:105A6000B490C501B4019058A20191010E947CD369
:105A7000AB81BC816D937D938D939C9313976091C3
:105A8000A7037091A8038091A9039091AA0320E035
:105A900030E040E752E40E94A3D07B018C018BE60A
:105AA00098E06FE678E043E758E027E738E00E94A7
:105AB000C1570E944276C501B401A50194010E941C
:105AC000C3CFA20191010E947CD3EB81FC81608352
:105AD000718382839383AD81BE816D917D918D9120
