:100000000C94490E0C94760E0C94760E0C94760E8D
:100010000C94760E0C94760E0C94760E0C94760E50
:100020000C94760E0C94760E0C94760E0C94760E40
:100030000C94760E0C94760E0C94760E0C94760E30
:100040000C94760E0C94F0750C94760E0C94760E3F
:100050000C94760E0C94760E0C94C57F0C942FCED7
:100060000C94760E0C94BB260C94760E0C94760EA3
:100070000C94760E0C94760E0C94760E0C94760EF0
:100080000C94760E0C94760E0C94760E0C94760EE0
:100090000C94760E0C94760E0C94760E0C94C9CAC1
:1000A0000C94760E0C94760E0C94760E0C94760EC0
:1000B0000C94760E0C94760E0C94760E0C94760EB0
:1000C0000C94760E0C94760E0C94760E0C94760EA0
:1000D0000C94760E0C94760E0C94760E0C94760E90
:1000E0000C94760E084AD73B3BCE016E84BCBFFD14
:1000F000C12F3D6C74319ABD56833DDA3D00C77FF8
:1001000011BED9E4BB4C3E916BAAAABE0000008090
:100110003F05A84CCDB2D44EB93836A9020C50B91F
:10012000918688083CA6AAAA2ABE000000803F4DFE
:10013000383420582059205A20450043616E6E6F94
:100140007420656E746572207375626469723A20FA
:10015000004D3234004D3233202573006175746FC9
:1001600025692E67006572726F72207772697469F3
:100170006E6720746F2066696C65004E6F74205343
:1001800044207072696E74696E67002F00534420BA
:100190007072696E74696E67206279746520002ED2
:1001A0000044656C6574696F6E206661696C656496
:1001B0002C2046696C653A200046696C65206465B0
:1001C0006C657465643A002E006F70656E20666120
:1001D000696C65642C2046696C653A200057726929
:1001E00074696E6720746F2066696C653A20002E12
:1001F000006F70656E206661696C65642C204669CD
:100200006C653A20002E006F70656E206661696C27
:1002100065642C2046696C653A200046696C65204F
:1002200073656C6563746564002053697A653A2070
:100230000046696C65206F70656E65643A20002E1B
:10024000006F70656E206661696C65642C2046697C
:100250006C653A20004E6F77206672657368206681
:10026000696C653A20004E6F7720646F696E672075
:1002700066696C653A20002220706F73002220703E
:100280006172656E743A2200535542524F5554497B
:100290004E452043414C4C207461726765743A228C
:1002A00000747279696E6720746F2063616C6C20D2
:1002B0007375622D67636F64652066696C65732072
:1002C0007769746820746F6F206D616E79206C653A
:1002D00076656C732E204D4158206C6576656C20D8
:1002E00069733A0053442063617264206F6B006F3E
:1002F00070656E526F6F74206661696C656400761C
:100300006F6C756D652E696E6974206661696C65C8
:100310006400534420696E6974206661696C00480A
:10032000617264636F6465642044656661756C74B2
:100330002053657474696E6773204C6F61646564E3
:10034000002044002049002020204D33303120502F
:10035000005049442073657474696E67733A0020D5
:100360005A0020590020204D323036205800486F66
:100370006D65206F666673657420286D6D293A007F
:10038000204500205A002058002042002054002020
:10039000204D323035205300416476616E636564D0
:1003A000207661726961626C65733A20533D4D69D4
:1003B0006E20666565647261746520286D6D2F73AB
:1003C000292C20543D4D696E2074726176656C2035
:1003D000666565647261746520286D6D2F73292CC4
:1003E00020423D6D696E696D756D207365676D6541
:1003F0006E742074696D6520286D73292C20583D1A
:100400006D6178696D756D205859206A65726B2031
:10041000286D6D2F73292C20205A3D6D6178696DF0
:10042000756D205A206A65726B20286D6D2F7329B7
:100430002C2020453D6D6178696D756D2045206AE1
:1004400065726B20286D6D2F7329002054002020C9
:100450004D323034205300416363656C65726174C2
:10046000696F6E3A20533D616363656C65726174B8
:10047000696F6E2C20543D726574726163742061E3
:100480006363656C65726174696F6E00204500205E
:100490005A0020590020204D3230312058004D6143
:1004A00078696D756D20416363656C65726174690F
:1004B0006F6E20286D6D2F7332293A002045002081
:1004C0005A0020590020204D3230332058004D6111
:1004D00078696D756D2066656564726174657320F9
:1004E000286D6D2F73293A00204500205A002059AD
:1004F0000020204D393220580053746570732070ED
:10050000657220756E69743A004572726F723A00B6
:100510006563686F3A0053544F505045442E200095
:100520005072696E7465722073746F7070656420A8
:1005300064756520746F206572726F72732E204629
:10054000697820746865206572726F7220616E64CC
:1005500020757365204D39393920746F20726573A9
:10056000746172742E202854656D706572617475A3
:1005700072652069732072657365742E20536574EB
:10058000206974206166746572207265737461728B
:1005900074696E6729004B494C4C45442E2000502D
:1005A00072696E7465722068616C7465642E206B6C
:1005B000696C6C28292063616C6C656421006F6B29
:1005C00000526573656E643A20002200556E6B6EB2
:1005D0006F776E20636F6D6D616E643A2022005AF2
:1005E000204F6666736574203A20007A5F6D6178EB
:1005F0003A20007A5F6D696E3A20005A204F666695
:10060000736574005A204F6666736574206F6B00C3
:10061000486F74656E64206F6666736574733A0024
:100620007A5F6D61783A20007A5F6D696E3A2000DA
:10063000795F6D61783A2000795F6D696E3A2000CC
:10064000785F6D61783A2000785F6D696E3A2000BE
:10065000205A3A0020593A0020436F756E74205892
:100660003A200020453A00205A3A0020593A0058D2
:100670003A004649524D574152455F4E414D453A29
:100680004D61726C696E2056313B20537072696EF9
:100690007465722F6772626C206D6173687570206B
:1006A000666F722067656E36204649524D5741523B
:1006B000455F55524C3A68747470733A2F2F6769CE
:1006C000746875622E636F6D2F4572696B5A616C29
:1006D0006D2F4D61726C696E2F2050524F544F43F5
:1006E0004F4C5F56455253494F4E3A312E30204DB4
:1006F000414348494E455F545950453A52756D62E1
:10070000612045585452554445525F434F554E540D
:100710003A3320555549443A30303030303030305B
:100720002D303030302D303030302D303030302DD5
:100730003030303030303030303030300A005275A8
:100740006D6261204F66662E0052756D6261207287
:10075000656164792E0042656420646F6E652E00C9
:1007600020423A0020453A00543A0042656420484D
:10077000656174696E672E0048656174696E6720F3
:10078000646F6E652E0020573A0020453A00543AB7
:100790000048656174696E672E2E2E002042403A33
:1007A0000020403A00202F003A00205400202F0063
:1007B00020423A00202F006F6B20543A0025692018
:1007C0006D696E2C2025692073656300456E642079
:1007D00066696C65206C69737400426567696E2098
:1007E00066696C65206C697374004E6F206D6F765E
:1007F000652E0052756D62612072656164792E000C
:10080000526573756D696E67207072696E740057FA
:1008100061697420666F7220757365722E2E2E00CA
:10082000536C6565702E2E2E00FFFFFF00005743AE
:1008300000004D43000048430000A0400000A040DD
:100840000000004000000000000000000000000068
:1008500000000000000000000000000000005743FE
:1008600000004D4300004843256920686F7572738E
:10087000202569206D696E7574657300446F6E651F
:10088000207072696E74696E672066696C650053CA
:10089000544F505045442E20005072696E7465725A
:1008A0002073746F707065642064756520746F20A8
:1008B0006572726F72732E204669782074686520A5
:1008C0006572726F7220616E6420757365204D3998
:1008D000393920746F20726573746172742E202808
:1008E00054656D70657261747572652069732072EC
:1008F000657365742E205365742069742061667475
:1009000065722072657374617274696E6729004E36
:100910006F204C696E65204E756D62657220776937
:10092000746820636865636B73756D2C204C61730C
:1009300074204C696E653A20004E6F2043686563F1
:100940006B73756D2077697468206C696E65206EB5
:10095000756D6265722C204C617374204C696E65F4
:100960003A2000636865636B73756D206D69736D04
:10097000617463682C204C617374204C696E653A15
:1009800020004C696E65204E756D6265722069733A
:10099000206E6F74204C617374204C696E65204E1C
:1009A000756D6265722B312C204C617374204C691B
:1009B0006E653A20004D31313000446F6E65207312
:1009C0006176696E672066696C652E006F6B004DFD
:1009D0003239002020506C616E6E65724275666619
:1009E000657242797465733A20002046726565200D
:1009F0004D656D6F72793A20004F6374202031206D
:100A00003230313500436F6D70696C65643A200097
:100A10006D61407265707261702E6D6500207C2082
:100A2000417574686F723A20004F63742020312042
:100A3000323031352031353A35373A303000204CBC
:100A400061737420557064617465643A2000312EBE
:100A5000302E30004D61726C696E0020536F6674E9
:100A60007761726520526573657400205761746305
:100A700068646F67205265736574002042726F77F7
:100A80006E206F757420526573657400204578740C
:100A900065726E616C20526573657400506F776586
:100AA000725570007374617274002200656E717506
:100AB00065696E672022002200656E717565696E3A
:100AC0006720220020746F6F206C6F6E672065783E
:100AD00074727573696F6E2070726576656E746579
:100AE000640020636F6C6420657874727573696F3D
:100AF0006E2070726576656E746564007C3C3E5E47
:100B00002B3D3F2F5B5D3B2C2A225C0045303A2079
:100B1000005A3A2000593A2000583A20004D5331EB
:100B20002C4D53322050696E730A0024F404D920EE
:100B30001BC40C5C0E9804C4095F0265077101F4C4
:100B400005F900FB04B30048048700C1036900589D
:100B500003550003034500BE023A008402310053EE
:100B6000022A002902250004022000E4011C00C81A
:100B7000011900AF011700980114008401130071DE
:100B80000110006101100051010E0043010D0036FB
:100B9000010B002B010B0020010B00150109000CBB
:100BA00001090003010800FB000800F3000800EB46
:100BB000000700E4000600DE000600D8000600D2B0
:100BC000000600CC000500C7000500C2000500BDFE
:100BD000000400B9000400B5000400B1000400AD39
:100BE000000400A9000400A5000300A20003009F68
:100BF0000004009B0003009800030095000200938E
:100C0000000300900003008D0002008B00030088A9
:100C10000002008600020084000300810002007FC1
:100C20000002007D0002007B0002007900020077D4
:100C300000010076000200740002007200010071E1
:100C40000002006F0002006D0001006C0002006AEB
:100C500000010069000200670001006600010065F4
:100C600000010064000200620001006100010060F8
:100C70000001005F0002005D0001005C0001005BFC
:100C80000001005A000100590001005800010057FE
:100C900000010056000100550001005400010053FE
:100CA00000000053000100520001005100010050FB
:100CB0000001004F0001004E0000004E0001004DF9
:100CC0000001004C0001004B0000004B0001004AF5
:100CD00000010049000100480000004800010047F1
:100CE00000010046000000460001004500000045EC
:100CF00000010044000100430000004300010042E5
:100D000000000042000100410000004100010040DD
:100D10000001003F0000003F0001003E0000003ED7
:100D20000001003D0000003D0001003C0000003CCF
:100D30000000003C0001003B0000003B0001003AC5
:100D40000000003A000100390000003900010038BD
:100D500000000038000000380001003700000037B4
:100D600000010036000000360000003600010035AA
:100D700000000035000000350001003400000034A0
:100D80000000003400010033000000330000003395
:100D9000000100320000003200000032000100318A
:100DA0000000003100000031000100300000003080
:100DB000000000300001002F0000002F0000002F75
:100DC0000000002F0001002E0000002E0000002E69
:100DD0000001002D0000002D0000002D0000002D5E
:100DE0000001002C0000002C0000002C0000002C52
:100DF0000001002B0000002B0000002B0000002B46
:100E00000001002A0000002A0000002A0000002A39
:100E1000000100290000002900000029000000292D
:100E20000000002900010028000000280000002820
:100E30000000002800000028000100270000002713
:100E40000000002700000027000000270001002606
:100E500000000026000000260000002600000026FA
:100E600000010025000000250000002500000025ED
:100E700000000025000000250001002400000024DF
:100E800000000024000000240000002400010023D2
:100E900000000023000000230000002300000023C6
:100EA00000000023000000230001002200000022B7
:100EB00000000022000000220000002200000022AA
:100EC000000100210000002100000021000000219D
:100ED000000000210000002100000021000100208E
:100EE0000000002000000020000000200000002082
:100EF0000000002000000020000000200001001F72
:100F00000000001F0000001F0000001F0000001F65
:100F10000000001F0000001F0001001E0000001E56
:100F20000000001E0000001E00000024F4D4305019
:100F3000C38E20C2A24017828B7011127A910D814C
:100F40006CD90AA861E108C7586607615143061EBB
:100F50004B5D05C145A7041A411104093D98037171
:100F60003931034036DB0265339102D430540280BC
:100F70002E1D02632CEE01752AC501B028A00110B8
:100F80002781018F2564012B244B01E0223401AC21
:100F9000211F018D200D01801FFC00841EED009794
:100FA0001DDF00B81CD200E61BC600201BBC00647D
:100FB0001AB200B219A8000A19A0006A189900D143
:100FC00017910040178B00B516840031167E00B3D0
:100FD0001579003A157300C7146F0058146A00EEB3
:100FE0001366008813630025135E00C7125B006C54
:100FF00012570015125400C111510070114F0021F9
:10100000114B00D61049008D1047004610440002D5
:10101000104200C00F4000800F3E00420F3C00060F
:101020000F3B00CB0E3800930E37005C0E350027C7
:101030000E3400F30D3200C10D3100900D30006010
:101040000D2E00320D2D00050D2C00D90C2B00AEFD
:101050000C2900850C29005C0C2700350C27000E9C
:101060000C2600E80B2400C40B2400A00B23007DF9
:101070000B23005A0B2100390B2100180B2000F81C
:101080000A1F00D90A1E00BB0A1E009D0A1D00800F
:101090000A1D00630A1C00470A1B002C0A1B0011D2
:1010A0000A1A00F7091A00DD091900C4091900AB72
:1010B000091900920917007B091800630917004CF1
:1010C00009160036091600200916000A091500F550
:1010D000081500E0081400CC081400B8081400A497
:1010E000081400900813007D0812006B08130058C4
:1010F00008120046081200340811002308110012DB
:1011000008110001081100F0071000E0071000D0DE
:10111000071000C0071000B0070F00A107100091D2
:10112000070E0083070F0074070F0065070E0057B6
:10113000070E0049070E003B070D002E070E00208A
:10114000070D0013070D0006070D00F9060C00ED52
:10115000060D00E0060C00D4060C00C8060C00BC0E
:10116000060C00B0060C00A4060B0099060C008DBE
:10117000060B0082060B0077060B006C060B006165
:10118000060A0057060B004C060A0042060A003801
:10119000060A002E060A0024060A001A060A001093
:1011A00006090007060A00FD050900F4050900EB21
:1011B000050900E2050900D9050900D0050900C7A5
:1011C000050900BE050900B5050800AD050800A524
:1011D0000509009C050800940508008C050800849A
:1011E0000508007C050800740508006C050700650B
:1011F0000508005D050700560508004E0507004775
:101200000507004005080038050700310507002ADA
:10121000050700230507001C050600160507000F3B
:101220000507000805060002050700FB040600F597
:10123000040700EE040600E8040600E2040700DBF1
:10124000040600D5040600CF040600C9040600C346
:10125000040600BD040600B7040600B1040500AC96
:10126000040600A6040600A00405009B04060095E1
:10127000040500900406008A04050085040500802A
:101280000406007A04050075040500700405006B6F
:1012900004050066040500610405005C04050057B0
:1012A000040500520405004D0405004804050043F0
:1012B0000405003E0404003A04050035040500302E
:1012C0000404002C04050027040400230405001E68
:1012D0000404001A04040016040500110404000D9F
:1012E000040400090405000404040000040400FCD4
:1012F000030400F8030400F4030400F0030400EC0A
:10130000030400E8030400E4030400E0030400DC39
:10131000030400D8030400D4030400D0030400CC69
:10132000030400C8030300C5030300656E647374FF
:101330006F7073206869743A205A00205A3A006529
:101340006E6473746F7073206869743A205900205A
:10135000593A00656E6473746F7073206869743AEB
:1013600020580020583A00656E6473746F707320C3
:101370006869743A20004572723A204D41585445CC
:101380004D50204245440054656D7065726174751E
:101390007265206865617465642062656420737796
:1013A000697463686564206F66662E204D415854E9
:1013B000454D50207472696767657265642021210C
:1013C000004572723A204D494E54454D50003A2026
:1013D00045787472756465722073776974636865A3
:1013E00064206F66662E204D494E54454D50207442
:1013F00072696767657265642021004572723A20E0
:101400004D415854454D50003A20457874727564EA
:101410006572207377697463686564206F66662EF1
:10142000204D415854454D5020747269676765726C
:101430006564202100202D20496E76616C6964204E
:101440006578747275646572206E756D6265722060
:10145000210070012C0190012701B0012201C0017F
:101460001D01F00118011002130130020E0160028B
:10147000090190020401C002FF000003FA004003CA
:10148000F5008003F000D003EB002004E6007004B8
:10149000E100E004DC004005D700C005D2004006B2
:1014A000CD00D006C8008007C3003008BE00F00899
:1014B000B900C009B400B00AAF00B00BAA00D00C4C
:1014C000A500000EA000500F9B00C0109600501207
:1014D000910000148C00C0158700B0178200B0196D
:1014E0007D00D01B7800001E730040206E0090220B
:1014F0006900F024640040275F0090295A00E02B27
:101500005500102E500020304B0010324600E033C2
:10151000410090353C001037370070383200A03958
:101520002D00B03A2800A03B2300603C1E00103D77
:101530001900903D1400103E0F00703E0A00C03E9E
:101540000500003F0000504944204175746F7475D8
:101550006E652066696E69736865642120507574D4
:1015600020746865206C617374204B702C204B696B
:1015700020616E64204B6420636F6E7374616E74BF
:10158000732066726F6D2061626F766520696E747C
:101590006F20436F6E66696775726174696F6E2E36
:1015A0006800504944204175746F74756E652066FB
:1015B00061696C6564212074696D656F75740020C4
:1015C000403A006F6B20543A006F6B20423A005053
:1015D0004944204175746F74756E65206661696C4D
:1015E0006564212054656D70657261747572652043
:1015F000746F6F206869676800204B643A20002090
:101600004B693A2000204B703A200020436C6173F4
:101610007369632050494420002054753A2000200B
:101620004B753A2000206D61783A2000206D696E7C
:101630003A200020643A200020626961733A200059
:101640002D2D3A2D2D002D2D2D0053440020590015
:101650000120000120004E6F20534420636172641A
:10166000005072696E742066726F6D20534400538F
:10167000746F70207072696E7400526573756D6559
:10168000207072696E7400506175736520707269A4
:101690006E7400436F6E74726F6C0050726570618F
:1016A00072650054756E6500496E666F20736372D3
:1016B00065656E00052E2E004D61696E004D323459
:1016C000004D3233202573004D38342058205920E6
:1016D0005A204500526573746F7265206661696CAB
:1016E00073616665004D6F74696F6E0054656D704F
:1016F00065726174757265004D61696E0045737441
:101700006570732F6D6D004573746570732F6D6D0B
:10171000005A73746570732F6D6D005A7374657021
:10172000732F6D6D005973746570732F6D6D005953
:1017300073746570732F6D6D005873746570732FBB
:101740006D6D005873746570732F6D6D00412D724F
:1017500065747261637400412D72657472616374A3
:1017600000416D6178206500416D61782065004120
:101770006D6178207A00416D6178207A00416D6159
:1017800078207900416D6178207900416D61782081
:101790007800416D61782078005654726176206D32
:1017A000696E005654726176206D696E00566D69DF
:1017B0006E00566D696E00566D6178206500566D3D
:1017C0006178206500566D6178207A00566D6178E9
:1017D000207A00566D6178207900566D6178207905
:1017E00000566D6178207800566D6178207800563B
:1017F000652D6A65726B0056652D6A65726B0056C1
:101800007A2D6A65726B00567A2D6A65726B005686
:1018100078792D6A65726B005678792D6A65726BDE
:1018200000416363656C00416363656C00436F6EE8
:1018300074726F6C00507265686561742041425328
:1018400020636F6E66005072656865617420504C4D
:101850004120636F6E66005049442D430050494457
:101860002D43005049442D44005049442D4400501C
:1018700049442D49005049442D49005049442D50B8
:10188000005049442D50002002204661637400201E
:10189000022046616374002002204D61780020021E
:1018A000204D6178002002204D696E002002204DFD
:1018B000696E004F6666004F6E20004F6666004FEF
:1018C0006E20004175746F74656D700046616E2006
:1018D00073706565640046616E20737065656400B1
:1018E00042656400426564004E6F7A7A6C65004E12
:1018F0006F7A7A6C6500436F6E74726F6C0042652C
:101900006400426564004E6F7A7A6C65004E6F7AAF
:101910007A6C650046616E2073706565640046618F
:101920006E2073706565640054656D7065726174D6
:101930007572650042656400426564004E6F7A7A94
:101940006C65004E6F7A7A6C650046616E2073702C
:101950006565640046616E2073706565640054655A
:101960006D7065726174757265004D6F766520618A
:10197000786973004D38300053776974636820705C
:101980006F776572206F6E004D3831005377697440
:10199000636820706F776572206F666600436F6FB3
:1019A0006C646F776E0050726568656174204142A7
:1019B00053005072656865617420504C4100536556
:1019C0007420686F6D65206F666673657473004779
:1019D0003238004175746F20686F6D65004D383482
:1019E0000044697361626C65207374657070657220
:1019F00073004D61696E004D6F766520302E316D3C
:101A00006D004D6F766520316D6D004D6F766520F0
:101A100031306D6D0050726570617265004578748B
:101A20007275646572004D6F7665205A004D6F7651
:101A3000652059004D6F76652058004D6F76652002
:101A400061786973004578747275646572005A0034
:101A500059005800507265686561742041425320F6
:101A6000426564005072656865617420414253208C
:101A70003100507265706172650050726568656111
:101A80007420504C41204265640050726568656165
:101A90007420504C412031005072657061726500B5
:101AA000466C6F77203000466C6F77203000466CB4
:101AB0006F7700466C6F770046616E2073706565C6
:101AC000640046616E207370656564004265640061
:101AD000426564004E6F7A7A6C65004E6F7A7A6C5C
:101AE00065005370656564005370656564004D6101
:101AF000696E00436172642072656D6F7665640083
:101B00004361726420696E736572746564004D335D
:101B1000303020533639382050323030004D333099
:101B2000302053363539205032303000000021004B
:101B3000240027002A002D0030003300010100009E
:101B4000040107010A0100002200250028002B00E3
:101B50002E003100340002010000050108010B01D4
:101B6000000020002300260029002C002F00320056
:101B7000000100000301060109010505050507052F
:101B800008080808020202020A0A080804040404F9
:101B90000101010101010101030303030303030325
:101BA000040707070C0C0C0C0C0C0C0C02020202B4
:101BB00006060606060606060B0B0B0B0B0B0B0B9D
:101BC000010210202008081020401020408002014F
:101BD0000201080402010102040810204080804034
:101BE0002010080402018004020180402010080433
:101BF00002010804020101020408102040800102D1
:101C00000408102040800000090A02080B0C0D0790
:101C100006030401000000000000000000000000B6
:101C200000000000000000000000000000000000B4
:101C3000000011100F000000000000000000000074
:101C4000000000000000000000000000494E46496E
:101C50004E4954594E414ECDCCCC3D0AD7233C176A
:101C6000B7D13877CC2B329595E6241FB14F0A00B7
:101C70000020410000C84200401C4620BCBE4CCAA7
:101C80001B0E5AAEC59D74004F27042AFCBE38CAED
:101C9000FF2911241FBECFEFD1E2DEBFCDBF00E090
:101CA0000CBF14E0A0E0B2E0EEE0FEEA01E00BBF02
:101CB00002C007900D92AC3EB107D9F71BBE13E1ED
:101CC000ACEEB4E001C01D92AD3BB107E1F71CE101
:101CD000C0E9DCE104C02297FE010E94ADD6C838FD
:101CE000D107C9F70E943DD10C94FBD60C9400009B
:101CF000A0E0B0E0EEE7FEE00C94CAD6EC015B0198
:101D00006115710519F0FB0191838083F9908F2D86
:101D100090E00E94B1D6892BC9F7FDE2FF1621F4AD
:101D2000F990EE24E39405C02BE2F21609F4F99041
:101D3000EE248E0101501040C8016CE47CE143E0C8
:101D400050E072D2892BF9F48E010E5F1F4FC8014B
:101D50006FE47CE145E050E067D2892B19F48E01F5
:101D6000095F1F4FA114B10419F0F501118300831D
:101D7000E0FC04C070E090E080E813C070E090E008
:101D800080E86FEF07C1C80164E57CE143E050E003
:101D90004BD2892B69F4A114B10429F470E090E0CE
:101DA00080EC6FE7F7C02296F501D183C083F6CFB0
:101DB0008824992440E050E060E070E0EF2DE0538B
:101DC000EA30A0F5F2E0EF2A8E2D90E09C01287019
:101DD0003070E2FE06C0232B79F50894811C911C1B
:101DE0002BC0232B19F0089481089108DB01CA014C
:101DF00012E0880F991FAA1FBB1F1A95D1F7480F31
:101E0000591F6A1F7B1F440F551F661F771F4E0FF8
:101E1000511D611D711D483929E9520729E96207E1
:101E200029E1720748F084E0E82A06C0EE3F31F469
:101E3000E3FC39C098E0E92AF990C0CFE53311F00E
:101E4000E53189F529912D3219F4E0E1EE2A05C03A
:101E50002B3219F081E090E003C0299182E090E0FC
:101E6000E22FE053EA3018F0C81BD90B1CC020E069
:101E700030E0FCE020383F075CF4C901880F991F6F
:101E8000880F991F280F391F220F331F2E0F311D66
:101E9000E991E053EA3068F3E4FE03C03095219500
:101EA0003F4F820E931ECE2CDD24E1FE07C0A1140D
:101EB000B10421F02197F501D183C083CB01BA0190
:101EC0000E9416D37B018C01F3E0CF22DD2423E0B6
:101ED000C216D10421F417FB109517F9109557017C
:101EE0006801C801B70120E030E040E050E00E9406
:101EF00076D2882309F44AC097FE0DC02BE6E22E65
:101F00002CE1F22E9094819491089394C0E2D0E059
:101F100000E010E012C093E8E92E9CE1F92EF6CF24
:101F2000F7012591359145915491C601B5010E9463
:101F300056D55B016C018C1A9D0A8C169D0684F7A0
:101F4000D595C7950F5F1F4F0630110529F08CEF0F
:101F50009FEFE80EF91EF1CFC501D6017C018D017E
:101F60008C2D880F8D2D881F8F3F51F0C601B50134
:101F700020E030E040E050E00E9476D2882331F447
:101F800082E290E09093BC138093BB137E2D9F2D33
:101F9000802F612F272F392F482F562FB901CA01C3
:101FA000CDB7DEB7ECE00C94E6D62F923F925F926D
:101FB0006F927F928F929F92AF92BF92CF92DF9259
:101FC000EF92FF920F931F93CF93DF938C011B012E
:101FD000EA016115710519F0FB0191838083209757
:101FE00049F0CE010297839728F020E030E040E0EE
:101FF00050E0F6C0F801A1908F018A2D90E00E9478
:10200000B1D6892BB9F7FDE2AF1631F4F801A190F2
:102010008F015524539407C0FBE2AF1619F4F80161
:10202000A1908F015524209719F0C031D105C1F43A
:10203000F0E3AF1679F4F8018081883711F0883524
:1020400049F4F801A1800E5F1F4FF2E05F2AC0E162
:10205000D0E006C0209721F480E3A816E9F427C059
:10206000C830D10531F1C930D10524F4C230D105D1
:1020700031F50CC0CA30D10589F0C031D105F9F471
:10208000C12CD12CE12CB8E0FB2E28C0C12CD12CC6
:10209000E12CA0E4FA2E22C0CAE0D0E0FCECCF2E66
:1020A000FCECDF2EFCECEF2EFCE0FF2E17C0C8E0AE
:1020B000D0E0C12CD12CE12CE0E1FE2E0FC09E011E
:1020C000442737FD4095542F60E070E080E090E8B1
:1020D0000E946ED6C901DA016C017D0120E030E07A
:1020E00040E050E060E03E01882477FC8094982C2A
:1020F00070EDB72EBA0CE9E0EB1570F48A2D81541F
:102100008A3118F499ECB92E06C08A2D81568A318D
:1021100050F589EAB82EBA0C8B2D90E08C179D07EC
:1021200014F56F3FE1F0C216D306E406F506B0F0F1
:10213000CA01B901A40193010E9428D69B01AC01F8
:102140002B0D311D411D511D2130F0E03F07F0E006
:102150004F07F0E85F0710F461E001C06FEFF8018E
:10216000A1908F01C5CF2114310481F0662331F095
:1021700001501040F1011183008308C051FE1AC0C4
:1021800002501040F1011183008314C067FF12C098
:1021900050FC05C02FEF3FEF4FEF5FE704C020E09A
:1021A00030E040E050E882E290E09093BC138093EE
:1021B000BB1316C050FE08C0509540953095219530
:1021C0003F4F4F4F5F4F0CC057FF0AC082E290E075
:1021D0009093BC138093BB132FEF3FEF4FEF5FE75C
:1021E000B901CA01DF91CF911F910F91FF90EF903C
:1021F000DF90CF90BF90AF909F908F907F906F9027
:102200005F903F902F900895FB01DC0105900D92A7
:102210000020E1F70895FC0105900020E9F7809582
:1022200090958E0F9F1F0895FB01DC014150504097
:1022300088F08D9181341CF08B350CF4805E6591B3
:1022400061341CF06B350CF4605E861B611171F318
:10225000990B0895881BFCCFFB01DC0141505040D5
:1022600048F005900D920020C9F701C01D92415021
:102270005040E0F70895FB0155915523A9F0BF01A7
:10228000DC014D9145174111E1F759F4CD0105905D
:10229000002049F04D9140154111C9F3FB01411156
:1022A000EFCF81E090E001970895FB01DC0104C0CD
:1022B0008D910190801921F441505040C8F7881B3E
:1022C000990B0895FB01DC0102C001900D92415071
:1022D0005040D8F70895FB01DC018D9181341CF04A
:1022E0008B350CF4805E619161341CF06B350CF41D
:1022F000605E861B611189F3990B0895FB01DC0177
:102300000D900020E9F7119701900D920020E1F760
:102310000895FC018191861721F08823D9F7992728
:1023200008953197CF010895FB01DC018D91019053
:1023300080190110D9F3990B0895FB01DC0101907C
:102340000D920020E1F70895FB01DC01415050405F
:1023500030F08D910190801919F40020B9F7881B95
:10236000990B0895FB01DC014150504048F0019069
:102370000D920020C9F701C01D9241505040E0F776
:102380000895AEE0B0E0E7ECF1E10C94D2D60E890E
:102390001F898EE08C831A8309838FEF9FE79E83CA
:1023A0008D839E01265E3F4FCE010196688D798D0B
:1023B000A9010AD02F813885020F131FF80110825E
:1023C0002E96E4E00C94EED6ABE0B0E0EAEEF1E15C
:1023D0000C94C4D63C012B015A01FC0117821682D1
:1023E000838181FD03C06FEF7FEFB9C19AE0892E31
:1023F0001E010894211C311CF3012381F20123FDED
:10240000859123FF81912F01882309F4A5C185328D
:1024100039F423FD859123FF81912F01853221F429
:1024200090E0B301B7D1E8CF982FFF24EE24992490
:10243000FFE1FF15D0F09B3269F09C3228F4903216
:1024400059F0933291F40EC09D3249F0903369F403
:1024500041E024C052E0F52A84E0F82A28C098E040
:10246000F92A25C0E0E1FE2A22C0F7FC29C0892F05
:1024700080538A3070F4F6FE05C0989C902C11248D
:10248000980E15C0E89CE02C1124E80EF0E2FF2A1B
:102490000EC09E3229F4F6FC5FC140E4F42A07C066
:1024A0009C3619F450E8F52A02C0983649F4F20136
:1024B00023FD959123FF91912F01992309F0B8CF26
:1024C000892F8554833018F08052833038F444E0EB
:1024D00050E0A40EB51E5FE359830FC0933631F070
:1024E000933779F0933509F052C01FC0F501808110
:1024F000898342E050E0A40EB51E610101E010E0C6
:1025000011C0F501C080D180F6FC03C06FEF7FEFF2
:1025100002C0692D70E042E050E0A40EB51EC60175
:102520002ED18C015FE7F52213C0F501C080D18068
:10253000F6FC03C06FEF7FEF02C0692D70E042E050
:1025400050E0A40EB51EC6010FD18C0150E8F52A4B
:10255000F3FE06C018C080E290E0B3011BD1EA94FC
:102560008E2D90E008171907B0F30DC0F601F7FCA7
:102570008591F7FE81916F0190E0B3010BD1E110DD
:10258000EA94015010400115110581F7E2C094361C
:1025900011F0993661F5F7FE08C0F501208131810F
:1025A0004281538184E090E00AC0F50180819181ED
:1025B0009C01442737FD4095542F82E090E0A80EFF
:1025C000B91E9FE6F92257FF09C0509540953095F6
:1025D00021953F4F4F4F5F4FE0E8FE2ACA01B901F6
:1025E000A1012AE030E002D1D82ED2183FC09537A1
:1025F00029F41F2D1F7E2AE030E01DC01F2D197FFA
:102600009F3661F0903720F4983509F0A5C00FC0CF
:10261000903739F0983709F09FC004C028E030E0C7
:102620000AC0106114FD146020E130E004C014FD04
:10263000166020E132E017FF08C0F501608171816A
:102640008281938144E050E008C0F501808191814E
:10265000BC0180E090E042E050E0A40EB51EA10174
:10266000C5D0D82ED2188FE7F82EF122F6FE0BC077
:102670005EEFF522D91438F4F4FE07C0F2FC05C071
:102680008FEEF82202C01D2D01C0192DF4FE0DC0E1
:10269000FE01ED0DF11D8081803319F499EEF922D0
:1026A00008C01F5FF2FE05C003C08F2D867809F0B9
:1026B0001F5F0F2DF3FC13C0F0FE0EC01E1510F0AF
:1026C0009D2C0AC09D2C9E0C911A1E2D05C080E2E7
:1026D00090E0B3015FD01F5F1E15C8F304C01E1544
:1026E00010F4E11A01C0EE2404FF0EC080E390E074
:1026F000B30150D002FF1BC001FD03C088E790E08A
:102700000EC088E590E00BC0802F867881F001FF35
:1027100002C08BE201C080E2F7FC8DE290E0B301E1
:1027200039D005C080E390E0B30134D09A94D91435
:10273000C8F3DA94F101ED0DF11D808190E0B30151
:1027400029D0DD20B1F705C080E290E0B30122D0AE
:10275000EA94EE20C9F750CEF30166817781CB0170
:102760002B96E2E10C94E0D6FC010590615070409C
:102770000110D8F7809590958E0F9F1F0895FC014A
:102780006150704001900110D8F7809590958E0FA0
:102790009F1F08950F931F93CF93DF938C01EB013D
:1027A0008B8181FF1BC082FF0DC02E813F818C81F8
:1027B0009D812817390764F4E881F9810193F98331
:1027C000E88306C0E885F985802F1995892B31F4B7
:1027D0008E819F8101969F838E8302C00FEF1FEF32
:1027E000C801DF91CF911F910F910895FA01AA2797
:1027F000283051F1203181F1E8946F936E7F6E5F44
:102800007F4F8F4F9F4FAF4FB1E03ED0B4E03CD0F1
:10281000670F781F891F9A1FA11D680F791F8A1FD4
:10282000911DA11D6A0F711D811D911DA11D20D03B
:1028300009F468943F912AE0269F11243019305DF5
:102840003193DEF6CF010895462F4770405D4193E6
:10285000B3E00FD0C9F7F6CF462F4F70405D4A3333
:1028600018F0495D31FD4052419302D0A9F7EACFFB
:10287000B4E0A6959795879577956795BA95C9F72A
:1028800000976105710508959B01AC010A2E06941D
:102890005795479537952795BA95C9F7620F731FD6
:1028A000841F951FA01D0895FC01128213820895B4
:1028B000FC018381882311F081E082830895FC016B
:1028C0008281811112820895CF93DF93DC01FC0194
:1028D000EB55FE4F808191810097C9F1019791835B
:1028E0008083ED01CC5ADF4FFD01ED58FF4F8BE1A6
:1028F000019009928150E1F7FD01EE5AFF4FAF5868
:10290000BF4F8D919C911197A157B04091838083C7
:10291000FD01ED58FF4F20E030E0AD014B555E4F1B
:1029200010C02F5F3F4FEF01DF015F968BE10D90ED
:1029300009928150E1F7858D968D3297918380833E
:10294000B196DA018D919C912817390750F3DF91E8
:10295000CF910895FC0187E794E09183808387817C
:10296000882321F0CF0104960C94DD670895CF925F
:10297000DF92EF92FF920F931F93DF93CF93CDB728
:10298000DEB76F970FB6F894DEBF0FBECDBF8C01D8
:102990006B01095A1F4FD8018C91075510408823AD
:1029A00021F42FE2E22EF12C03C090E5E92EF12C68
:1029B000E00EF11E87E794E09A8389831C821B82D4
:1029C00018861D82B7016C5F7F4FCE010596A60168
:1029D00021E00E94C96E882391F5E0E1F5E0949131
:1029E00008C08091C00085FFFCCF9093C60031964F
:1029F00094919923B1F7EBE3F1E0949108C08091B1
:102A0000C00085FFFCCF9093C60031969491992326
:102A1000B1F709C08091C00085FFFCCF0894C11CAC
:102A2000D11C9093C600F6019081992399F780916B
:102A3000C00085FFFCCF8AE08093C6005AC0F80131
:102A4000EB55FE4F208131812A30310508F040C01E
:102A50002F5F3F4F3183208321503040F90185E0C3
:102A6000EE0FFF1F8A95E1F7E21BF30BED58FF4FC6
:102A7000E00FF11F13C0AF01415E5F4FBF018BE15B
:102A8000DB010D90BD01DA010D92AD018150C1F75E
:102A9000929182913296968F858F7F972150304008
:102AA000BFEF2E3F3B0739F7D801AD58BF4FF701B5
:102AB00034968BE101900D928150E1F70F581F4F32
:102AC000F70182819381D8018D939C930157104027
:102AD000D801AC5ABF4FFE0135968BE101900D92A3
:102AE0008150E1F70E5A1F4F8B819C81F801918331
:102AF0008083CE0101962EDF6F960FB6F894DEBF6D
:102B00000FBECDBFCF91DF911F910F91FF90EF903E
:102B1000DF90CF900895EF92FF920F931F938C0157
:102B20003EECE32E31E0F32EE80EF91EC7010E94C1
:102B30009067C7010E94DD67F801108211821F9122
:102B40000F91FF90EF900895CF92DF92EF92FF9256
:102B50000F931F93CF93DF937C016B01DB010D90EB
:102B60000020E9F78D0101501040061B170BEEEC19
:102B7000F1E0EE0EFF1ED7011C92E2E3FEEFEE0E37
:102B8000FF1ECB016EE470E0C4DBEC01009731F472
:102B9000F8013197EC0DFD1D86010CC060E270E07C
:102BA000B8DB8C010F5F1F4FCE016AE270E0B1DB32
:102BB000FC0131978DE081838AE082831382C70113
:102BC00086539E4FB8010E94DA6F8EEC91E0E80EBA
:102BD000F91ED7018C91882319F1E9E0F5E0949171
:102BE00008C08091C00085FFFCCF9093C60031964D
:102BF00094919923B1F7E5E6F1E0949108C08091B2
:102C0000C00085FFFCCF9093C60031969491992324
:102C1000B1F78091C00085FFFCCF8AE08093C600A9
:102C2000DF91CF911F910F91FF90EF90DF90CF90A8
:102C30000895CF93DF93EC018B81882309F43BC087
:102C4000EDE8F1E0949108C08091C00085FFFCCFD1
:102C50009093C600319694919923B1F7CD57DD4FEB
:102C6000488159816A817B81C358D24080E795E0D1
:102C70002AE030E00E94E827EBE8F1E0949108C0F8
:102C80008091C00085FFFCCF9093C600319694914F
:102C90009923B1F7C558DD4F488159816A817B81FD
:102CA00080E795E02AE030E00E94E8278091C000AC
:102CB00085FFFCCF12C0EBE7F1E0949108C0809152
:102CC000C00085FFFCCF9093C60031969491992364
:102CD000B1F78091C00085FFFCCF8AE08093C600E9
:102CE000DF91CF9108952F923F924F925F926F9212
:102CF0007F928F929F92AF92BF92CF92DF92EF928C
:102D0000FF920F931F93DF93CF93CDB7DEB7AC97AE
:102D10000FB6F894DEBF0FBECDBF5C014B01FC01C6
:102D20008381882309F43BC1C50182539E4F0E94D1
:102D3000DD67F50112821A8A1D8A198A188A87E7C7
:102D400094E09F878E875EE4C52ED12CCA0CDB1CD5
:102D50002FE230E0A20EB31EF601B182A08221ED77
:102D60003FEFA20EB31EF40180818F3209F08DC0B7
:102D7000C4016FE270E0CDDA7C010894E11CF11C23
:102D80003E010894611C711C260142E1242E312C65
:102D90002C0E3D1E75C0C7016FE270E0BADA6C01FF
:102DA000009709F480C0E816F90608F07CC08C0191
:102DB0000E191F09C301B701A801D4DA060D171DAA
:102DC000F8011082F30107C08091C00085FFFCCF9D
:102DD00031969093C60090819923B1F78091C000FD
:102DE00085FFFCCFFAE0F093C600F20160817181AB
:102DF0006115710519F460E070E002C06C5F7F4FEF
:102E0000C101A30121E00E94C96E882371F5E9EC9C
:102E1000F1E0949108C08091C00085FFFCCF9093B1
:102E2000C600319694919923B1F7FE01319607C0FF
:102E30008091C00085FFFCCF31969093C6009081B1
:102E40009923B1F7E7ECF1E0949108C08091C000BC
:102E500085FFFCCF9093C600319694919923B1F7EA
:102E60008091C00085FFFCCF94C02EE030E02C0F95
:102E70003D1FF2013183208376010894E11CF11C8F
:102E8000E114F10409F087CF0BC080E590E0A80EB3
:102E9000B91EF601B182A08220EB3FEFA20EB31E55
:102EA000D82C092D02C0DE2C0F2D8EE490E0A80E48
:102EB000B91EF5018081918122EB3FEFA20EB31E76
:102EC000009719F480E090E001C004966D2D702FFA
:102ED0000E94956F882371F1E9EBF1E0949108C0AD
:102EE0008091C00085FFFCCF9093C60031969491ED
:102EF0009923B1F78D2D902F9C01F90107C0809186
:102F0000C00085FFFCCF31969093C6009081992335
:102F1000B1F78091C00085FFFCCF8AE08093C600A6
:102F200083E892E0A80EB91EF50110821182128288
:102F3000138232C0E1EAF1E0949108C08091C000B0
:102F400085FFFCCF9093C600319694919923B1F7F9
:102F50008D2D902F9C01F90107C08091C00085FF45
:102F6000FCCF31969093C60090819923B1F7EFE999
:102F7000F1E0949108C08091C00085FFFCCF909350
:102F8000C600319694919923B1F78091C00085FFD6
:102F9000FCCF8AE08093C600CE010E96DBDCAC96B7
:102FA0000FB6F894DEBF0FBECDBFCF91DF911F915A
:102FB0000F91FF90EF90DF90CF90BF90AF909F90D8
:102FC0008F907F906F905F904F903F902F900895DB
:102FD000BF92CF92DF92EF92FF920F931F93CF9306
:102FE000DF938C01EB018FE28993EE24E394FF24BD
:102FF00075EAC72E71E0D72EC00ED11E6FE1B62E36
:1030000014C0FB9CC00111248D589F4F800F911F4D
:10301000BE010E94ED6702C02196E3948881882357
:1030200019F08CE88E15C0F7F3942F2D30E0F601DF
:10303000808191812817390720F3E7FC07C0C80178
:1030400082539E4FBE010E94ED6701C01882DF913E
:10305000CF911F910F91FF90EF90DF90CF90BF9095
:103060000895EF92FF920F931F93CF93DF938C01FC
:10307000FC01138286A9882321F0C801C3960E940F
:10308000DD67E7EAEE2EE1E0FE2EE00EF11EC7015D
:1030900060E045E30E948C65882309F5E0E1F5E0F6
:1030A000949108C08091C00085FFFCCF9093C6002A
:1030B000319694919923B1F7E2E1F3E0949108C03D
:1030C0008091C00085FFFCCF9093C600319694910B
:1030D0009923B1F78091C00085FFFCCF7DC0E80146
:1030E000C455DE4FCE01B70141E00E946B708823CA
:1030F00041F5CE01B70140E00E946B70882309F5CD
:10310000E9E0F5E0949108C08091C00085FFFCCF14
:103110009093C600319694919923B1F7EFEFF2E0C6
:10312000949108C08091C00085FFFCCF9093C600A9
:10313000319694919923B1F78091C00085FFFCCF1F
:103140004BC0C801C396BE010E94CF6A882309F50F
:10315000E9E0F5E0949108C08091C00085FFFCCFC4
:103160009093C600319694919923B1F7EFEEF2E077
:10317000949108C08091C00085FFFCCF9093C60059
:10318000319694919923B1F78091C00085FFFCCFCF
:1031900023C081E0F8018383E0E1F5E0949108C069
:1031A0008091C00085FFFCCF9093C600319694912A
:1031B0009923B1F7E4EEF2E0949108C08091C00049
:1031C00085FFFCCF9093C600319694919923B1F777
:1031D0008091C00085FFFCCF8AE08093C600D801B3
:1031E000AC5ABF4FF801F3968BE101900D928150DC
:1031F000E1F7F80181A992A90E5A1F4FF8019183B6
:10320000808302551040C8018F96025B1F4FF80162
:1032100091838083DF91CF911F910F91FF90EF9069
:1032200008952F923F924F925F926F927F929F925A
:10323000AF92BF92CF92DF92EF92FF920F931F93C4
:10324000DF93CF93CDB7DEB7CC55D0400FB6F8940F
:10325000DEBF0FBECDBF6C01662311F527E832E05B
:10326000C20ED31ED6018C91E9E7FDEFCE0EDF1E14
:10327000882309F4E2C02FE732E0C20ED31ED60144
:10328000ED90FD900D911C91E1E8FDEFCE0EDF1E5B
:103290000E9477CEE616F7060807190708F4CDC096
:1032A00027E832E0C20ED31ED6011C92E9E7FDEFFB
:1032B000CE0EDF1ED60113968C91882339F4C601F9
:1032C000D0DEF6018381882309F4B7C000D000D096
:1032D000EDB7FEB731967E010894E11CF11CADB745
:1032E000BEB71296FC92EE9211978CE591E0938313
:1032F0008283D6019D968D919C919E979583848320
:1033000040D88701EDB7FEB736960FB6F894FEBFEA
:103310000FBEEDBF57010AC0D8018C91992787FDD8
:1033200090950E94B9D6F80181938F01F501019023
:103330000020E9F73197EA19FB09802F8E198E17C3
:103340005CF313E3A12EB12CAC0CBD1CC50140E015
:1033500050E060E070E00E94C6669924BDE3EB2E69
:10336000F12CEC0EFD1E2E010894411C511CAFE106
:103370006A2E712C6C0E7D1EF5E52F2EF1E03F2E8E
:1033800042C0D8018C9190E00E94B9D6F801819397
:103390008F01D7010D900020E9F71197AE19BF09F1
:1033A000802F8E198A176CF327968FAD27978E374B
:1033B00051F1C701B20145E050E00E94A41100970D
:1033C00011F500D000D0EDB7FEB73196ADB7BEB75E
:1033D00012967C926E921197338222825582448299
:1033E0000E94C111EDB7FEB736960FB6F894FEBF36
:1033F0000FBEEDBFC3010E94404B81E591E00E94EA
:10340000C74A99249394C501B70140E050E00E9457
:10341000EE69181614F48701BCCF992041F48FEFA0
:103420009FEFD6019E969C938E939D9706C0F601C2
:1034300085A596A5019696A785A7C45ADF4F0FB616
:10344000F894DEBF0FBECDBFCF91DF911F910F91DA
:10345000FF90EF90DF90CF90BF90AF909F907F90C4
:103460006F905F904F903F902F9008952F923F92D2
:103470004F925F926F927F928F929F92AF92BF9284
:10348000CF92DF92EF92FF920F931F93DF93CF9330
:10349000CDB7DEB7CF58D0400FB6F894DEBF0FBE21
:1034A000CDBF8C012B016A01C757DF4F39832883B9
:1034B000C958D04084E090E0C80ED91EF80171963A
:1034C000C957DF4FF983E883C758D04044E0642EE2
:1034D000712C600E711ECA57DF4F1882C658D0403B
:1034E00036E6E32EF12CEC0EFD1EC7010B96C557F8
:1034F000DF4F99838883CB58D04028E8822E22E082
:10350000922E800E911E9AE8A92E92E0B92EA00E5E
:10351000B11E87E4282E312C2C0E3D1EF10134966D
:10352000C357DF4FF983E883CD58D040E0E1F5E0A1
:103530008491C157DF4F8883CF58D04053C1F701E2
:103540008385482F50E0BA01687170706031710551
:1035500009F056C1F401208131812130310509F48F
:103560004FC12230310509F44BC1F701DE0111963C
:103570009081903239F08E2F8E19883011F48EE2BE
:103580008D939D933196C557DF4F88819981CB5894
:10359000D040E817F90761F71C921E86F20180817E
:1035A000882331F4CE010E9660E072E00E947E1115
:1035B000CE010E96B2010E947E11CE010E96BE0182
:1035C0006F5F7F4F0E947E11CE010E9660E072E029
:1035D0000E947E111CA61FA61BA61AA687E794E0D0
:1035E00099A788A7CE018C96B601AE014F5F5F4FB9
:1035F00021E00E94C96E882309F03FC0F401808158
:103600009181892BD1F5C157DF4F9881CF58D04098
:10361000E0E1F5E008C08091C00085FFFCCF909309
:10362000C600319694919923B1F7E2E0F2E007C029
:103630008091C00085FFFCCF31969093C6009081A9
:103640009923B1F78091C00085FFFCCFFAE0F09399
:10365000C600FE01319607C08091C00085FFFCCFF7
:1036600031969093C60090819923B1F78091C00064
:1036700085FFFCCF8AE08093C600C357DF4FA88147
:10368000B981CD58D040FE01BC968BE101900D92DE
:103690008150E1F78AA59BA5F1019383828387E797
:1036A00094E091838083C801BE01625F7F4FA101D6
:1036B00020E030E0DBDEC1014DD9CE0188964AD949
:1036C00091C09E3209F48EC09F3509F48BC0F80179
:1036D00091899E3209F486C09F3509F483C043FD69
:1036E00081C080E06031710509F481E0F80184A7B0
:1036F000882349F4F7018085873409F073C08185F8
:103700008E3709F46FC0D301F7018081803241F018
:103710008E2F8E19883011F48EE28D9380818D93D7
:103720003196C557DF4F88819981CB58D040E81733
:10373000F90759F71C92F40180819181009701F5F6
:10374000F20107C08091C00085FFFCCF31969093B5
:10375000C60090819923B1F7F30107C08091C000A2
:1037600085FFFCCF31969093C60090819923B1F7E5
:103770008091C00085FFFCCFFAE0F093C60032C014
:103780008130910539F4F501808191810196918311
:10379000808328C0029731F5C757DF4F8881998110
:1037A000C958D040009731F0B3010E946B11892BAA
:1037B00071F42BC0CA57DF4F9881C658D040292FCB
:1037C00030E0F5018081918128173907F1F0CA575F
:1037D000DF4FF881C658D040FF5FCA57DF4FF883EC
:1037E000C658D040C601B701C957DF4F488159813B
:1037F000C758D0400E94EE6918160CF4A0CE05C040
:10380000F7019081992309F05CCFC157DF4F0FB6C4
:10381000F894DEBF0FBECDBFCF91DF911F910F9106
:10382000FF90EF90DF90CF90BF90AF909F908F90E0
:103830007F906F905F904F903F902F900895EF9200
:10384000FF920F931F93DF93CF93CDB7DEB76F97A0
:103850000FB6F894DEBF0FBECDBF7C018C01025BBA
:103860001F4F805B9F4FF8019183808328E832E0EF
:10387000E20EF31E21E030E0F701219331937F0146
:103880001182108226E73DEFE20EF31E049640E01F
:1038900050E060E070E00E94C666F801208131814E
:1038A000DE011596F90134968BE101900D9281505D
:1038B000E1F7F901828193819C838B8387E794E010
:1038C0009A838983C70165E172E08E010F5F1F4F04
:1038D000A80120E030E0CADDC8013CD8F701E65776
:1038E000FD4F808191816F960FB6F894DEBF0FBEB9
:1038F000CDBFCF91DF911F910F91FF90EF90089571
:10390000CF92DF92EF92FF920F931F93DF93CF93AB
:10391000CDB7DEB76F970FB6F894DEBF0FBECDBF41
:103920007C016A018C01025B1F4F805B9F4FF80195
:103930009183808328E832E0E20EF31E22E030E03B
:10394000F701219331937F017183608326E73DEF77
:10395000E20EF31E049640E050E060E070E00E944A
:10396000C666F80120813181DE011596F901349691
:103970008BE101900D928150E1F7F90182819381F1
:103980009C838B8387E794E09A838983C70165E1F1
:1039900072E08E010F5F1F4FA801960167DDC8011D
:1039A0000E94AA146F960FB6F894DEBF0FBECDBF6B
:1039B000CF91DF911F910F91FF90EF90DF90CF900B
:1039C00008952F923F924F925F926F927F928F92C3
:1039D0009F92AF92BF92CF92DF92EF92FF920F939E
:1039E0001F93DF93CF93CDB7DEB7AD970FB6F894A3
:1039F000DEBF0FBECDBF7C013B014DA7DC0113969E
:103A00008C91882309F450C3E1EDF1E0EE0EFF1E26
:103A1000D7018C91EFE2FEEFEE0EFF1E882309F432
:103A200018C1222309F0E0C029EE31E0E20EF31EB6
:103A3000D7018C91E7E1FEEFEE0EFF1E882371F1B6
:103A4000E9E0F5E0949108C08091C00085FFFCCFCB
:103A50009093C600319694919923B1F7E1EAF2E090
:103A6000949108C08091C00085FFFCCF9093C60060
:103A7000319694919923B1F780E795E061E070E089
:103A80004AE050E00E9437288091C00085FFFCCFBB
:103A90008AE08093C6000E944B2A06C3E0E1F5E06D
:103AA000949108C08091C00085FFFCCF9093C60020
:103AB000319694919923B1F7E8E8F2E0949108C027
:103AC0008091C00085FFFCCF9093C6003196949101
:103AD0009923B1F7F30107C08091C00085FFFCCFA7
:103AE00031969093C60090819923B1F7EDE7F2E00B
:103AF000949108C08091C00085FFFCCF9093C600D0
:103B0000319694919923B1F7C7012EEE31E0E20E80
:103B1000F31EB7015DDA4BEF5FEFE40EF51ED70140
:103B20009C91E7E1FEEFEE0EFF1E8DE8989FF001FD
:103B30001124E251FE4FEE0DFF1D07C08091C00021
:103B400085FFFCCF31969093C60090819923B1F701
:103B5000E7E7F2E0949108C08091C00085FFFCCFB8
:103B60009093C600319694919923B1F723E832E0FF
:103B7000E20EF31ED7014D915D916D917C91EDE7C1
:103B8000FDEFEE0EFF1E80E795E02AE030E00E9498
:103B9000E8278091C00085FFFCCF8AE08093C600B3
:103BA000A70147515E4FDA012C91E22FF0E0EE0FB2
:103BB000FF1FEE0FFF1FEE0DFF1DE651FE4F83E8C6
:103BC00092E0E80EF91ED701AD90BD90CD90DC904B
:103BD0008DE79DEFE80EF91EA082B182C282D382EA
:103BE0002F5FDA012C932FC0E0E1F5E0949108C03B
:103BF0008091C00085FFFCCF9093C60031969491D0
:103C00009923B1F7E6E6F2E0949108C08091C000F4
:103C100085FFFCCF9093C600319694919923B1F71C
:103C2000F30107C08091C00085FFFCCF31969093CF
:103C3000C60090819923B1F78091C00085FFFCCF29
:103C40008AE08093C600C70182539E4F0E94DD67C1
:103C500039C0E9EEF1E0EE0EFF1ED7011C92E7E15C
:103C6000FEEFEE0EFF1EE0E1F5E0949108C08091BA
:103C7000C00085FFFCCF9093C600319694919923A4
:103C8000B1F7E5E5F2E0949108C08091C00085FFAE
:103C9000FCCF9093C600319694919923B1F7F3012C
:103CA00007C08091C00085FFFCCF31969093C6007D
:103CB00090819923B1F78091C00085FFFCCF8AE005
:103CC0008093C600D70112961C921A8A1D8A198AFF
:103CD000188A87E794E09F878E876EE4A62EB12C22
:103CE000AE0CBF1CEFE2F0E0EE0EFF1ED501ED9230
:103CF000FC92E1EDFFEFEE0EFF1ED3018C918F32AF
:103D000009F090C0C3016FE270E00E9489116C015C
:103D10000894C11CD11C4E010894811C911C2501E2
:103D200052E1252E312C2C0E3D1E77C0C6016FE2CC
:103D300070E00E9489115C01009709F480C0C816E8
:103D4000D90608F07CC08C010C191D09C401B6010C
:103D5000A8010E94B211080D191DF8011082F4018A
:103D600007C08091C00085FFFCCF31969093C600BC
:103D700090819923B1F78091C00085FFFCCFFAE0D4
:103D8000F093C600D2016D917C916115710519F413
:103D900060E070E002C06C5F7F4FC101A40121E0D0
:103DA0000E94C96E882371F5E1E4F2E0949108C0A5
:103DB0008091C00085FFFCCF9093C600319694910E
:103DC0009923B1F7FE01319607C08091C00085FFAD
:103DD000FCCF31969093C60090819923B1F7EFE321
:103DE000F2E0949108C08091C00085FFFCCF9093D1
:103DF000C600319694919923B1F78091C00085FF58
:103E0000FCCF23C12EE030E02C0F3D1FF2013183A7
:103E1000208365010894C11CD11CC114D10409F090
:103E200085CF0BC040E550E0E40EF51ED501ED92C4
:103E3000FC92E0EBFFEFEE0EFF1E830101C0860156
:103E4000F701E25BFF4F2DA5222309F4BFC060817B
:103E500071816115710519F460E070E002C06C5F5A
:103E60007F4FC70182539E4FA80121E00E94C96E77
:103E7000882309F47EC04FED51E0E40EF51ED70112
:103E80004D915D916D917C91ECE9F0E0EE0EFF1E9D
:103E9000D7014D935D936D937C931397E5E8FDEF08
:103EA000EE0EFF1EE1E3F2E0949108C08091C000A5
:103EB00085FFFCCF9093C600319694919923B1F77A
:103EC000F80107C08091C00085FFFCCF3196909328
:103ED000C60090819923B1F7E9E2F2E0949108C01D
:103EE0008091C00085FFFCCF9093C60031969491DD
:103EF0009923B1F780E795E02AE030E00E94E827B7
:103F00008091C00085FFFCCF8AE08093C60023E843
:103F100032E0E20EF31ED7011D921D921D921C92FB
:103F20001397EDE7FDEFEE0EFF1EEBE1F2E094914B
:103F300008C08091C00085FFFCCF9093C6003196E9
:103F400094919923B1F78091C00085FFFCCF8AE05E
:103F50008093C600C70160E070E0A801D1DCD70102
:103F600051968C91882309F498C087010F5E1F4FEA
:103F700094C0E7E0F2E0949108C08091C00085FF12
:103F8000FCCF9093C600319694919923B1F7F80134
:103F900007C08091C00085FFFCCF31969093C6008A
:103FA00090819923B1F7E5E0F2E0949108C0809107
:103FB000C00085FFFCCF9093C60031969491992361
:103FC000B1F78091C00085FFFCCF3FC06081718157
:103FD0006115710519F460E070E002C06C5F7F4FFD
:103FE000C70182539E4FA80126E50E94C96E88230F
:103FF00081F5E1EFF1E0949108C08091C00085FF68
:10400000FCCF9093C600319694919923B1F7F801B3
:1040100007C08091C00085FFFCCF31969093C60009
:1040200090819923B1F7EFEEF1E0949108C080916F
:10403000C00085FFFCCF9093C600319694919923E0
:10404000B1F78091C00085FFFCCF8AE08093C60065
:1040500027C081E0F7018083EDEDF1E0949108C085
:104060008091C00085FFFCCF9093C600319694915B
:104070009923B1F7F30107C08091C00085FFFCCF01
:1040800031969093C60090819923B1F78091C0003A
:1040900085FFFCCF8AE08093C600C8010E944BBF19
:1040A000CE010E960E94AA14AD960FB6F894DEBF0C
:1040B0000FBECDBFCF91DF911F910F91FF90EF9079
:1040C000DF90CF90BF90AF909F908F907F906F9038
:1040D0005F904F903F902F900895EF92FF920F9333
:1040E0001F93CF93DF93EC010E94C5758E0107519A
:1040F0001E4FD8018C91BEECEB2EB1E0FB2EEC0EE6
:10410000FD1E882399F1C7010E94DD67F8016081D7
:10411000615060838DE8689FB001112462517E4F29
:104120006C0F7D1FCE0141E021E04BDCD801EC910A
:10413000F0E0EE0FFF1FEE0FFF1FEC0FFD1FE6512B
:10414000FE4F4081518162817381CD57DD4F48839D
:1041500059836A837B83C358D240C7010E94C666D5
:104160008B81882389F181E08A832EC00E94A37508
:10417000C7010E94DD671A828FE291E00E94C74A60
:104180008091970A882301F11092970A80914C0838
:10419000C82FD0E0CC0FDD1FC352DE4E688179817D
:1041A000882777FD8095982F0E9418D32091B0031F
:1041B0003091B1034091B2035091B3030E9484D473
:1041C000181614F419821882DF91CF911F910F9164
:1041D000FF90EF900895FC0181E08183CF0140E0E2
:1041E00021E0EFCBEF92FF920F931F93DF93CF93DA
:1041F000CDB7DEB76F970FB6F894DEBF0FBECDBF59
:104200007C0188E892E0E80EF91EF7011182108225
:1042100088E79DEFE80EF91E87010D5C1F4FC8016E
:1042200040E050E060E070E00E94C666DE01159656
:10423000F8018BE101900D928150E1F7F70181A91E
:1042400092A99C838B8387E794E09A838983C70133
:1042500065E172E08E010F5F1F4FA80120E030E0A2
:1042600005D9C8010E94AA146F960FB6F894DEBF54
:104270000FBECDBFCF91DF911F910F91FF90EF90B7
:1042800008950F931F93CF93DF93DC01D3961C9275
:10429000D397D6961C92D697D2961C921E92D197FF
:1042A00087E794E0D0969C938E939F97AC5ABF4F2C
:1042B0001C9213961C92A755B040FD01E05BFF4F86
:1042C000AE5ABF4F11961C921E92A255B0409183D8
:1042D0008083ED01C159DF4FFE0120E030E0482F1F
:1042E000148217821382128240839183215E3F4F92
:1042F0007F9681E02633380799F7A855BE4F89E1AC
:104300008C9313961C9258961C921B961C92139693
:104310001C92A15DB140FD01E653FE4FA453BE4F78
:1043200011961C921E9240839183A155BF4F1D92FE
:104330001D921D921C92139718961D921D921D920C
:104340001C921397A358B24012961C921297139680
:104350001C9213971C9211961C9211978D01015873
:104360001D4FF8011082118212821382AB55BE4F8D
:1043700011961C921E92AC5BBF4F1C92FE01C901AC
:1043800011920197E9F7A256BF4F81E08C93A7588D
:10439000B2409E961C921E929D970E9477CE6857BF
:1043A0007C4E8F4F9F4FF80160837183828393838C
:1043B000DF91CF911F910F910895DF93CF93CDB7E8
:1043C000DEB7E0970FB6F894DEBF0FBECDBFDE01BB
:1043D0001196E7E1F4E080E101900D928150E1F760
:1043E000DE015196E7E0F4E080E101900D9281500A
:1043F000E1F7DE019196E7EFF3E080E101900D92A5
:104400008150E1F789819A81AB81BC8180933B0A1D
:1044100090933C0AA0933D0AB0933E0A89899A89F9
:10442000AB89BC8980932B0A90932C0AA0932D0A08
:10443000B0932E0A89A19AA1ABA1BCA180934B0A8B
:1044400090934C0AA0934D0AB0934E0A8D819E81A1
:10445000AF81B88580933F0A9093400AA093410AA8
:10446000B093420A8D899E89AF89B88D80932F0AB7
:104470009093300AA093310AB093320A8DA19EA185
:10448000AFA1B8A580934F0A9093500AA093510A08
:10449000B093520A89859A85AB85BC858093430A7F
:1044A0009093440AA093450AB093460A898D9A8D49
:1044B000AB8DBC8D8093330A9093340AA093350A58
:1044C000B093360A89A59AA5ABA5BCA58093530ADB
:1044D0009093540AA093550AB093560A8D859E85F1
:1044E000AF85B8898093470A9093480AA093490AF8
:1044F000B0934A0A8D8D9E8DAF8DB8A18093370AF7
:104500009093380AA093390AB0933A0A8DA59EA5D4
:10451000AFA5B8A98093570A9093580AA093590A57
:10452000B0935A0A0E94765280E090E8ABE3B5E47B
:1045300080935F0A9093600AA093610AB093620A25
:104540008093630A9093640AA093650AB093660A05
:1045500020E030E040E050E020935B0A30935C0ABA
:1045600040935D0A50935E0A80E29EE4A0E0B0E0D2
:104570008093270A9093280AA093290AB0932A0AC5
:104580002093730A3093740A4093750A5093760A05
:1045900080E090E0A0EAB1E48093670A9093680A13
:1045A000A093690AB0936A0A8DEC9CECACECBEE374
:1045B00080936B0A90936C0AA0936D0AB0936E0A75
:1045C00080E090E0A0EAB0E480936F0A9093700AD4
:1045D000A093710AB093720A20931D0830931E08AD
:1045E00040931F08509320082093190830931A080D
:1045F00040931B0850931C0820931508309316080D
:10460000409317085093180888EC90E090938E120E
:1046100080938D128CE390E09093901280938F1290
:104620002FEF30E0309392122093911280EF90E0C0
:1046300090939412809393128EE690E0909396124A
:104640008093951230939812209397128AE999E9F2
:10465000A1EBB1E48093C1039093C203A093C30381
:10466000B093C40361E77DE38AE89FE30E94F47E90
:104670006093C5037093C6038093C7039093C803E8
:1046800060E070E084EE92E40E94007F6093C903D2
:104690007093CA038093CB039093CC030E94E27D76
:1046A00080E090E0A0E8BFE38093CD039093CE0339
:1046B000A093CF03B093D003E0E1F5E0949108C05C
:1046C0008091C00085FFFCCF9093C60031969491F5
:1046D0009923B1F7EFE1F3E0949108C08091C00015
:1046E00085FFFCCF9093C600319694919923B1F742
:1046F0008091C00085FFFCCF8AE08093C600E096E1
:104700000FB6F894DEBF0FBECDBFCF91DF910895F5
:10471000CF93DF93C0E1D5E0FE01949108C0809172
:10472000C00085FFFCCF9093C600319694919923E9
:10473000B1F7E9EFF4E0949108C08091C00085FFE3
:10474000FCCF9093C600319694919923B1F7809154
:10475000C00085FFFCCF8AE08093C600FE019491E3
:10476000E0E1F5E008C08091C00085FFFCCF9093A8
:10477000C600319694919923B1F740913B0A50912C
:104780003C0A60913D0A70913E0A81EF94E00E94DC
:10479000342E40913F0A5091400A6091410A709135
:1047A000420A8EEE94E00E94342E4091430A5091CA
:1047B000440A6091450A7091460A8BEE94E00E948B
:1047C000342E4091470A5091480A6091490A7091ED
:1047D0004A0A88EE94E00E94342EE6E1F2E007C037
:1047E0008091C00085FFFCCF31969093C6009081E8
:1047F0009923B1F78091C00085FFFCCF8AE08093B8
:10480000C600FE019491E0E1F5E008C08091C0008F
:1048100085FFFCCF9093C600319694919923B1F710
:10482000EEECF4E0949108C08091C00085FFFCCFCD
:104830009093C600319694919923B1F78091C0006E
:1048400085FFFCCF8AE08093C600FE019491E0E1F1
:10485000F5E008C08091C00085FFFCCF9093C600B2
:10486000319694919923B1F740912B0A50912C0ADB
:1048700060912D0A70912E0A85EC94E00E94342EEE
:1048800040912F0A5091300A6091310A7091320A9A
:1048900082EC94E00E94342E4091330A5091340A05
:1048A0006091350A7091360A8FEB94E00E94342EA5
:1048B0004091370A5091380A6091390A70913A0A4A
:1048C0008CEB94E00E94342EE6E1F2E007C0809188
:1048D000C00085FFFCCF31969093C600908199234C
:1048E000B1F78091C00085FFFCCF8AE08093C600BD
:1048F000FE019491E0E1F5E008C08091C00085FFE1
:10490000FCCF9093C600319694919923B1F7EEE9CC
:10491000F4E0949108C08091C00085FFFCCF909393
:10492000C600319694919923B1F78091C00085FF1C
:10493000FCCF8AE08093C600FE019491E0E1F5E0AF
:1049400008C08091C00085FFFCCF9093C6003196CF
:1049500094919923B1F740914B0A50914C0A609180
:104960004D0A70914E0A85E994E00E94462E4091CE
:104970004F0A5091500A6091510A7091520A82E98F
:1049800094E00E94462E4091530A5091540A60913F
:10499000550A7091560A8FE894E00E94462E409185
:1049A000570A5091580A6091590A70915A0A8CE836
:1049B00094E00E94462EE6E1F2E007C08091C0003C
:1049C00085FFFCCF31969093C60090819923B1F773
:1049D0008091C00085FFFCCF8AE08093C600FE0175
:1049E0009491E0E1F5E008C08091C00085FFFCCF24
:1049F0009093C600319694919923B1F7E7E5F4E0DE
:104A0000949108C08091C00085FFFCCF9093C600B0
:104A1000319694919923B1F78091C00085FFFCCF26
:104A20008AE08093C600FE019491E0E1F5E008C0C1
:104A30008091C00085FFFCCF9093C6003196949181
:104A40009923B1F740915F0A5091600A6091610A21
:104A50007091620A8EE494E00E94342E4091630AC1
:104A60005091640A6091650A7091660A8BE494E043
:104A70000E94342EE6E1F2E007C08091C00085FF7D
:104A8000FCCF31969093C60090819923B1F7809125
:104A9000C00085FFFCCF8AE08093C600FE019491A0
:104AA000E0E1F5E008C08091C00085FFFCCF909365
:104AB000C600319694919923B1F7E8E9F3E0949117
:104AC00008C08091C00085FFFCCF9093C60031964E
:104AD00094919923B1F78091C00085FFFCCF8AE0C3
:104AE0008093C600FE019491E0E1F5E008C080915A
:104AF000C00085FFFCCF9093C60031969491992316
:104B0000B1F740915B0A50915C0A60915D0A709127
:104B10005E0A8FE893E00E94342E4091730A509110
:104B2000740A6091750A7091760A8CE893E00E948D
:104B3000342E4091270A5091280A6091290A7091D9
:104B40002A0A89E893E00E94462E4091670A509114
:104B5000680A6091690A70916A0A86E893E00E9487
:104B6000342E40916B0A50916C0A60916D0A7091DD
:104B70006E0A83E893E00E94342E40916F0A5091B0
:104B8000700A6091710A7091720A80E893E00E9445
:104B9000342EE6E1F2E007C08091C00085FFFCCF33
:104BA00031969093C60090819923B1F78091C0000F
:104BB00085FFFCCF8AE08093C600FE019491E0E17E
:104BC000F5E008C08091C00085FFFCCF9093C6003F
:104BD000319694919923B1F7EEE6F3E0949108C0F1
:104BE0008091C00085FFFCCF9093C60031969491D0
:104BF0009923B1F78091C00085FFFCCF8AE08093B4
:104C0000C600FE019491E0E1F5E008C08091C0008B
:104C100085FFFCCF9093C600319694919923B1F70C
:104C20004091150850911608609117087091180866
:104C300085E693E00E94342E4091190850911A089D
:104C400060911B0870911C0882E693E00E94342E4C
:104C500040911D0850911E0860911F087091200816
:104C60008FE593E00E94342EE6E1F2E007C08091E8
:104C7000C00085FFFCCF31969093C60090819923A8
:104C8000B1F78091C00085FFFCCF8AE08093C60019
:104C9000FE019491E0E1F5E008C08091C00085FF3D
:104CA000FCCF9093C600319694919923B1F7E1E53A
:104CB000F3E0949108C08091C00085FFFCCF9093F1
:104CC000C600319694919923B1F78091C00085FF79
:104CD000FCCF8AE08093C600FE019491E0E1F5E00C
:104CE00008C08091C00085FFFCCF9093C60031962C
:104CF00094919923B1F74091C1035091C2036091FF
:104D0000C3037091C40387E493E0AED76091C503F9
:104D10007091C6038091C7039091C8030E94FA7EE8
:104D2000AB01BC0184E493E09FD76091C90370910B
:104D3000CA038091CB039091CC030E94067FAB0104
:104D4000BC0181E493E090D7E6E1F2E007C08091F6
:104D5000C00085FFFCCF31969093C60090819923C7
:104D6000B1F78091C00085FFFCCF8AE08093C60038
:104D7000DF91CF9108951F920F920FB60F920BB64D
:104D80000F9211242F933F934F938F939F93EF9301
:104D9000FF934091C600E0916C05F0916D0531964E
:104DA0009F012F773070319780916E0590916F053C
:104DB0002817390739F0E451FB4F408330936D05D4
:104DC00020936C05FF91EF919F918F914F913F91AF
:104DD0002F910F900BBE0F900FBE0F901F90189544
:104DE0009A01AB01203081EE380780E0480780E06F
:104DF000580749F182E08093C00060E079E08DE3DC
:104E000090E00E9490D62150304040405040CA016E
:104E1000B90122E030E040E050E00E9490D63093AB
:104E2000C5002093C4008091C10080618093C100BF
:104E30008091C10088608093C1008091C10080682A
:104E40008093C10008951092C00020E130E0E7CFC8
:104E500020916E0530916F0580916C0590916D05E4
:104E60008217930719F42FEF3FEF0EC0F901E451B9
:104E7000FB4F80812F5F3F4F2F77307030936F054E
:104E800020936E05282F30E0C901089580916E05AA
:104E900090916F0590936D0580936C05089508952A
:104EA0002F923F924F925F926F927F928F929F923A
:104EB000AF92BF92CF92DF92EF92FF920F931F9328
:104EC000DF93CF93CDB7DEB7A0970FB6F894DEBFD0
:104ED0000FBECDBF1C016A017B0141155105610563
:104EE000710541F440E350E060E070E020E030E024
:104EF0008BD055C0882499245401422E5524662411
:104F0000772401E010E00C0F1D1F080D191DC701CB
:104F1000B601A30192010E946ED6F8016083089445
:104F2000811C911CA11CB11CC701B601A3019201F7
:104F30000E946ED6C901DA016C017D01C114D10451
:104F4000E104F104F1F681E0E82EF12CEC0EFD1EF7
:104F5000E80CF91C3E010894611C711CD501C401C8
:104F60000197A109B1096C01C818D90815C0F6014B
:104F7000EE0DFF1D40814A3010F4405D01C0495CD8
:104F8000552747FD5095652F752FC10120E030E072
:104F90003BD00894E108F1086E147F0441F7A09615
:104FA0000FB6F894DEBF0FBECDBFCF91DF911F913A
:104FB0000F91FF90EF90DF90CF90BF90AF909F90B8
:104FC0008F907F906F905F904F903F902F900895BB
:104FD0002115310539F48091C00085FFFCCF409345
:104FE000C60008955DCFEF92FF920F931F939A0131
:104FF000E62EFF2400E010E0B801A701E9DF1F91D1
:105000000F91FF90EF900895EF92FF920F931F93EF
:10501000CF93DF93EC017A018B012115310539F42F
:105020008091C00085FFFCCFE092C60019C02A30F5
:105030003105A9F477FF0FC04DE250E060E070E069
:1050400020E030E0E1DF10950095F094E094E11C61
:10505000F11C011D111DCE01B801A7012AE020DFBE
:10506000DF91CF911F910F91FF90EF900895EF92F4
:10507000FF920F931F937B019A010027F7FC009585
:10508000102FB801A701C0DF1F910F91FF90EF9083
:1050900008950F931F938C014DE050E060E070E0A5
:1050A00020E030E0B1DFC8014AE050E060E070E0AD
:1050B00020E030E0A9DF1F910F910895CF92DF9299
:1050C000EF92FF920F931F938C019A016B01EE24D4
:1050D000FF24B701A6017CDFC801DBDF1F910F9120
:1050E000FF90EF90DF90CF9008959F92AF92BF9284
:1050F000CF92DF92EF92FF920F931F93CF93DF93A4
:10510000EC017A018B01922ECB01BA0120E030E054
:1051100040E050E00E9476D2882364F4CE014DE254
:1051200050E060E070E020E030E06EDF17FB1095AB
:1051300017F9109520E030E040E05FE3AA240BC0AF
:10514000CA01B90120E030E040E251E40E947DD282
:105150009B01AC01A394A91498F3C801B7010E9464
:105160009DD17B018C010E94EAD25B016C010E94FF
:1051700016D39B01AC01C801B7010E949CD17B01F1
:105180008C01CE01B601A5012AE030E021DF992093
:1051900099F1E7E1F2E007C08091C00085FFFCCF04
:1051A00031969093C60090819923B1F725C0C8012C
:1051B000B70120E030E040E251E40E9456D57B0187
:1051C0008C010E94E5D25B016C01CC24B7FCC09439
:1051D000DC2CCE01B601A5012AE030E015DFC601C6
:1051E000B5010E9418D39B01AC01C801B7010E9410
:1051F0009CD17B018C019A949920C9F6DF91CF91C3
:105200001F910F91FF90EF90DF90CF90BF90AF90E4
:105210009F9008956ACF0895EF92FF920F931F9386
:10522000CF93DF93EC01E0902108F09022080091E9
:10523000230810912408688179818A819B81A801C3
:1052400097010E9476D2882324F4E882F9820A83A7
:105250001B83E0902508F090260800912708109104
:1052600028086C817D818E819F81A80197010E9411
:1052700076D2882324F4EC82FD820E831F83609112
:10528000290870912A0880912B0890912C0820E021
:1052900030E040E050E00E949DD17B018C016885A8
:1052A00079858A859B85A80197010E9476D28823FB
:1052B00024F4E886F9860A871B87E0909503F0902E
:1052C00096030091970310919803688179818A81F0
:1052D0009B81A80197010E9484D4181624F4E882C7
:1052E000F9820A831B83E0909903F0909A0300915E
:1052F0009B0310919C036C817D818E819F81A8010D
:1053000097010E9484D4181624F4EC82FD820E8347
:105310001F83E0909D03F0909E0300919F031091E6
:10532000A003688579858A859B85A80197010E94DD
:1053300084D4181624F4E886F9860A871B87DF913F
:10534000CF911F910F91FF90EF9008958091580891
:1053500008950F931F93CF93DF938130910549F404
:105360006F5F7F4F09F046C081E795E00E944121C1
:1053700041C0892B09F03EC06F5F7F4FD9F587E7A9
:1053800094E090933C0780933B07809142078823E9
:1053900021F08FE397E00E94DD67C7EFD6E007E7D3
:1053A00014E005C06F9785E0C13CD80751F0198320
:1053B00008838F818823B1F3CE0104960E94DD67B4
:1053C000F1CF87E794E0998388838F81882321F048
:1053D000CE0104960E94DD6787E794E09093A105D3
:1053E0008093A0058091A705882321F084EA95E0A9
:1053F0000E94DD67DF91CF911F910F91089580E0AA
:1054000090E06FEF7FEFA5CF81E090E06FEF7FEF4F
:10541000A0CF0E94C97E80915808882309F03AC025
:1054200081E08093580880915B0890915C08A0917E
:105430005D08B0915E0880935F0890936008A09328
:105440006108B0936208E9E0F5E0949108C08091AA
:10545000C00085FFFCCF9093C600319694919923AC
:10546000B1F7E0E2F5E0949108C08091C00085FFBB
:10547000FCCF9093C600319694919923B1F7809117
:10548000C00085FFFCCF8AE08093C60086E195E0EE
:105490000C9437BF0895CF93DF93F8940E94C97E90
:1054A0009FB7F89480910B01826080930B019FBF9E
:1054B00010922D08899A10922E089FB7F894809127
:1054C00008018160809308019FBF10922F08129AF3
:1054D000159AA29A8DE260E00E9428D0E9E0F5E0FA
:1054E000949108C08091C00085FFFCCF9093C600C6
:1054F000319694919923B1F7EFE9F5E0949108C0C2
:105500008091C00085FFFCCF9093C60031969491A6
:105510009923B1F78091C00085FFFCCF8AE080938A
:10552000C60086E995E00E9445BF7894C5E0D0E0CA
:1055300008C068EC70E080E090E00E9485CE0E9498
:1055400073C221978FEFCF3FD80799F7F894FFCF19
:105550000E9477CE60936508709366088093670811
:1055600090936808E0919008F0919108EE56F74FFB
:1055700080818823A9F4EEEBF5E0949108C0809136
:10558000C00085FFFCCF9093C6003196949199237B
:10559000B1F78091C00085FFFCCF8AE08093C60000
:1055A00008950E9477CE6093650870936608809393
:1055B00067089093680808956F927F928F929F92E8
:1055C000AF92BF92CF92DF92EF92FF920F931F9311
:1055D000F82E60916F087091700880917108909119
:1055E00072082091730830917408409175085091A9
:1055F00076080E9491D43B014C0100D000D00DB739
:105600001EB70F5F1F4F60917F0370918003882743
:1056100077FD8095982F0E9418D32091A703309191
:10562000A8034091A9035091AA030E9456D520E0F7
:1056300030E040E752E40E947DD220E030E048ECC8
:1056400052E40E947DD25B016C01F801608271829C
:1056500082829382F48280914C08858385E098E071
:105660006BE778E04FE658E020E001E032E0E32E1F
:105670000E94694D80917B0890917C08A0917D08E3
:10568000B0917E088093050890930608A0930708C0
:10569000B093080880917F0890918008A0918108BC
:1056A000B09182088093090890930A08A0930B0890
:1056B000B0930C088091830890918408A09185088C
:1056C000B091860880930D0890930E08A0930F0860
:1056D000B09310088091870890918808A09189085C
:1056E000B0918A088093110890931208A093130830
:1056F000B09314088DB79EB706960FB6F8949EBF68
:105700000FBE8DBF0E9477CE6093650870936608C8
:1057100080936708909368081F910F91FF90EF9016
:10572000DF90CF90BF90AF909F908F907F906F90C1
:105730000895CF92DF92EF92FF920F931F938BE722
:1057400098E06ADD0E9477CE6093650870936608E2
:105750008093670890936808609105087091060827
:10576000809107089091080820917B0830917C086F
:1057700040917D0850917E080E9476D2882309F0DE
:105780007AC06091090870910A0880910B08909185
:105790000C0820917F083091800840918108509139
:1057A00082080E9476D2882309F065C06091A70321
:1057B0007091A8038091A9039091AA0320E030E0A2
:1057C00040E752E40E947DD27B018C018BE798E098
:1057D0006FE778E043E858E027E838E0ECE4CE2EC5
:1057E000E8E0DE2E0E94C45780917B0890917C08EF
:1057F000A0917D08B0917E088093050890930608DB
:10580000A0930708B093080880917F0890918008C2
:10581000A0918108B09182088093090890930A08AA
:10582000A0930B08B0930C08809183089091840892
:10583000A0918508B091860880930D0890930E087A
:10584000A0930F08B0931008809187089091880862
:10585000A0918908B0918A0880931108909312084A
:10586000A0931308B09314081F910F91FF90EF902D
:10587000DF90CF90089560917F0370918003882717
:1058800077FD8095982F0E9418D32091A70330911F
:10589000A8034091A9035091AA030E9456D520E085
:1058A00030E040E752E40E947DD220E030E048EC56
:1058B00052E488CF80E795E0E9DAE1ECF5E09491F5
:1058C00008C08091C00085FFFCCF9093C600319640
:1058D00094919923B1F740915B0850915C086091D5
:1058E0005D0870915E084F5F5F4F6F4F7F4F80E79D
:1058F00095E02AE030E088DB8091C00085FFFCCF96
:105900008AE08093C60024CE2F923F924F925F92FE
:105910006F927F928F929F92AF92BF92CF92DF92BF
:10592000EF92FF920F931F93DF93CF93CDB7DEB724
:1059300028970FB6F894DEBF0FBECDBF98878F8330
:105940008330910508F056C1FC01E75DF74FD49014
:105950003C01660C771C660C771C93012B5F374F5C
:105960003A83298380E090E0A0E0B0E0F9018083F1
:105970009183A283B38385E098E069E078E04DE00D
:1059800058E021E138E00E94BE52F301E45DF74F98
:10599000E590F590059114916D2D772767FD709531
:1059A000882777FD8095982F0E9418D31B012C0122
:1059B00093012558374F3C832B83C801B70120E062
:1059C00030E040EC5FE30E9456D5A20191010E94B5
:1059D00056D5AB81BC816D937D938D939C9313972A
:1059E000F301E159FC4FFE83ED8360817181828177
:1059F00093816093A7037093A8038093A903909366
:105A0000AA0320E030E040E752E40E947DD27B010F
:105A10008C018BE798E06FE778E043E858E027E8EF
:105A200038E0ACE4CA2EA8E0DA2E0E94C4570E94E7
:105A3000C57580E090E0A0E0B0E0E981FA81808364
:105A40009183A283B38385E098E069E078E04DE03C
:105A500058E021E138E00E94BE52F301E85CF74FC4
:105A600085909590A590B490C501B4019058A2017D
:105A700091010E9456D5AB81BC816D937D938D932E
:105A80009C9313976091A7037091A8038091A90339
:105A90009091AA0320E030E040E752E40E947DD2DA
:105AA0007B018C018BE798E06FE778E043E858E0F2
:105AB00027E838E00E94C4570E94C575C501B401AB
:105AC000A50194010E949DD1A20191010E9456D589
:105AD000EB81FC816083718382839383AD81BE817E
